{
  "contractName": "FirestarterProject",
  "abi": [
    {
      "constant": true,
      "inputs": [],
      "name": "name",
      "outputs": [
        {
          "name": "",
          "type": "string"
        }
      ],
      "payable": false,
      "stateMutability": "view",
      "type": "function"
    },
    {
      "constant": true,
      "inputs": [],
      "name": "vestRate",
      "outputs": [
        {
          "name": "",
          "type": "uint256"
        }
      ],
      "payable": false,
      "stateMutability": "view",
      "type": "function"
    },
    {
      "constant": true,
      "inputs": [
        {
          "name": "",
          "type": "uint256"
        }
      ],
      "name": "allWithdraws",
      "outputs": [
        {
          "name": "ethAmount",
          "type": "uint256"
        },
        {
          "name": "daiAmount",
          "type": "uint256"
        },
        {
          "name": "message",
          "type": "string"
        }
      ],
      "payable": false,
      "stateMutability": "view",
      "type": "function"
    },
    {
      "constant": true,
      "inputs": [],
      "name": "DAI_ADDRESS",
      "outputs": [
        {
          "name": "",
          "type": "address"
        }
      ],
      "payable": false,
      "stateMutability": "view",
      "type": "function"
    },
    {
      "constant": true,
      "inputs": [
        {
          "name": "",
          "type": "uint256"
        }
      ],
      "name": "investors",
      "outputs": [
        {
          "name": "",
          "type": "address"
        }
      ],
      "payable": false,
      "stateMutability": "view",
      "type": "function"
    },
    {
      "constant": true,
      "inputs": [],
      "name": "manager",
      "outputs": [
        {
          "name": "",
          "type": "address"
        }
      ],
      "payable": false,
      "stateMutability": "view",
      "type": "function"
    },
    {
      "constant": true,
      "inputs": [],
      "name": "daiWithdrawn",
      "outputs": [
        {
          "name": "",
          "type": "uint256"
        }
      ],
      "payable": false,
      "stateMutability": "view",
      "type": "function"
    },
    {
      "constant": true,
      "inputs": [],
      "name": "HOUSE_COMMISSION",
      "outputs": [
        {
          "name": "",
          "type": "uint256"
        }
      ],
      "payable": false,
      "stateMutability": "view",
      "type": "function"
    },
    {
      "constant": true,
      "inputs": [
        {
          "name": "_block",
          "type": "uint256"
        }
      ],
      "name": "findPrevious",
      "outputs": [
        {
          "name": "",
          "type": "uint256"
        }
      ],
      "payable": false,
      "stateMutability": "view",
      "type": "function"
    },
    {
      "constant": true,
      "inputs": [],
      "name": "currentDaiFunds",
      "outputs": [
        {
          "name": "",
          "type": "uint256"
        }
      ],
      "payable": false,
      "stateMutability": "view",
      "type": "function"
    },
    {
      "constant": true,
      "inputs": [],
      "name": "owner",
      "outputs": [
        {
          "name": "",
          "type": "address"
        }
      ],
      "payable": false,
      "stateMutability": "view",
      "type": "function"
    },
    {
      "constant": false,
      "inputs": [
        {
          "name": "_rate",
          "type": "uint256"
        },
        {
          "name": "_block",
          "type": "uint256"
        }
      ],
      "name": "removeVestingRecordWithRateAndBlock",
      "outputs": [],
      "payable": false,
      "stateMutability": "nonpayable",
      "type": "function"
    },
    {
      "constant": true,
      "inputs": [],
      "name": "totalFunds",
      "outputs": [
        {
          "name": "",
          "type": "uint256"
        }
      ],
      "payable": false,
      "stateMutability": "view",
      "type": "function"
    },
    {
      "constant": true,
      "inputs": [
        {
          "name": "_id",
          "type": "uint256"
        }
      ],
      "name": "findPreviousWithId",
      "outputs": [
        {
          "name": "",
          "type": "uint256"
        }
      ],
      "payable": false,
      "stateMutability": "view",
      "type": "function"
    },
    {
      "constant": true,
      "inputs": [
        {
          "name": "",
          "type": "address"
        },
        {
          "name": "",
          "type": "uint256"
        }
      ],
      "name": "allFunds",
      "outputs": [
        {
          "name": "amount",
          "type": "uint256"
        },
        {
          "name": "fundType",
          "type": "uint8"
        },
        {
          "name": "start",
          "type": "uint256"
        },
        {
          "name": "canceled",
          "type": "uint256"
        },
        {
          "name": "end",
          "type": "uint256"
        }
      ],
      "payable": false,
      "stateMutability": "view",
      "type": "function"
    },
    {
      "constant": true,
      "inputs": [],
      "name": "firstVestingRecord",
      "outputs": [
        {
          "name": "",
          "type": "uint256"
        }
      ],
      "payable": false,
      "stateMutability": "view",
      "type": "function"
    },
    {
      "constant": true,
      "inputs": [],
      "name": "id",
      "outputs": [
        {
          "name": "",
          "type": "uint256"
        }
      ],
      "payable": false,
      "stateMutability": "view",
      "type": "function"
    },
    {
      "constant": true,
      "inputs": [],
      "name": "ethWithdrawn",
      "outputs": [
        {
          "name": "",
          "type": "uint256"
        }
      ],
      "payable": false,
      "stateMutability": "view",
      "type": "function"
    },
    {
      "constant": true,
      "inputs": [
        {
          "name": "",
          "type": "uint256"
        }
      ],
      "name": "allVestings",
      "outputs": [
        {
          "name": "rate",
          "type": "uint256"
        },
        {
          "name": "block",
          "type": "uint256"
        },
        {
          "name": "next",
          "type": "uint256"
        }
      ],
      "payable": false,
      "stateMutability": "view",
      "type": "function"
    },
    {
      "constant": true,
      "inputs": [],
      "name": "lastUpdate",
      "outputs": [
        {
          "name": "",
          "type": "uint256"
        }
      ],
      "payable": false,
      "stateMutability": "view",
      "type": "function"
    },
    {
      "constant": true,
      "inputs": [],
      "name": "maxId",
      "outputs": [
        {
          "name": "",
          "type": "uint256"
        }
      ],
      "payable": false,
      "stateMutability": "view",
      "type": "function"
    },
    {
      "constant": true,
      "inputs": [],
      "name": "totalVestings",
      "outputs": [
        {
          "name": "",
          "type": "uint256"
        }
      ],
      "payable": false,
      "stateMutability": "view",
      "type": "function"
    },
    {
      "constant": true,
      "inputs": [],
      "name": "totalWithdraws",
      "outputs": [
        {
          "name": "",
          "type": "uint256"
        }
      ],
      "payable": false,
      "stateMutability": "view",
      "type": "function"
    },
    {
      "constant": true,
      "inputs": [],
      "name": "getArr",
      "outputs": [
        {
          "name": "arr",
          "type": "uint256[]"
        }
      ],
      "payable": false,
      "stateMutability": "view",
      "type": "function"
    },
    {
      "inputs": [
        {
          "name": "_owner",
          "type": "address"
        },
        {
          "name": "_name",
          "type": "string"
        },
        {
          "name": "_id",
          "type": "uint256"
        },
        {
          "name": "_commisssion",
          "type": "uint256"
        }
      ],
      "payable": false,
      "stateMutability": "nonpayable",
      "type": "constructor"
    },
    {
      "anonymous": false,
      "inputs": [
        {
          "indexed": true,
          "name": "id",
          "type": "uint256"
        },
        {
          "indexed": false,
          "name": "amount",
          "type": "uint256"
        },
        {
          "indexed": false,
          "name": "from",
          "type": "address"
        },
        {
          "indexed": false,
          "name": "fundType",
          "type": "uint8"
        }
      ],
      "name": "ProjectFunded",
      "type": "event"
    },
    {
      "anonymous": false,
      "inputs": [
        {
          "indexed": true,
          "name": "id",
          "type": "uint256"
        },
        {
          "indexed": false,
          "name": "ethAmount",
          "type": "uint256"
        },
        {
          "indexed": false,
          "name": "daiAmount",
          "type": "uint256"
        },
        {
          "indexed": false,
          "name": "message",
          "type": "string"
        }
      ],
      "name": "ProjectWithdraw",
      "type": "event"
    },
    {
      "constant": false,
      "inputs": [],
      "name": "fundProjectDirectly",
      "outputs": [],
      "payable": true,
      "stateMutability": "payable",
      "type": "function"
    },
    {
      "constant": false,
      "inputs": [
        {
          "name": "_numOfBlocks",
          "type": "uint256"
        }
      ],
      "name": "fundProjectByVesting",
      "outputs": [],
      "payable": true,
      "stateMutability": "payable",
      "type": "function"
    },
    {
      "constant": false,
      "inputs": [
        {
          "name": "_daiAmount",
          "type": "uint256"
        }
      ],
      "name": "fundProjectByCompound",
      "outputs": [],
      "payable": false,
      "stateMutability": "nonpayable",
      "type": "function"
    },
    {
      "constant": false,
      "inputs": [
        {
          "name": "_fundId",
          "type": "uint256"
        }
      ],
      "name": "stopFunding",
      "outputs": [],
      "payable": false,
      "stateMutability": "nonpayable",
      "type": "function"
    },
    {
      "constant": false,
      "inputs": [
        {
          "name": "_ethBalance",
          "type": "uint256"
        },
        {
          "name": "_daiBalance",
          "type": "uint256"
        },
        {
          "name": "_message",
          "type": "string"
        }
      ],
      "name": "withdraw",
      "outputs": [],
      "payable": false,
      "stateMutability": "nonpayable",
      "type": "function"
    },
    {
      "constant": false,
      "inputs": [],
      "name": "updateBalance",
      "outputs": [],
      "payable": false,
      "stateMutability": "nonpayable",
      "type": "function"
    }
  ],
  "bytecode": "0x6080604052600160025560138054600160a060020a03199081167361bbd7bd5ee2a202d7e62519750170a52a8dfd451790915560148054909116734e17c87c52d0e9a0cad3fbc53b77d9514f0038071790553480156200005e57600080fd5b50604051620020a0380380620020a0833981018060405260808110156200008457600080fd5b815160208301805191939283019291640100000000811115620000a657600080fd5b82016020810184811115620000ba57600080fd5b8151640100000000811182820187101715620000d557600080fd5b505060208281015160409093015160058054600160a060020a031916600160a060020a03891617905582519295509293506200011791600691860190620001e0565b50600782905560048054600160a060020a031916331781556008829055601454601354604080517f095ea7b3000000000000000000000000000000000000000000000000000000008152600160a060020a039283169481019490945260001960248501525191169163095ea7b39160448083019260209291908290030181600087803b158015620001a757600080fd5b505af1158015620001bc573d6000803e3d6000fd5b505050506040513d6020811015620001d357600080fd5b5062000285945050505050565b828054600181600116156101000203166002900490600052602060002090601f016020900481019282601f106200022357805160ff191683800117855562000253565b8280016001018555821562000253579182015b828111156200025357825182559160200191906001019062000236565b506200026192915062000265565b5090565b6200028291905b808211156200026157600081556001016200026c565b90565b611e0b80620002956000396000f3fe6080604052600436106101d15760003560e060020a90048063968ed600116100fb578063bee2ecc011610099578063d7ba691e11610068578063d7ba691e146106e3578063e80bb15c146106f8578063e91ac26814610722578063fb8cbced14610737576101d1565b8063bee2ecc014610647578063bf5a138314610671578063c0463711146106b9578063c5ea3c65146106ce576101d1565b8063a8184b64116100d5578063a8184b64146105f3578063a9559dd714610608578063af640d0f1461061d578063b86f9b6b14610632576101d1565b8063968ed6001461053b5780639c328a4814610550578063a0058fb71461057a576101d1565b8063481c6a75116101735780636f371095116101425780636f371095146104b757806376e08124146104e15780638da5cb5b146104f6578063950deaef1461050b576101d1565b8063481c6a751461045b5780635645c4a414610470578063597d0ec7146104855780635eba1123146104a2576101d1565b80632a4c0a1a116101af5780632a4c0a1a146103375780632a5af00e14610368578063369c681b146103725780633feb5f2b14610431576101d1565b806306fdde03146101d65780630b7c3b83146102605780632891769514610287575b600080fd5b3480156101e257600080fd5b506101eb61079c565b6040805160208082528351818301528351919283929083019185019080838360005b8381101561022557818101518382015260200161020d565b50505050905090810190601f1680156102525780820380516001836020036101000a031916815260200191505b509250505060405180910390f35b34801561026c57600080fd5b5061027561082a565b60408051918252519081900360200190f35b34801561029357600080fd5b506102b1600480360360208110156102aa57600080fd5b5035610830565b6040518084815260200183815260200180602001828103825283818151815260200191508051906020019080838360005b838110156102fa5781810151838201526020016102e2565b50505050905090810190601f1680156103275780820380516001836020036101000a031916815260200191505b5094505050505060405180910390f35b34801561034357600080fd5b5061034c6108d9565b60408051600160a060020a039092168252519081900360200190f35b6103706108e8565b005b34801561037e57600080fd5b506103706004803603606081101561039557600080fd5b8135916020810135918101906060810160408201356401000000008111156103bc57600080fd5b8201836020820111156103ce57600080fd5b803590602001918460018302840111640100000000831117156103f057600080fd5b91908080601f016020809104026020016040519081016040528093929190818152602001838380828437600092019190915250929550610a78945050505050565b34801561043d57600080fd5b5061034c6004803603602081101561045457600080fd5b5035610f7c565b34801561046757600080fd5b5061034c610fa4565b34801561047c57600080fd5b50610275610fb3565b6103706004803603602081101561049b57600080fd5b5035610fb9565b3480156104ae57600080fd5b5061027561115c565b3480156104c357600080fd5b50610275600480360360208110156104da57600080fd5b5035611162565b3480156104ed57600080fd5b506102756111f6565b34801561050257600080fd5b5061034c6111fc565b34801561051757600080fd5b506103706004803603604081101561052e57600080fd5b508035906020013561120b565b34801561054757600080fd5b50610275611292565b34801561055c57600080fd5b506102756004803603602081101561057357600080fd5b5035611298565b34801561058657600080fd5b506105b36004803603604081101561059d57600080fd5b50600160a060020a0381351690602001356112ce565b604051808681526020018560028111156105c957fe5b60ff1681526020018481526020018381526020018281526020019550505050505060405180910390f35b3480156105ff57600080fd5b5061027561131f565b34801561061457600080fd5b50610370611325565b34801561062957600080fd5b50610275611341565b34801561063e57600080fd5b50610275611347565b34801561065357600080fd5b506103706004803603602081101561066a57600080fd5b503561134d565b34801561067d57600080fd5b5061069b6004803603602081101561069457600080fd5b503561163a565b60408051938452602084019290925282820152519081900360600190f35b3480156106c557600080fd5b5061027561165b565b3480156106da57600080fd5b50610275611661565b3480156106ef57600080fd5b50610275611667565b34801561070457600080fd5b506103706004803603602081101561071b57600080fd5b503561166d565b34801561072e57600080fd5b5061027561193d565b34801561074357600080fd5b5061074c611943565b60408051602080825283518183015283519192839290830191858101910280838360005b83811015610788578181015183820152602001610770565b505050509050019250505060405180910390f35b6006805460408051602060026001851615610100026000190190941693909304601f810184900484028201840190925281815292918301828280156108225780601f106107f757610100808354040283529160200191610822565b820191906000526020600020905b81548152906001019060200180831161080557829003601f168201915b505050505081565b600f5481565b600c6020908152600091825260409182902080546001808301546002808501805488519481161561010002600019011691909104601f8101879004870284018701909752868352929590949192918301828280156108cf5780601f106108a4576101008083540402835291602001916108cf565b820191906000526020600020905b8154815290600101906020018083116108b257829003601f168201915b5050505050905083565b601454600160a060020a031681565b336000818152600b6020526040902054151561095757601280546001810182556000919091527fbb8a6a4669ba250d26cd7a459eca9d215f8307e33aebe50379bc5a3617ec344401805473ffffffffffffffffffffffffffffffffffffffff1916600160a060020a0383161790555b60095461096a903463ffffffff611a0b16565b600955336000908152600b60209081526040808320815160a081018352348152808401858152439382019390935260608101859052608081018590528154600180820180855593875294909520815160059096020194855591518484018054929593949192909160ff19909116908360028111156109e457fe5b02179055506040820151816002015560608201518160030155608082015181600401555050506007547f2dc91c4e4d98180243940dbb23cbc2a91e58fac7e7c1971f5c1abdda5ad18b78343360006040518084815260200183600160a060020a0316600160a060020a03168152602001826002811115610a6057fe5b60ff168152602001935050505060405180910390a250565b601354601454604080517fba377731000000000000000000000000000000000000000000000000000000008152306004820152600160a060020a0392831660248201529051600093929092169163ba37773191604480820192602092909190829003018186803b158015610aeb57600080fd5b505afa158015610aff573d6000803e3d6000fd5b505050506040513d6020811015610b1557600080fd5b50519050610b21611325565b600554600160a060020a03163314610b3857600080fd5b60105460095403841115610b4b57600080fd5b600a548103831115610b5c57600080fd5b6000841115610c325733600160a060020a03166108fc610b9b6064610b8f60085460640389611a2690919063ffffffff16565b9063ffffffff611a5116565b6040518115909202916000818181858888f19350505050158015610bc3573d6000803e3d6000fd5b50600454600854600160a060020a03909116906108fc90610bf290606490610b8f90899063ffffffff611a2616565b6040518115909202916000818181858888f19350505050158015610c1a573d6000803e3d6000fd5b50601054610c2e908563ffffffff611a0b16565b6010555b6000831115610e6b57601354601454604080517ff3fef3a3000000000000000000000000000000000000000000000000000000008152600160a060020a039283166004820152602481018790529051919092169163f3fef3a39160448083019260209291908290030181600087803b158015610cad57600080fd5b505af1158015610cc1573d6000803e3d6000fd5b505050506040513d6020811015610cd757600080fd5b5050601454600854600160a060020a039091169063a9059cbb903390610d0d90606490610b8f908990830363ffffffff611a2616565b6040518363ffffffff1660e060020a0281526004018083600160a060020a0316600160a060020a0316815260200182815260200192505050602060405180830381600087803b158015610d5f57600080fd5b505af1158015610d73573d6000803e3d6000fd5b505050506040513d6020811015610d8957600080fd5b50511515610d9657600080fd5b601454600454600854600160a060020a039283169263a9059cbb921690610dcb90606490610b8f90899063ffffffff611a2616565b6040518363ffffffff1660e060020a0281526004018083600160a060020a0316600160a060020a0316815260200182815260200192505050602060405180830381600087803b158015610e1d57600080fd5b505af1158015610e31573d6000803e3d6000fd5b505050506040513d6020811015610e4757600080fd5b50511515610e5457600080fd5b601154610e67908463ffffffff611a0b16565b6011555b604080516060810182528581526020808201868152828401868152600d546000908152600c845294909420835181559051600182015592518051929392610eb89260028501920190611d14565b5050600d8054600101905550600754604080518681526020808201879052606092820183815286519383019390935285517ff06d9ec9c3e2e48871183628508cae534a356e2e9354760f079399bbe8d9233793899389938993919291608084019185019080838360005b83811015610f3a578181015183820152602001610f22565b50505050905090810190601f168015610f675780820380516001836020036101000a031916815260200191505b5094505050505060405180910390a250505050565b6012805482908110610f8a57fe5b600091825260209091200154600160a060020a0316905081565b600454600160a060020a031681565b60115481565b336000818152600b6020526040902054151561102857601280546001810182556000919091527fbb8a6a4669ba250d26cd7a459eca9d215f8307e33aebe50379bc5a3617ec344401805473ffffffffffffffffffffffffffffffffffffffff1916600160a060020a0383161790555b600061103a348463ffffffff611a5116565b336000908152600b60209081526040808320815160a08101835285815260018185018181524394830185905260608301879052938a01608083015282548082018085559387529490952081516005909502019384559151838501805496975091959294909260ff1916908360028111156110b057fe5b02179055506040820151816002015560608201518160030155608082015181600401555050506110e281844301611a75565b506110eb611325565b600f546110fe908263ffffffff611a0b16565b600f55600754604080513480825233602083018190527f2dc91c4e4d98180243940dbb23cbc2a91e58fac7e7c1971f5c1abdda5ad18b789391929091600191908101825b60ff168152602001935050505060405180910390a2505050565b60085481565b6003546000905b600081815260208190526040902060020154158015906111a2575060008181526020819052604080822060020154825290206001015483115b156111be57600090815260208190526040902060020154611169565b600354811480156111df575060008181526020819052604090206001015483105b156111ee5760009150506111f1565b90505b919050565b600a5481565b600554600160a060020a031681565b60035460005b6000828152602081905260409020600201541561127a5760008281526020819052604090205484148015611255575060008281526020819052604090206001015483145b1561126157508061127a565b6000918252602082905260409091206002015490611211565b600081111561128c5761128c81611b3f565b50505050565b60095481565b6003546000905b60008181526020819052604090206002015483146111ee5760009081526020819052604090206002015461129f565b600b602052816000526040600020818154811015156112e957fe5b60009182526020909120600590910201805460018201546002830154600384015460049094015492955060ff9091169350919085565b60035481565b600080611330611b99565b600991909155600f55505043600e55565b60075481565b60105481565b611355611d92565b336000908152600b6020526040902080548390811061137057fe5b906000526020600020906005020160a06040519081016040529081600082015481526020016001820160009054906101000a900460ff1660028111156113b257fe5b60028111156113bd57fe5b8152600282015460208201526003820154604082015260049091015460609091015290506000816020015160028111156113f357fe5b14156113fe57600080fd5b60608101511561140d57600080fd5b60018160200151600281111561141f57fe5b14156114b05761142d611325565b608081015133906108fc9061145a9061144c904363ffffffff611cff16565b84519063ffffffff611a2616565b6040518115909202916000818181858888f19350505050158015611482573d6000803e3d6000fd5b508051600f546114979163ffffffff611cff16565b600f55805160808201516114ab919061120b565b611603565b6013546014548251604080517ff3fef3a3000000000000000000000000000000000000000000000000000000008152600160a060020a039384166004820152602481019290925251919092169163f3fef3a39160448083019260209291908290030181600087803b15801561152457600080fd5b505af1158015611538573d6000803e3d6000fd5b505050506040513d602081101561154e57600080fd5b50506014548151604080517fa9059cbb000000000000000000000000000000000000000000000000000000008152336004820152602481019290925251600160a060020a039092169163a9059cbb916044808201926020929091908290030181600087803b1580156115bf57600080fd5b505af11580156115d3573d6000803e3d6000fd5b505050506040513d60208110156115e957600080fd5b50508051600a546115ff9163ffffffff611cff16565b600a555b336000908152600b6020526040902080544391908490811061162157fe5b9060005260206000209060050201600301819055505050565b60006020819052908152604090208054600182015460029092015490919083565b600e5481565b60025481565b60015481565b336000818152600b602052604090205415156116dc57601280546001810182556000919091527fbb8a6a4669ba250d26cd7a459eca9d215f8307e33aebe50379bc5a3617ec344401805473ffffffffffffffffffffffffffffffffffffffff1916600160a060020a0383161790555b601454604080517f23b872dd000000000000000000000000000000000000000000000000000000008152336004820152306024820152604481018590529051600160a060020a03909216916323b872dd916064808201926020929091908290030181600087803b15801561174f57600080fd5b505af1158015611763573d6000803e3d6000fd5b505050506040513d602081101561177957600080fd5b5051151561178657600080fd5b601354601454604080517ff2b9fdb8000000000000000000000000000000000000000000000000000000008152600160a060020a039283166004820152602481018690529051600093929092169163f2b9fdb89160448082019260209290919082900301818787803b1580156117fb57600080fd5b505af115801561180f573d6000803e3d6000fd5b505050506040513d602081101561182557600080fd5b50519050801561183157fe5b600a54611844908463ffffffff611a0b16565b600a55336000908152600b60209081526040808320815160a08101835287815260028185018181524394830194909452606082018690526080820186905282546001808201808655948852959096208251600590970201958655925185850180549396929592949193909260ff199091169184908111156118c157fe5b02179055506040820151816002015560608201518160030155608082015181600401555050506007547f2dc91c4e4d98180243940dbb23cbc2a91e58fac7e7c1971f5c1abdda5ad18b78843360026040518084815260200183600160a060020a0316600160a060020a0316815260200182600281111561114257fe5b600d5481565b6060600154604051908082528060200260200182016040528015611971578160200160208202803883390190505b5060035490915060005b600082815260208190526040902060020154156119da5760008281526020819052604090206001015483518490839081106119b257fe5b602090810290910181019190915260009283528290526040909120600201549060010161197b565b60008281526020819052604090206001015483518490839081106119fa57fe5b602090810290910101525090919050565b600082820183811015611a1d57600080fd5b90505b92915050565b6000821515611a3757506000611a20565b828202828482811515611a4657fe5b0414611a1d57600080fd5b6000808211611a5f57600080fd5b60008284811515611a6c57fe5b04949350505050565b60028054604080516060810182528581526020808201868152600083850181815286825292819052938420925183555160018084019190915590519190940155915490911015611b22576000611aca83611162565b9050801515611af15760038054600084815260208190526040902060020155829055611b1c565b6000818152602081905260408082206002908101805486855292842090910191909155908290528290555b50611b28565b60038190555b600180548101815560028054909101905592915050565b600354811415611b6357600081815260208190526040902060020154600355611b8c565b6000611b6e82611298565b60008381526020819052604080822060029081015493835291200155505b5060018054600019019055565b6000806000611ba743611162565b600354600f54600954600e5493945091929091908415611cce575b838514611c5f57600084815260208190526040902060010154611c0e90611c01908590611bf5908563ffffffff611cff16565b9063ffffffff611a2616565b839063ffffffff611a0b16565b600085815260208190526040902054909250611c3190849063ffffffff611cff16565b600085815260208190526040902060018101546002909101549194509150611c5885611b3f565b9350611bc2565b600084815260208190526040902060010154611c8b90611c01908590611bf5908563ffffffff611cff16565b600085815260208190526040902054909250611cae90849063ffffffff611cff16565b6000858152602081905260409020600101549093509050611cce84611b3f565b611cf283611bf5611ce5438563ffffffff611cff16565b859063ffffffff611a0b16565b9650919450505050509091565b600082821115611d0e57600080fd5b50900390565b828054600181600116156101000203166002900490600052602060002090601f016020900481019282601f10611d5557805160ff1916838001178555611d82565b82800160010185558215611d82579182015b82811115611d82578251825591602001919060010190611d67565b50611d8e929150611dc2565b5090565b6040805160a081019091526000808252602082019081526020016000815260200160008152602001600081525090565b611ddc91905b80821115611d8e5760008155600101611dc8565b9056fea165627a7a72305820441488cc2b4ff2b85bc808ee3940abf8fc93318d0c28b9899054d0a57df88a880029",
  "source": "pragma solidity ^0.5.0;\n\nimport \"./IFirestarterProject.sol\";\nimport \"./SafeMath.sol\";\n\ncontract FirestarterProject is IFirestarterProject {\n\n    using SafeMath for uint256;\n\n    modifier addInvestorIfNeeded(address _user) { \n        if (allFunds[_user].length == 0) {\n            investors.push(_user);\n        }\n        _; \n    }\n    \n    constructor(address _owner, string memory _name, uint _id, uint _commisssion) public {\n        owner = _owner;\n        name = _name;\n        id = _id;\n        manager = msg.sender;\n        HOUSE_COMMISSION = _commisssion;\n\n        ERC20(DAI_ADDRESS).approve(address(compound), uint(-1));\n    }\n\n    function fundProjectDirectly() public payable addInvestorIfNeeded(msg.sender) {\n        totalFunds = totalFunds.add(msg.value);\n\n        allFunds[msg.sender].push(Fund({\n            amount: msg.value,\n            fundType: FundType.DirectType,\n            canceled: 0,\n            end: 0,\n            start: block.number\n        }));\n\n        emit ProjectFunded(id, msg.value, msg.sender, FundType.DirectType);\n    }\n\n    function fundProjectByVesting(uint _numOfBlocks) public payable addInvestorIfNeeded(msg.sender) {\n        uint amountPerBlock = msg.value.div(_numOfBlocks);\n\n        allFunds[msg.sender].push(Fund({\n            amount: amountPerBlock,\n            fundType: FundType.VestingType,\n            canceled: 0,\n            end: block.number + _numOfBlocks,\n            start: block.number\n        }));\n\n        addVestingRecord(amountPerBlock, block.number + _numOfBlocks);\n        updateBalance();\n\n        vestRate = vestRate.add(amountPerBlock);\n\n        emit ProjectFunded(id, msg.value, msg.sender, FundType.VestingType);\n    }\n\n    function fundProjectByCompound(uint _daiAmount) public addInvestorIfNeeded(msg.sender) {\n        require(ERC20(DAI_ADDRESS).transferFrom(msg.sender, address(this), _daiAmount));\n\n        uint errCode = compound.supply(DAI_ADDRESS, _daiAmount);\n\n        assert(errCode == 0);\n\n        currentDaiFunds = currentDaiFunds.add(_daiAmount);\n\n        allFunds[msg.sender].push(Fund({\n            amount: _daiAmount,\n            fundType: FundType.CompoundType,\n            canceled: 0,\n            end: 0,\n            start: block.number\n        }));\n\n        emit ProjectFunded(id, _daiAmount, msg.sender, FundType.CompoundType);\n    }\n    \n    function stopFunding(uint _fundId) public {\n        Fund memory fund = allFunds[msg.sender][_fundId];\n\n        require(fund.fundType != FundType.DirectType);\n        require(fund.canceled == 0);\n\n        if (fund.fundType == FundType.VestingType) {\n            updateBalance();\n        \n            msg.sender.transfer(fund.amount.mul(fund.end.sub(block.number)));\n        \n            vestRate = vestRate.sub(fund.amount);\n            removeVestingRecordWithRateAndBlock(fund.amount, fund.end);\n        } else {\n            compound.withdraw(DAI_ADDRESS, fund.amount);\n            ERC20(DAI_ADDRESS).transfer(msg.sender, fund.amount);\n            currentDaiFunds = currentDaiFunds.sub(fund.amount);\n        }\n\n        allFunds[msg.sender][_fundId].canceled = block.number;\n    }\n\n    function withdraw(uint _ethBalance, uint _daiBalance, string memory _message) public {\n        uint compoundBalance = compound.getSupplyBalance(address(this), DAI_ADDRESS);\n\n        // update before we try to get it\n        updateBalance();\n\n        // only owner can withdraw (owner can be some DAO in future)\n        require(owner == msg.sender);\n        // _ethBalance to be withdrawn must be less or equal to all funds ever sent to this contract - ether that is withdrawn in past\n        require(_ethBalance <= (totalFunds - ethWithdrawn));\n        // _daiBalance must be equal or less to fullCompoundBalance - all current dai funds\n        require(_daiBalance <= (compoundBalance - currentDaiFunds));\n\n        if (_ethBalance > 0) {\n            msg.sender.transfer(_ethBalance.mul(100-HOUSE_COMMISSION).div(100));\n            manager.transfer(_ethBalance.mul(HOUSE_COMMISSION).div(100));\n            ethWithdrawn = ethWithdrawn.add(_ethBalance);\n        }\n\n        if (_daiBalance > 0) {\n            compound.withdraw(DAI_ADDRESS, _daiBalance);\n            require(ERC20(DAI_ADDRESS).transfer(msg.sender, _daiBalance.mul(100-HOUSE_COMMISSION).div(100)));\n            require(ERC20(DAI_ADDRESS).transfer(manager, _daiBalance.mul(HOUSE_COMMISSION).div(100)));\n            daiWithdrawn = daiWithdrawn.add(_daiBalance);\n        }\n\n        allWithdraws[totalWithdraws] = Withdraw({\n                ethAmount: _ethBalance,\n                daiAmount: _daiBalance,\n                message: _message\n            });\n        \n        totalWithdraws++;\n\n        emit ProjectWithdraw(id, _ethBalance, _daiBalance, _message);\n    }\n\n    function updateBalance() public {\n        uint balance;\n        uint rate;\n        (balance, rate) = getNewBalanceAndRateAndUpdateVestingRecords();\n\n        totalFunds = balance;\n        vestRate = rate;\n        lastUpdate = block.number;\n    }\n\n    function getNewBalanceAndRateAndUpdateVestingRecords() internal returns(uint, uint) {\n        uint previous = findPrevious(block.number);\n\n        uint curr = firstVestingRecord;\n        uint rate = vestRate;\n        uint balance = totalFunds;\n        uint lastUpdate = lastUpdate;\n\n        if (previous != 0) {\n            while (curr != previous) {\n                balance = balance.add(allVestings[curr].block.sub(lastUpdate).mul(rate));\n                rate = rate.sub(allVestings[curr].rate);\n                lastUpdate = allVestings[curr].block;\n\n                uint next = allVestings[curr].next;\n                removeVestingRecord(curr);\n                curr = next;\n            }\n            \n            balance = balance.add(allVestings[curr].block.sub(lastUpdate).mul(rate));\n            rate = rate.sub(allVestings[curr].rate);\n            lastUpdate = allVestings[curr].block;\n\n            removeVestingRecord(curr);\n        }\n\n        balance = balance.add(block.number.sub(lastUpdate)).mul(rate);\n\n        return (balance, rate);\n    }\n}\n",
  "sourcePath": "/Users/nikolaklipa/Hakaton/Firestarter/contracts/v2/FirestarterProject.sol",
  "compiler": {
    "name": "solc",
    "version": "0.5.4+commit.9549d8ff.Emscripten.clang"
  },
  "schemaVersion": "3.0.2",
  "updatedAt": "2019-03-27T20:18:54.411Z",
  "devdoc": {
    "methods": {}
  },
  "userdoc": {
    "methods": {}
  }
}