{
  "contractName": "Firestarter",
  "abi": [
    {
      "constant": true,
      "inputs": [
        {
          "name": "",
          "type": "uint256"
        }
      ],
      "name": "projects",
      "outputs": [
        {
          "name": "owner",
          "type": "address"
        },
        {
          "name": "name",
          "type": "string"
        },
        {
          "name": "funds",
          "type": "uint256"
        },
        {
          "name": "daiFunds",
          "type": "uint256"
        },
        {
          "name": "totalWithdraws",
          "type": "uint256"
        },
        {
          "name": "lastUpdate",
          "type": "uint256"
        },
        {
          "name": "vestRate",
          "type": "uint256"
        },
        {
          "name": "ethWithdrawn",
          "type": "uint256"
        },
        {
          "name": "daiWithdrawn",
          "type": "uint256"
        }
      ],
      "payable": false,
      "stateMutability": "view",
      "type": "function",
      "signature": "0x107046bd"
    },
    {
      "constant": true,
      "inputs": [],
      "name": "DAI_ADDRESS",
      "outputs": [
        {
          "name": "",
          "type": "address"
        }
      ],
      "payable": false,
      "stateMutability": "view",
      "type": "function",
      "signature": "0x2a4c0a1a"
    },
    {
      "constant": true,
      "inputs": [
        {
          "name": "_block",
          "type": "uint256"
        }
      ],
      "name": "findPrevious",
      "outputs": [
        {
          "name": "",
          "type": "uint256"
        }
      ],
      "payable": false,
      "stateMutability": "view",
      "type": "function",
      "signature": "0x6f371095"
    },
    {
      "constant": true,
      "inputs": [
        {
          "name": "_id",
          "type": "uint256"
        }
      ],
      "name": "findPreviousWithId",
      "outputs": [
        {
          "name": "",
          "type": "uint256"
        }
      ],
      "payable": false,
      "stateMutability": "view",
      "type": "function",
      "signature": "0x9c328a48"
    },
    {
      "constant": true,
      "inputs": [],
      "name": "firstVestingRecord",
      "outputs": [
        {
          "name": "",
          "type": "uint256"
        }
      ],
      "payable": false,
      "stateMutability": "view",
      "type": "function",
      "signature": "0xa8184b64"
    },
    {
      "constant": true,
      "inputs": [
        {
          "name": "",
          "type": "uint256"
        }
      ],
      "name": "allVestings",
      "outputs": [
        {
          "name": "rate",
          "type": "uint256"
        },
        {
          "name": "block",
          "type": "uint256"
        },
        {
          "name": "next",
          "type": "uint256"
        }
      ],
      "payable": false,
      "stateMutability": "view",
      "type": "function",
      "signature": "0xbf5a1383"
    },
    {
      "constant": true,
      "inputs": [],
      "name": "maxId",
      "outputs": [
        {
          "name": "",
          "type": "uint256"
        }
      ],
      "payable": false,
      "stateMutability": "view",
      "type": "function",
      "signature": "0xc5ea3c65"
    },
    {
      "constant": true,
      "inputs": [],
      "name": "totalVestings",
      "outputs": [
        {
          "name": "",
          "type": "uint256"
        }
      ],
      "payable": false,
      "stateMutability": "view",
      "type": "function",
      "signature": "0xd7ba691e"
    },
    {
      "constant": true,
      "inputs": [],
      "name": "getArr",
      "outputs": [
        {
          "name": "arr",
          "type": "uint256[]"
        }
      ],
      "payable": false,
      "stateMutability": "view",
      "type": "function",
      "signature": "0xfb8cbced"
    },
    {
      "inputs": [],
      "payable": false,
      "stateMutability": "nonpayable",
      "type": "constructor",
      "signature": "constructor"
    },
    {
      "anonymous": false,
      "inputs": [
        {
          "indexed": true,
          "name": "id",
          "type": "uint256"
        },
        {
          "indexed": false,
          "name": "name",
          "type": "string"
        },
        {
          "indexed": true,
          "name": "owner",
          "type": "address"
        }
      ],
      "name": "ProjectCreated",
      "type": "event",
      "signature": "0xc0c54fed07481d0998e1446b2c13759606bf4f26b78306307413ac4c4309aa82"
    },
    {
      "anonymous": false,
      "inputs": [
        {
          "indexed": true,
          "name": "id",
          "type": "uint256"
        },
        {
          "indexed": false,
          "name": "amount",
          "type": "uint256"
        },
        {
          "indexed": false,
          "name": "from",
          "type": "address"
        },
        {
          "indexed": false,
          "name": "fundType",
          "type": "uint8"
        }
      ],
      "name": "ProjectFunded",
      "type": "event",
      "signature": "0x2dc91c4e4d98180243940dbb23cbc2a91e58fac7e7c1971f5c1abdda5ad18b78"
    },
    {
      "anonymous": false,
      "inputs": [
        {
          "indexed": true,
          "name": "id",
          "type": "uint256"
        },
        {
          "indexed": false,
          "name": "ethAmount",
          "type": "uint256"
        },
        {
          "indexed": false,
          "name": "daiAmount",
          "type": "uint256"
        },
        {
          "indexed": false,
          "name": "message",
          "type": "string"
        }
      ],
      "name": "ProjectWithdraw",
      "type": "event",
      "signature": "0xf06d9ec9c3e2e48871183628508cae534a356e2e9354760f079399bbe8d92337"
    },
    {
      "constant": false,
      "inputs": [
        {
          "name": "_name",
          "type": "string"
        }
      ],
      "name": "addProject",
      "outputs": [],
      "payable": false,
      "stateMutability": "nonpayable",
      "type": "function",
      "signature": "0x0ed047d4"
    },
    {
      "constant": false,
      "inputs": [
        {
          "name": "_id",
          "type": "uint256"
        }
      ],
      "name": "fundProjectDirectly",
      "outputs": [],
      "payable": true,
      "stateMutability": "payable",
      "type": "function",
      "signature": "0x7f4054de"
    },
    {
      "constant": false,
      "inputs": [
        {
          "name": "_id",
          "type": "uint256"
        },
        {
          "name": "_numOfBlocks",
          "type": "uint256"
        }
      ],
      "name": "fundProjectByVesting",
      "outputs": [],
      "payable": true,
      "stateMutability": "payable",
      "type": "function",
      "signature": "0x76ca670d"
    },
    {
      "constant": false,
      "inputs": [
        {
          "name": "_id",
          "type": "uint256"
        },
        {
          "name": "_daiAmount",
          "type": "uint256"
        }
      ],
      "name": "fundProjectByCompound",
      "outputs": [],
      "payable": false,
      "stateMutability": "nonpayable",
      "type": "function",
      "signature": "0x9f2c411b"
    },
    {
      "constant": false,
      "inputs": [
        {
          "name": "_projectId",
          "type": "uint256"
        },
        {
          "name": "_ethBalance",
          "type": "uint256"
        },
        {
          "name": "_daiBalance",
          "type": "uint256"
        },
        {
          "name": "_message",
          "type": "string"
        }
      ],
      "name": "withdraw",
      "outputs": [],
      "payable": false,
      "stateMutability": "nonpayable",
      "type": "function",
      "signature": "0x90fbc263"
    },
    {
      "constant": false,
      "inputs": [
        {
          "name": "_id",
          "type": "uint256"
        }
      ],
      "name": "updateBalance",
      "outputs": [],
      "payable": false,
      "stateMutability": "nonpayable",
      "type": "function",
      "signature": "0xba7b37d4"
    },
    {
      "constant": true,
      "inputs": [
        {
          "name": "_id",
          "type": "uint256"
        }
      ],
      "name": "getNewBalanceAndRateView",
      "outputs": [
        {
          "name": "",
          "type": "uint256"
        },
        {
          "name": "",
          "type": "uint256"
        }
      ],
      "payable": false,
      "stateMutability": "view",
      "type": "function",
      "signature": "0x46f07ee6"
    },
    {
      "constant": true,
      "inputs": [],
      "name": "totalProjects",
      "outputs": [
        {
          "name": "",
          "type": "uint256"
        }
      ],
      "payable": false,
      "stateMutability": "view",
      "type": "function",
      "signature": "0x9c361e4e"
    },
    {
      "constant": true,
      "inputs": [
        {
          "name": "_projectId",
          "type": "uint256"
        },
        {
          "name": "_from",
          "type": "address"
        }
      ],
      "name": "totalFunds",
      "outputs": [
        {
          "name": "",
          "type": "uint256"
        }
      ],
      "payable": false,
      "stateMutability": "view",
      "type": "function",
      "signature": "0x43f4c44f"
    },
    {
      "constant": true,
      "inputs": [
        {
          "name": "_projectId",
          "type": "uint256"
        },
        {
          "name": "_from",
          "type": "address"
        },
        {
          "name": "_fundId",
          "type": "uint256"
        }
      ],
      "name": "getFund",
      "outputs": [
        {
          "name": "amount",
          "type": "uint256"
        },
        {
          "name": "fundType",
          "type": "uint8"
        }
      ],
      "payable": false,
      "stateMutability": "view",
      "type": "function",
      "signature": "0xc588724b"
    },
    {
      "constant": false,
      "inputs": [],
      "name": "skip",
      "outputs": [],
      "payable": false,
      "stateMutability": "nonpayable",
      "type": "function",
      "signature": "0x1d2aa5b3"
    }
  ],
  "bytecode": "0x6080604052600160025560058054600160a060020a03199081167361bbd7bd5ee2a202d7e62519750170a52a8dfd451790915560068054909116734e17c87c52d0e9a0cad3fbc53b77d9514f00380717905534801561005d57600080fd5b50600654600554604080517f095ea7b3000000000000000000000000000000000000000000000000000000008152600160a060020a03928316600482015260001960248201529051919092169163095ea7b39160448083019260209291908290030181600087803b1580156100d157600080fd5b505af11580156100e5573d6000803e3d6000fd5b505050506040513d60208110156100fb57600080fd5b5050611ccc8061010c6000396000f3fe6080604052600436106101115763ffffffff7c01000000000000000000000000000000000000000000000000000000006000350416630ed047d48114610116578063107046bd146101cb5780631d2aa5b3146102b75780632a4c0a1a146102cc57806343f4c44f146102fd57806346f07ee6146103485780636f3710951461038b57806376ca670d146103b55780637f4054de146103d857806390fbc263146103f55780639c328a48146104bb5780639c361e4e146104e55780639f2c411b146104fa578063a8184b641461052a578063ba7b37d41461053f578063bf5a138314610569578063c588724b146105b1578063c5ea3c651461061b578063d7ba691e14610630578063fb8cbced14610645575b600080fd5b34801561012257600080fd5b506101c96004803603602081101561013957600080fd5b81019060208101813564010000000081111561015457600080fd5b82018360208201111561016657600080fd5b8035906020019184600183028401116401000000008311171561018857600080fd5b91908080601f0160208091040260200160405190810160405280939291908181526020018383808284376000920191909152509295506106aa945050505050565b005b3480156101d757600080fd5b506101f5600480360360208110156101ee57600080fd5b5035610869565b604051808a600160a060020a0316600160a060020a031681526020018060200189815260200188815260200187815260200186815260200185815260200184815260200183815260200182810382528a818151815260200191508051906020019080838360005b8381101561027457818101518382015260200161025c565b50505050905090810190601f1680156102a15780820380516001836020036101000a031916815260200191505b509a505050505050505050505060405180910390f35b3480156102c357600080fd5b506101c9610958565b3480156102d857600080fd5b506102e161095a565b60408051600160a060020a039092168252519081900360200190f35b34801561030957600080fd5b506103366004803603604081101561032057600080fd5b5080359060200135600160a060020a0316610969565b60408051918252519081900360200190f35b34801561035457600080fd5b506103726004803603602081101561036b57600080fd5b50356109ab565b6040805192835260208301919091528051918290030190f35b34801561039757600080fd5b50610336600480360360208110156103ae57600080fd5b5035610aa8565b6101c9600480360360408110156103cb57600080fd5b5080359060200135610b3c565b6101c9600480360360208110156103ee57600080fd5b5035610c93565b34801561040157600080fd5b506101c96004803603608081101561041857600080fd5b8135916020810135916040820135919081019060808101606082013564010000000081111561044657600080fd5b82018360208201111561045857600080fd5b8035906020019184600183028401116401000000008311171561047a57600080fd5b91908080601f016020809104026020016040519081016040528093929190818152602001838380828437600092019190915250929550610dbc945050505050565b3480156104c757600080fd5b50610336600480360360208110156104de57600080fd5b5035611385565b3480156104f157600080fd5b506103366113bb565b34801561050657600080fd5b506101c96004803603604081101561051d57600080fd5b50803590602001356113c2565b34801561053657600080fd5b5061033661160b565b34801561054b57600080fd5b506101c96004803603602081101561056257600080fd5b5035611611565b34801561057557600080fd5b506105936004803603602081101561058c57600080fd5b5035611697565b60408051938452602084019290925282820152519081900360600190f35b3480156105bd57600080fd5b506105f0600480360360608110156105d457600080fd5b50803590600160a060020a0360208201351690604001356116b8565b6040518083815260200182600281111561060657fe5b60ff1681526020019250505060405180910390f35b34801561062757600080fd5b50610336611769565b34801561063c57600080fd5b5061033661176f565b34801561065157600080fd5b5061065a611775565b60408051602080825283518183015283519192839290830191858101910280838360005b8381101561069657818101518382015260200161067e565b505050509050019250505060405180910390f35b6106b2611af5565b3381526020808201838152600480546001810180835560009290925284517f8a35acfbc15ff81a39ae7d344fd709f28e8600b4aa8c65c6b64bfe7fe36bd19b600c909202918201805473ffffffffffffffffffffffffffffffffffffffff1916600160a060020a0390921691909117815592518051929486949361075c937f8a35acfbc15ff81a39ae7d344fd709f28e8600b4aa8c65c6b64bfe7fe36bd19c019290910190611b52565b5060408201516002820155606082015160038201556080820151600682015560a08201518051610796916007840191602090910190611bd0565b5060c0820151600882015560e08201516009820155610100820151600a82015561012090910151600b90910155506004546040805160208082528551818301528551339460001901937fc0c54fed07481d0998e1446b2c13759606bf4f26b78306307413ac4c4309aa829388939092839283019185019080838360005b8381101561082b578181015183820152602001610813565b50505050905090810190601f1680156108585780820380516001836020036101000a031916815260200191505b509250505060405180910390a35050565b600480548290811061087757fe5b6000918252602091829020600c9091020180546001808301805460408051601f6002600019968516156101000296909601909316949094049182018790048702840187019052808352600160a060020a0390931695509293909291908301828280156109245780601f106108f957610100808354040283529160200191610924565b820191906000526020600020905b81548152906001019060200180831161090757829003601f168201915b50505050509080600201549080600301549080600601549080600801549080600901549080600a01549080600b0154905089565b565b600654600160a060020a031681565b600060048381548110151561097a57fe5b60009182526020808320600160a060020a03861684526004600c909302019190910190526040902054905092915050565b60008060006109b943610aa8565b90506000600354905060006004868154811015156109d357fe5b90600052602060002090600c020160090154905060006004878154811015156109f857fe5b90600052602060002090600c02016002015490506000600488815481101515610a1d57fe5b90600052602060002090600c0201600801549050846000141515610a98575b838514610a74576000938452602084905260409093206001810154815460029092015494918403939181039091029190910190610a3c565b60008481526020819052604090206001810154905484039391810390910291909101905b4303820201945092505050915091565b6003546000905b60008181526020819052604090206002015415801590610ae8575060008181526020819052604080822060020154825290206001015483115b15610b0457600090815260208190526040902060020154610aaf565b60035481148015610b25575060008181526020819052604090206001015483105b15610b34576000915050610b37565b90505b919050565b610b46338361183d565b6004805483908110610b5457fe5b60009182526020808320338452600c9290920290910160040181526040808320815180830190925234825260018284018181528254808301808555938752949095208351600295860290910190815594518582018054939694959193909260ff19909116918490811115610bc457fe5b0217905550505050610be38134811515610bda57fe5b048243016118d7565b50610bed82611611565b8034811515610bf857fe5b04600483815481101515610c0857fe5b90600052602060002090600c020160090160008282540192505081905550817f2dc91c4e4d98180243940dbb23cbc2a91e58fac7e7c1971f5c1abdda5ad18b78343360006040518084815260200183600160a060020a0316600160a060020a03168152602001826002811115610c7a57fe5b60ff168152602001935050505060405180910390a25050565b34600482815481101515610ca357fe5b600091825260209091206002600c909202010180549091019055610cc7338261183d565b6004805482908110610cd557fe5b600091825260208083203384526004600c9093020191909101815260408083208151808301909252348252929091820152815460018181018085556000948552602094859020845160029485029091019081559484015185830180549296949193909260ff1916918490811115610d4857fe5b0217905550505050807f2dc91c4e4d98180243940dbb23cbc2a91e58fac7e7c1971f5c1abdda5ad18b78343360006040518084815260200183600160a060020a0316600160a060020a03168152602001826002811115610da457fe5b60ff168152602001935050505060405180910390a250565b600554600654604080517fba377731000000000000000000000000000000000000000000000000000000008152306004820152600160a060020a0392831660248201529051600093929092169163ba37773191604480820192602092909190829003018186803b158015610e2f57600080fd5b505afa158015610e43573d6000803e3d6000fd5b505050506040513d6020811015610e5957600080fd5b50519050610e6685611611565b610e6e611af5565b6004805487908110610e7c57fe5b60009182526020918290206040805161014081018252600c9093029091018054600160a060020a03168352600180820180548451601f60026000199584161561010002959095019092169390930490810187900487028301870190945283825293949193858301939192909190830182828015610f3a5780601f10610f0f57610100808354040283529160200191610f3a565b820191906000526020600020905b815481529060010190602001808311610f1d57829003601f168201915b5050505050815260200160028201548152602001600382015481526020016006820154815260200160078201805480602002602001604051908101604052809291908181526020018280548015610fba57602002820191906000526020600020905b8154600160a060020a03168152600190910190602001808311610f9c575b50505091835250506008820154602082015260098201546040820152600a8201546060820152600b909101546080909101528051909150600160a060020a0316331461100557600080fd5b61010081015160408201510385111561101d57600080fd5b610120810151606082015183030384111561103757600080fd5b600085111561109957604051339086156108fc029087906000818181858888f1935050505015801561106d573d6000803e3d6000fd5b508460048781548110151561107e57fe5b60009182526020909120600a600c9092020101805490910190555b600084111561120557600554600654604080517ff3fef3a3000000000000000000000000000000000000000000000000000000008152600160a060020a039283166004820152602481018890529051919092169163f3fef3a39160448083019260209291908290030181600087803b15801561111457600080fd5b505af1158015611128573d6000803e3d6000fd5b505050506040513d602081101561113e57600080fd5b5050600654604080517fa9059cbb000000000000000000000000000000000000000000000000000000008152336004820152602481018790529051600160a060020a039092169163a9059cbb916044808201926020929091908290030181600087803b1580156111ad57600080fd5b505af11580156111c1573d6000803e3d6000fd5b505050506040513d60208110156111d757600080fd5b505060048054859190889081106111ea57fe5b60009182526020909120600b600c9092020101805490910190555b6040805160608101825286815260208101869052908101849052600480548890811061122d57fe5b90600052602060002090600c0201600501600060048981548110151561124f57fe5b90600052602060002090600c02016006015481526020019081526020016000206000820151816000015560208201518160010155604082015181600201908051906020019061129f929190611b52565b509050506004868154811015156112b257fe5b90600052602060002090600c020160060160008154809291906001019190505550857ff06d9ec9c3e2e48871183628508cae534a356e2e9354760f079399bbe8d923378686866040518084815260200183815260200180602001828103825283818151815260200191508051906020019080838360005b83811015611341578181015183820152602001611329565b50505050905090810190601f16801561136e5780820380516001836020036101000a031916815260200191505b5094505050505060405180910390a2505050505050565b6003546000905b6000818152602081905260409020600201548314610b345760009081526020819052604090206002015461138c565b6004545b90565b6113cc338361183d565b600654604080517f23b872dd000000000000000000000000000000000000000000000000000000008152336004820152306024820152604481018490529051600160a060020a03909216916323b872dd916064808201926020929091908290030181600087803b15801561143f57600080fd5b505af1158015611453573d6000803e3d6000fd5b505050506040513d602081101561146957600080fd5b5050600554600654604080517ff2b9fdb8000000000000000000000000000000000000000000000000000000008152600160a060020a039283166004820152602481018590529051600093929092169163f2b9fdb89160448082019260209290919082900301818787803b1580156114e057600080fd5b505af11580156114f4573d6000803e3d6000fd5b505050506040513d602081101561150a57600080fd5b50519050801561151657fe5b8160048481548110151561152657fe5b600091825260209091206003600c909202010180549091019055600480548490811061154e57fe5b60009182526020808320338452600c9290920290910160040181526040808320815180830190925285825260028284018181528254600180820180865594885295909620845196830201958655518585018054939694959193909260ff19909116919084908111156115bc57fe5b0217905550506040805185815233602082015260028183015290518693507f2dc91c4e4d98180243940dbb23cbc2a91e58fac7e7c1971f5c1abdda5ad18b7892509081900360600190a2505050565b60035481565b60008061161d836119a1565b6004805492945090925083918590811061163357fe5b90600052602060002090600c0201600201819055508060048481548110151561165857fe5b90600052602060002090600c0201600901819055504360048481548110151561167d57fe5b90600052602060002090600c020160080181905550505050565b60006020819052908152604090208054600182015460029092015490919083565b6000806116c3611c3e565b60048054879081106116d157fe5b60009182526020808320600160a060020a03891684526004600c909302019190910190526040902080548590811061170557fe5b9060005260206000209060020201604080519081016040529081600082015481526020016001820160009054906101000a900460ff16600281111561174657fe5b600281111561175157fe5b90525080516020909101519097909650945050505050565b60025481565b60015481565b60606001546040519080825280602002602001820160405280156117a3578160200160208202803883390190505b5060035490915060005b6000828152602081905260409020600201541561180c5760008281526020819052604090206001015483518490839081106117e457fe5b60209081029091018101919091526000928352829052604090912060020154906001016117ad565b600082815260208190526040902060010154835184908390811061182c57fe5b602090810290910101525090919050565b600480548290811061184b57fe5b60009182526020808320600160a060020a03861684526004600c90930201919091019052604090205415156118d357600480548290811061188857fe5b60009182526020808320600c929092029091016007018054600181018255908352912001805473ffffffffffffffffffffffffffffffffffffffff1916600160a060020a0384161790555b5050565b6002805460408051606081018252858152602080820186815260008385018181528682529281905293842092518355516001808401919091559051919094015591549091101561198457600061192c83610aa8565b9050801515611953576003805460008481526020819052604090206002015582905561197e565b6000818152602081905260408082206002908101805486855292842090910191909155908290528290555b5061198a565b60038190555b600180548101815560028054909101905592915050565b60008060006119af43610aa8565b90506000600354905060006004868154811015156119c957fe5b90600052602060002090600c020160090154905060006004878154811015156119ee57fe5b90600052602060002090600c02016002015490506000600488815481101515611a1357fe5b90600052602060002090600c0201600801549050846000141515610a98575b838514611a7357600084815260208190526040902060018101548154600290920154918503949281039092029290920191611a6c85611a9b565b9350611a32565b6000848152602081905260409020600181015490548403939181039091029190910190610a98845b600354811415611abf57600081815260208190526040902060020154600355611ae8565b6000611aca82611385565b60008381526020819052604080822060029081015493835291200155505b5060018054600019019055565b610140604051908101604052806000600160a060020a031681526020016060815260200160008152602001600081526020016000815260200160608152602001600081526020016000815260200160008152602001600081525090565b828054600181600116156101000203166002900490600052602060002090601f016020900481019282601f10611b9357805160ff1916838001178555611bc0565b82800160010185558215611bc0579182015b82811115611bc0578251825591602001919060010190611ba5565b50611bcc929150611c55565b5090565b828054828255906000526020600020908101928215611c32579160200282015b82811115611c32578251825473ffffffffffffffffffffffffffffffffffffffff1916600160a060020a03909116178255602090920191600190910190611bf0565b50611bcc929150611c6f565b604080518082019091526000808252602082015290565b6113bf91905b80821115611bcc5760008155600101611c5b565b6113bf91905b80821115611bcc57805473ffffffffffffffffffffffffffffffffffffffff19168155600101611c7556fea165627a7a72305820c630037c41ed62a43512f12a0dde895c89b14126999f5d5869e89341662adc970029",
  "source": "pragma solidity ^0.5.0;\n\nimport \"./Vesting.sol\";\nimport \"./CompoundInterface.sol\";\nimport \"./ERC20.sol\";\n\ncontract Firestarter is Vesting {\n\n\tenum FundType { DirectType, VestingType, CompoundType }\n\n\tstruct Withdraw {\n\t\tuint ethAmount;\n\t\tuint daiAmount;\n\t\tstring message;\n\t}\n\n\tstruct Fund {\n\t\tuint amount;\n\t\tFundType fundType;\n\t}\n\n\tstruct Project {\n\t\taddress owner;\n\t\tstring name;\n\t\tuint funds;\n\t\tuint daiFunds;\n\t\tmapping(address => Fund[]) allFunds;\n\t\t// solidity doesn't support array of structs in struct, so implementing it on my own\n\t\tmapping(uint => Withdraw) allWithdraws;\n\t\tuint totalWithdraws;\n\t\taddress[] investors;\n\t\tuint lastUpdate;\n\t\tuint vestRate;\n\t\tuint ethWithdrawn;\n\t\tuint daiWithdrawn;\n\t}\n\n\tProject[] public projects;\n\n\t// Rinkeby test deployment\n\tCompoundInterface compound = CompoundInterface(0x61bbd7Bd5EE2A202d7e62519750170A52A8DFD45);\n\taddress public DAI_ADDRESS = 0x4e17c87c52d0E9a0cAd3Fbc53b77d9514F003807;\n\n\tevent ProjectCreated(uint indexed id, string name, address indexed owner);\n\tevent ProjectFunded(uint indexed id, uint amount, address from, FundType fundType);\n\tevent ProjectWithdraw(uint indexed id, uint ethAmount, uint daiAmount, string message);\n\n\tconstructor() public {\n\t\tERC20(DAI_ADDRESS).approve(address(compound), uint(-1));\n\t}\n\n\tfunction addProject(string memory _name) public {\n\t\t\n\t\tProject memory project;\n\t\tproject.owner = msg.sender;\n\t\tproject.name = _name;\n\n\t\tprojects.push(project);\n\n\t\temit ProjectCreated(projects.length-1, _name, msg.sender);\n\t}\n\t\n\tfunction fundProjectDirectly(uint _id) public payable {\n\t\t\n\t\tprojects[_id].funds += msg.value;\n\n\t\taddInvestorIfNeeded(msg.sender, _id);\n\n\t\tprojects[_id].allFunds[msg.sender].push(Fund({\n\t\t\t\tamount: msg.value,\n\t\t\t\tfundType: FundType.DirectType\n\t\t\t}));\n\n\t\temit ProjectFunded(_id, msg.value, msg.sender, FundType.DirectType);\n\t}\n\n\tfunction fundProjectByVesting(uint _id, uint _numOfBlocks) public payable {\n\t\taddInvestorIfNeeded(msg.sender, _id);\n\n\t\tprojects[_id].allFunds[msg.sender].push(Fund({\n\t\t\t\tamount: msg.value,\n\t\t\t\tfundType: FundType.VestingType\n\t\t\t}));\n\n\t\taddVestingRecord(msg.value / _numOfBlocks, block.number + _numOfBlocks);\n\t\tupdateBalance(_id);\n\t\t\n\t\tprojects[_id].vestRate += msg.value / _numOfBlocks;\n\n\t\temit ProjectFunded(_id, msg.value, msg.sender, FundType.DirectType);\n\t}\n\n\t///@dev Before calling must approve contract to transferFrom Dai\n\tfunction fundProjectByCompound(uint _id, uint _daiAmount) public {\n\t\taddInvestorIfNeeded(msg.sender, _id);\n\n\t\tERC20(DAI_ADDRESS).transferFrom(msg.sender, address(this), _daiAmount);\n\n\t\tuint errCode = compound.supply(DAI_ADDRESS, _daiAmount);\n\n\t\tassert(errCode == 0);\n\n\t\tprojects[_id].daiFunds += _daiAmount;\n\n\t\tprojects[_id].allFunds[msg.sender].push(Fund({\n\t\t\tamount: _daiAmount,\n\t\t\tfundType: FundType.CompoundType\n\t\t}));\n        \n        emit ProjectFunded(_id, _daiAmount, msg.sender, FundType.CompoundType);\n\t}\n\n\tfunction withdraw(uint _projectId, uint _ethBalance, uint _daiBalance, string memory _message) public {\n\t\tuint currentFullBalance = compound.getSupplyBalance(address(this), DAI_ADDRESS);\n\n\t\t// update before we try to get it\n\t\tupdateBalance(_projectId);\n\t\tProject memory project = projects[_projectId];\n\n\t\trequire(project.owner == msg.sender);\n\t\trequire(_ethBalance <= (project.funds - project.ethWithdrawn));\n\t\trequire(_daiBalance <= (currentFullBalance - project.daiFunds - project.daiWithdrawn));\n\n\t\tif (_ethBalance > 0) {\n\t\t\tmsg.sender.transfer(_ethBalance);\n\t\t\tprojects[_projectId].ethWithdrawn += _ethBalance;\n\t\t}\n\n\t\tif (_daiBalance > 0) {\n\t\t\tcompound.withdraw(DAI_ADDRESS, _daiBalance);\n\t\t\tERC20(DAI_ADDRESS).transfer(msg.sender, _daiBalance);\n\t\t\tprojects[_projectId].daiWithdrawn += _daiBalance;\n\t\t}\n\n\t\tprojects[_projectId].allWithdraws[projects[_projectId].totalWithdraws] = Withdraw({\n\t\t\t\tethAmount: _ethBalance,\n\t\t\t\tdaiAmount: _daiBalance,\n\t\t\t\tmessage: _message\n\t\t\t});\n\t\tprojects[_projectId].totalWithdraws++;\n\n\t\temit ProjectWithdraw(_projectId, _ethBalance, _daiBalance, _message);\n\t}\n\t\n\n\tfunction updateBalance(uint _id) public {\n\t\tuint balance;\n\t\tuint rate;\n\t\t(balance, rate) = getNewBalanceAndRate(_id);\n\n\t\tprojects[_id].funds = balance;\n\t\tprojects[_id].vestRate = rate;\n\t\tprojects[_id].lastUpdate = block.number;\n\t}\n\n\tfunction getNewBalanceAndRate(uint _id) internal returns(uint, uint) {\n\t\tuint previous = findPrevious(block.number);\n\n\t\tuint curr = firstVestingRecord;\n\t\tuint rate = projects[_id].vestRate;\n\t\tuint balance = projects[_id].funds;\n\t\tuint lastUpdate = projects[_id].lastUpdate;\n\n\t\tif (previous != 0) {\n\t\t\twhile (curr != previous) {\n\t\t\t\tbalance += (allVestings[curr].block - lastUpdate) * rate;\n\t\t\t\trate -= allVestings[curr].rate;\n\t\t\t\tlastUpdate = allVestings[curr].block;\n\n\t\t\t\tuint next = allVestings[curr].next;\n\t\t\t\tremoveVestingRecord(curr);\n\t\t\t\tcurr = next;\n\t\t\t}\n\t\t\t\n\t\t\tbalance += (allVestings[curr].block - lastUpdate) * rate;\n\t\t\trate -= allVestings[curr].rate;\n\t\t\tlastUpdate = allVestings[curr].block;\n\n\t\t\tremoveVestingRecord(curr);\n\t\t} \n\n\t\tbalance += (block.number - lastUpdate) * rate;\n\n\t\treturn (balance, rate);\n\t}\n\n\tfunction getNewBalanceAndRateView(uint _id) public view returns(uint, uint) {\n\t\tuint previous = findPrevious(block.number);\n\n\t\tuint curr = firstVestingRecord;\n\t\tuint rate = projects[_id].vestRate;\n\t\tuint balance = projects[_id].funds;\n\t\tuint lastUpdate = projects[_id].lastUpdate;\n\n\t\tif (previous != 0) {\n\t\t\twhile (curr != previous) {\n\t\t\t\tbalance += (allVestings[curr].block - lastUpdate) * rate;\n\t\t\t\trate -= allVestings[curr].rate;\n\t\t\t\tlastUpdate = allVestings[curr].block;\n\n\t\t\t\tuint next = allVestings[curr].next;\n\t\t\t\t// removeVestingRecord(curr);\n\t\t\t\tcurr = next;\n\t\t\t}\n\t\t\t\n\t\t\tbalance += (allVestings[curr].block - lastUpdate) * rate;\n\t\t\trate -= allVestings[curr].rate;\n\t\t\tlastUpdate = allVestings[curr].block;\n\n\t\t\t// removeVestingRecord(curr);\n\t\t} \n\n\t\tbalance += (block.number - lastUpdate) * rate;\n\n\t\treturn (balance, rate);\n\t}\n\n\tfunction addInvestorIfNeeded(address _user, uint _projectId) internal {\n\t\t//needs to change this in future\n\n\t\tif (projects[_projectId].allFunds[_user].length == 0) {\n\t\t\tprojects[_projectId].investors.push(_user);\n\t\t}\n\t}\n\n\tfunction totalProjects() public view returns(uint) {\n\t\treturn projects.length;\n\t}\n\n\tfunction totalFunds(uint _projectId, address _from) public view returns(uint) {\n\t\treturn projects[_projectId].allFunds[_from].length;\n\t}\n\n\tfunction getFund(uint _projectId, address _from, uint _fundId) public view returns(uint amount, FundType fundType) {\n\t    Fund memory fund = projects[_projectId].allFunds[_from][_fundId];\n\t\treturn (fund.amount, fund.fundType);\n\t}\n\t\n\t// remix for skipping few blocks\n\tfunction skip() public {}\n}\n",
  "sourcePath": "/Users/nikolaklipa/Hakaton/Firestarter/contracts/Firestarter.sol",
  "compiler": {
    "name": "solc",
    "version": "0.5.0+commit.1d4f565a.Emscripten.clang"
  },
  "schemaVersion": "3.0.1",
  "updatedAt": "2019-03-09T11:02:01.981Z",
  "devdoc": {
    "methods": {
      "fundProjectByCompound(uint256,uint256)": {
        "details": "Before calling must approve contract to transferFrom Dai"
      }
    }
  },
  "userdoc": {
    "methods": {}
  }
}