{
  "contractName": "Firestarter",
  "abi": [
    {
      "constant": true,
      "inputs": [
        {
          "name": "",
          "type": "uint256"
        }
      ],
      "name": "projects",
      "outputs": [
        {
          "name": "owner",
          "type": "address"
        },
        {
          "name": "name",
          "type": "string"
        },
        {
          "name": "funds",
          "type": "uint256"
        },
        {
          "name": "daiFunds",
          "type": "uint256"
        },
        {
          "name": "totalWithdraws",
          "type": "uint256"
        },
        {
          "name": "lastUpdate",
          "type": "uint256"
        },
        {
          "name": "vestRate",
          "type": "uint256"
        },
        {
          "name": "ethWithdrawn",
          "type": "uint256"
        },
        {
          "name": "daiWithdrawn",
          "type": "uint256"
        }
      ],
      "payable": false,
      "stateMutability": "view",
      "type": "function"
    },
    {
      "constant": true,
      "inputs": [],
      "name": "DAI_ADDRESS",
      "outputs": [
        {
          "name": "",
          "type": "address"
        }
      ],
      "payable": false,
      "stateMutability": "view",
      "type": "function"
    },
    {
      "constant": false,
      "inputs": [
        {
          "name": "_id",
          "type": "uint256"
        }
      ],
      "name": "removeVestingRecord",
      "outputs": [],
      "payable": false,
      "stateMutability": "nonpayable",
      "type": "function"
    },
    {
      "constant": true,
      "inputs": [
        {
          "name": "_block",
          "type": "uint256"
        }
      ],
      "name": "findPrevious",
      "outputs": [
        {
          "name": "",
          "type": "uint256"
        }
      ],
      "payable": false,
      "stateMutability": "view",
      "type": "function"
    },
    {
      "constant": true,
      "inputs": [
        {
          "name": "_id",
          "type": "uint256"
        }
      ],
      "name": "findPreviousWithId",
      "outputs": [
        {
          "name": "",
          "type": "uint256"
        }
      ],
      "payable": false,
      "stateMutability": "view",
      "type": "function"
    },
    {
      "constant": true,
      "inputs": [],
      "name": "firstVestingRecord",
      "outputs": [
        {
          "name": "",
          "type": "uint256"
        }
      ],
      "payable": false,
      "stateMutability": "view",
      "type": "function"
    },
    {
      "constant": true,
      "inputs": [
        {
          "name": "",
          "type": "uint256"
        }
      ],
      "name": "allVestings",
      "outputs": [
        {
          "name": "rate",
          "type": "uint256"
        },
        {
          "name": "block",
          "type": "uint256"
        },
        {
          "name": "next",
          "type": "uint256"
        }
      ],
      "payable": false,
      "stateMutability": "view",
      "type": "function"
    },
    {
      "constant": true,
      "inputs": [],
      "name": "maxId",
      "outputs": [
        {
          "name": "",
          "type": "uint256"
        }
      ],
      "payable": false,
      "stateMutability": "view",
      "type": "function"
    },
    {
      "constant": true,
      "inputs": [],
      "name": "totalVestings",
      "outputs": [
        {
          "name": "",
          "type": "uint256"
        }
      ],
      "payable": false,
      "stateMutability": "view",
      "type": "function"
    },
    {
      "constant": false,
      "inputs": [
        {
          "name": "_rate",
          "type": "uint256"
        },
        {
          "name": "_block",
          "type": "uint256"
        }
      ],
      "name": "addVestingRecord",
      "outputs": [
        {
          "name": "id",
          "type": "uint256"
        }
      ],
      "payable": false,
      "stateMutability": "nonpayable",
      "type": "function"
    },
    {
      "constant": true,
      "inputs": [],
      "name": "getArr",
      "outputs": [
        {
          "name": "arr",
          "type": "uint256[]"
        }
      ],
      "payable": false,
      "stateMutability": "view",
      "type": "function"
    },
    {
      "inputs": [],
      "payable": false,
      "stateMutability": "nonpayable",
      "type": "constructor"
    },
    {
      "anonymous": false,
      "inputs": [
        {
          "indexed": true,
          "name": "id",
          "type": "uint256"
        },
        {
          "indexed": false,
          "name": "name",
          "type": "string"
        },
        {
          "indexed": true,
          "name": "owner",
          "type": "address"
        }
      ],
      "name": "ProjectCreated",
      "type": "event"
    },
    {
      "anonymous": false,
      "inputs": [
        {
          "indexed": true,
          "name": "id",
          "type": "uint256"
        },
        {
          "indexed": false,
          "name": "amount",
          "type": "uint256"
        },
        {
          "indexed": false,
          "name": "from",
          "type": "address"
        },
        {
          "indexed": false,
          "name": "fundType",
          "type": "uint8"
        }
      ],
      "name": "ProjectFunded",
      "type": "event"
    },
    {
      "anonymous": false,
      "inputs": [
        {
          "indexed": true,
          "name": "id",
          "type": "uint256"
        },
        {
          "indexed": false,
          "name": "ethAmount",
          "type": "uint256"
        },
        {
          "indexed": false,
          "name": "daiAmount",
          "type": "uint256"
        },
        {
          "indexed": false,
          "name": "message",
          "type": "string"
        }
      ],
      "name": "ProjectWithdraw",
      "type": "event"
    },
    {
      "constant": false,
      "inputs": [
        {
          "name": "_name",
          "type": "string"
        }
      ],
      "name": "addProject",
      "outputs": [],
      "payable": false,
      "stateMutability": "nonpayable",
      "type": "function"
    },
    {
      "constant": false,
      "inputs": [
        {
          "name": "_id",
          "type": "uint256"
        }
      ],
      "name": "fundProjectDirectly",
      "outputs": [],
      "payable": true,
      "stateMutability": "payable",
      "type": "function"
    },
    {
      "constant": false,
      "inputs": [
        {
          "name": "_id",
          "type": "uint256"
        },
        {
          "name": "_numOfBlocks",
          "type": "uint256"
        }
      ],
      "name": "fundProjectByVesting",
      "outputs": [],
      "payable": true,
      "stateMutability": "payable",
      "type": "function"
    },
    {
      "constant": false,
      "inputs": [
        {
          "name": "_id",
          "type": "uint256"
        },
        {
          "name": "_daiAmount",
          "type": "uint256"
        }
      ],
      "name": "fundProjectByCompound",
      "outputs": [],
      "payable": false,
      "stateMutability": "nonpayable",
      "type": "function"
    },
    {
      "constant": false,
      "inputs": [
        {
          "name": "_projectId",
          "type": "uint256"
        },
        {
          "name": "_ethBalance",
          "type": "uint256"
        },
        {
          "name": "_daiBalance",
          "type": "uint256"
        },
        {
          "name": "_message",
          "type": "string"
        }
      ],
      "name": "withdraw",
      "outputs": [],
      "payable": false,
      "stateMutability": "nonpayable",
      "type": "function"
    },
    {
      "constant": false,
      "inputs": [
        {
          "name": "_id",
          "type": "uint256"
        }
      ],
      "name": "updateBalance",
      "outputs": [],
      "payable": false,
      "stateMutability": "nonpayable",
      "type": "function"
    },
    {
      "constant": false,
      "inputs": [
        {
          "name": "_id",
          "type": "uint256"
        }
      ],
      "name": "getNewBalanceAndRate",
      "outputs": [
        {
          "name": "",
          "type": "uint256"
        },
        {
          "name": "",
          "type": "uint256"
        }
      ],
      "payable": false,
      "stateMutability": "nonpayable",
      "type": "function"
    },
    {
      "constant": true,
      "inputs": [
        {
          "name": "_id",
          "type": "uint256"
        }
      ],
      "name": "getNewBalanceAndRateView",
      "outputs": [
        {
          "name": "",
          "type": "uint256"
        },
        {
          "name": "",
          "type": "uint256"
        }
      ],
      "payable": false,
      "stateMutability": "view",
      "type": "function"
    },
    {
      "constant": true,
      "inputs": [],
      "name": "totalProjects",
      "outputs": [
        {
          "name": "",
          "type": "uint256"
        }
      ],
      "payable": false,
      "stateMutability": "view",
      "type": "function"
    },
    {
      "constant": true,
      "inputs": [
        {
          "name": "_projectId",
          "type": "uint256"
        },
        {
          "name": "_from",
          "type": "address"
        }
      ],
      "name": "totalFunds",
      "outputs": [
        {
          "name": "",
          "type": "uint256"
        }
      ],
      "payable": false,
      "stateMutability": "view",
      "type": "function"
    },
    {
      "constant": true,
      "inputs": [
        {
          "name": "_projectId",
          "type": "uint256"
        },
        {
          "name": "_from",
          "type": "address"
        },
        {
          "name": "_fundId",
          "type": "uint256"
        }
      ],
      "name": "getFund",
      "outputs": [
        {
          "name": "amount",
          "type": "uint256"
        },
        {
          "name": "fundType",
          "type": "uint8"
        }
      ],
      "payable": false,
      "stateMutability": "view",
      "type": "function"
    }
  ],
  "bytecode": "0x6080604052600160025560058054600160a060020a03199081167361bbd7bd5ee2a202d7e62519750170a52a8dfd451790915560068054909116734e17c87c52d0e9a0cad3fbc53b77d9514f00380717905534801561005d57600080fd5b50611d658061006d6000396000f3fe6080604052600436106101275763ffffffff7c01000000000000000000000000000000000000000000000000000000006000350416630ed047d4811461012c578063107046bd146101e157806328f91a12146102cd5780632a4c0a1a14610310578063416bb0d71461034157806343f4c44f1461036b57806346f07ee6146103b65780636f371095146103e057806376ca670d1461040a5780637f4054de1461042d57806390fbc2631461044a5780639c328a48146105105780639c361e4e1461053a5780639f2c411b1461054f578063a8184b641461057f578063ba7b37d414610594578063bf5a1383146105be578063c588724b14610606578063c5ea3c6514610670578063d7ba691e14610685578063facbe90c1461069a578063fb8cbced146106ca575b600080fd5b34801561013857600080fd5b506101df6004803603602081101561014f57600080fd5b81019060208101813564010000000081111561016a57600080fd5b82018360208201111561017c57600080fd5b8035906020019184600183028401116401000000008311171561019e57600080fd5b91908080601f01602080910402602001604051908101604052809392919081815260200183838082843760009201919091525092955061072f945050505050565b005b3480156101ed57600080fd5b5061020b6004803603602081101561020457600080fd5b50356108ee565b604051808a600160a060020a0316600160a060020a031681526020018060200189815260200188815260200187815260200186815260200185815260200184815260200183815260200182810382528a818151815260200191508051906020019080838360005b8381101561028a578181015183820152602001610272565b50505050905090810190601f1680156102b75780820380516001836020036101000a031916815260200191505b509a505050505050505050505060405180910390f35b3480156102d957600080fd5b506102f7600480360360208110156102f057600080fd5b50356109dd565b6040805192835260208301919091528051918290030190f35b34801561031c57600080fd5b50610325610aeb565b60408051600160a060020a039092168252519081900360200190f35b34801561034d57600080fd5b506101df6004803603602081101561036457600080fd5b5035610afa565b34801561037757600080fd5b506103a46004803603604081101561038e57600080fd5b5080359060200135600160a060020a0316610b54565b60408051918252519081900360200190f35b3480156103c257600080fd5b506102f7600480360360208110156103d957600080fd5b5035610b96565b3480156103ec57600080fd5b506103a46004803603602081101561040357600080fd5b5035610c92565b6101df6004803603604081101561042057600080fd5b5080359060200135610d26565b6101df6004803603602081101561044357600080fd5b5035610e7d565b34801561045657600080fd5b506101df6004803603608081101561046d57600080fd5b8135916020810135916040820135919081019060808101606082013564010000000081111561049b57600080fd5b8201836020820111156104ad57600080fd5b803590602001918460018302840111640100000000831117156104cf57600080fd5b91908080601f016020809104026020016040519081016040528093929190818152602001838380828437600092019190915250929550610fa6945050505050565b34801561051c57600080fd5b506103a46004803603602081101561053357600080fd5b5035611572565b34801561054657600080fd5b506103a46115a8565b34801561055b57600080fd5b506101df6004803603604081101561057257600080fd5b50803590602001356115af565b34801561058b57600080fd5b506103a46117f8565b3480156105a057600080fd5b506101df600480360360208110156105b757600080fd5b50356117fe565b3480156105ca57600080fd5b506105e8600480360360208110156105e157600080fd5b5035611884565b60408051938452602084019290925282820152519081900360600190f35b34801561061257600080fd5b506106456004803603606081101561062957600080fd5b50803590600160a060020a0360208201351690604001356118a5565b6040518083815260200182600281111561065b57fe5b60ff1681526020019250505060405180910390f35b34801561067c57600080fd5b506103a4611956565b34801561069157600080fd5b506103a461195c565b3480156106a657600080fd5b506103a4600480360360408110156106bd57600080fd5b5080359060200135611962565b3480156106d657600080fd5b506106df611a2c565b60408051602080825283518183015283519192839290830191858101910280838360005b8381101561071b578181015183820152602001610703565b505050509050019250505060405180910390f35b610737611b8e565b3381526020808201838152600480546001810180835560009290925284517f8a35acfbc15ff81a39ae7d344fd709f28e8600b4aa8c65c6b64bfe7fe36bd19b600c909202918201805473ffffffffffffffffffffffffffffffffffffffff1916600160a060020a039092169190911781559251805192948694936107e1937f8a35acfbc15ff81a39ae7d344fd709f28e8600b4aa8c65c6b64bfe7fe36bd19c019290910190611beb565b5060408201516002820155606082015160038201556080820151600682015560a0820151805161081b916007840191602090910190611c69565b5060c0820151600882015560e08201516009820155610100820151600a82015561012090910151600b90910155506004546040805160208082528551818301528551339460001901937fc0c54fed07481d0998e1446b2c13759606bf4f26b78306307413ac4c4309aa829388939092839283019185019080838360005b838110156108b0578181015183820152602001610898565b50505050905090810190601f1680156108dd5780820380516001836020036101000a031916815260200191505b509250505060405180910390a35050565b60048054829081106108fc57fe5b6000918252602091829020600c9091020180546001808301805460408051601f6002600019968516156101000296909601909316949094049182018790048702840187019052808352600160a060020a0390931695509293909291908301828280156109a95780601f1061097e576101008083540402835291602001916109a9565b820191906000526020600020905b81548152906001019060200180831161098c57829003601f168201915b50505050509080600201549080600301549080600601549080600801549080600901549080600a01549080600b0154905089565b60008060006109eb43610c92565b9050600060035490506000600486815481101515610a0557fe5b90600052602060002090600c02016009015490506000600487815481101515610a2a57fe5b90600052602060002090600c02016002015490506000600488815481101515610a4f57fe5b90600052602060002090600c0201600801549050846000141515610adb575b838514610aaf57600084815260208190526040902060018101548154600290920154918503949281039092029290920191610aa885610afa565b9350610a6e565b6000848152602081905260409020600181015490548403939181039091029190910190610adb84610afa565b4303820201945092505050915091565b600654600160a060020a031681565b600354811415610b1e57600081815260208190526040902060020154600355610b47565b6000610b2982611572565b60008381526020819052604080822060029081015493835291200155505b5060018054600019019055565b6000600483815481101515610b6557fe5b60009182526020808320600160a060020a03861684526004600c909302019190910190526040902054905092915050565b6000806000610ba443610c92565b9050600060035490506000600486815481101515610bbe57fe5b90600052602060002090600c02016009015490506000600487815481101515610be357fe5b90600052602060002090600c02016002015490506000600488815481101515610c0857fe5b90600052602060002090600c0201600801549050846000141515610adb575b838514610c5f576000938452602084905260409093206001810154815460029092015494918403939181039091029190910190610c27565b60008481526020819052604090206001810154905484039391810390910291909101904303820201945092505050915091565b6003546000905b60008181526020819052604090206002015415801590610cd2575060008181526020819052604080822060020154825290206001015483115b15610cee57600090815260208190526040902060020154610c99565b60035481148015610d0f575060008181526020819052604090206001015483105b15610d1e576000915050610d21565b90505b919050565b610d303383611af4565b6004805483908110610d3e57fe5b60009182526020808320338452600c9290920290910160040181526040808320815180830190925234825260018284018181528254808301808555938752949095208351600295860290910190815594518582018054939694959193909260ff19909116918490811115610dae57fe5b0217905550505050610dcd8134811515610dc457fe5b04824301611962565b50610dd7826117fe565b8034811515610de257fe5b04600483815481101515610df257fe5b90600052602060002090600c020160090160008282540192505081905550817f2dc91c4e4d98180243940dbb23cbc2a91e58fac7e7c1971f5c1abdda5ad18b78343360006040518084815260200183600160a060020a0316600160a060020a03168152602001826002811115610e6457fe5b60ff168152602001935050505060405180910390a25050565b34600482815481101515610e8d57fe5b600091825260209091206002600c909202010180549091019055610eb13382611af4565b6004805482908110610ebf57fe5b600091825260208083203384526004600c9093020191909101815260408083208151808301909252348252929091820152815460018181018085556000948552602094859020845160029485029091019081559484015185830180549296949193909260ff1916918490811115610f3257fe5b0217905550505050807f2dc91c4e4d98180243940dbb23cbc2a91e58fac7e7c1971f5c1abdda5ad18b78343360006040518084815260200183600160a060020a0316600160a060020a03168152602001826002811115610f8e57fe5b60ff168152602001935050505060405180910390a250565b610fae611b8e565b6004805486908110610fbc57fe5b60009182526020918290206040805161014081018252600c9093029091018054600160a060020a03168352600180820180548451601f6002600019958416156101000295909501909216939093049081018790048702830187019094528382529394919385830193919290919083018282801561107a5780601f1061104f5761010080835404028352916020019161107a565b820191906000526020600020905b81548152906001019060200180831161105d57829003601f168201915b50505050508152602001600282015481526020016003820154815260200160068201548152602001600782018054806020026020016040519081016040528092919081815260200182805480156110fa57602002820191906000526020600020905b8154600160a060020a031681526001909101906020018083116110dc575b505050918352505060088201546020808301919091526009830154604080840191909152600a8401546060840152600b9093015460809092019190915260055460065483517fba377731000000000000000000000000000000000000000000000000000000008152306004820152600160a060020a039182166024820152935194955060009491169263ba377731926044808301939192829003018186803b1580156111a557600080fd5b505afa1580156111b9573d6000803e3d6000fd5b505050506040513d60208110156111cf57600080fd5b505190506111dc866117fe565b8151600160a060020a031633146111f257600080fd5b61010082015160408301510385101561120a57600080fd5b610120820151606083015182030384101561122457600080fd5b600085111561128657604051339086156108fc029087906000818181858888f1935050505015801561125a573d6000803e3d6000fd5b508460048781548110151561126b57fe5b60009182526020909120600a600c9092020101805490910190555b60008411156113f257600554600654604080517ff3fef3a3000000000000000000000000000000000000000000000000000000008152600160a060020a039283166004820152602481018890529051919092169163f3fef3a39160448083019260209291908290030181600087803b15801561130157600080fd5b505af1158015611315573d6000803e3d6000fd5b505050506040513d602081101561132b57600080fd5b5050600654604080517fa9059cbb000000000000000000000000000000000000000000000000000000008152336004820152602481018790529051600160a060020a039092169163a9059cbb916044808201926020929091908290030181600087803b15801561139a57600080fd5b505af11580156113ae573d6000803e3d6000fd5b505050506040513d60208110156113c457600080fd5b505060048054859190889081106113d757fe5b60009182526020909120600b600c9092020101805490910190555b6040805160608101825286815260208101869052908101849052600480548890811061141a57fe5b90600052602060002090600c0201600501600060048981548110151561143c57fe5b90600052602060002090600c02016006015481526020019081526020016000206000820151816000015560208201518160010155604082015181600201908051906020019061148c929190611beb565b5090505060048681548110151561149f57fe5b90600052602060002090600c020160060160008154809291906001019190505550857ff06d9ec9c3e2e48871183628508cae534a356e2e9354760f079399bbe8d923378686866040518084815260200183815260200180602001828103825283818151815260200191508051906020019080838360005b8381101561152e578181015183820152602001611516565b50505050905090810190601f16801561155b5780820380516001836020036101000a031916815260200191505b5094505050505060405180910390a2505050505050565b6003546000905b6000818152602081905260409020600201548314610d1e57600090815260208190526040902060020154611579565b6004545b90565b6115b93383611af4565b600654604080517f23b872dd000000000000000000000000000000000000000000000000000000008152336004820152306024820152604481018490529051600160a060020a03909216916323b872dd916064808201926020929091908290030181600087803b15801561162c57600080fd5b505af1158015611640573d6000803e3d6000fd5b505050506040513d602081101561165657600080fd5b5050600554600654604080517ff2b9fdb8000000000000000000000000000000000000000000000000000000008152600160a060020a039283166004820152602481018590529051600093929092169163f2b9fdb89160448082019260209290919082900301818787803b1580156116cd57600080fd5b505af11580156116e1573d6000803e3d6000fd5b505050506040513d60208110156116f757600080fd5b50519050801561170357fe5b8160048481548110151561171357fe5b600091825260209091206003600c909202010180549091019055600480548490811061173b57fe5b60009182526020808320338452600c9290920290910160040181526040808320815180830190925285825260028284018181528254600180820180865594885295909620845196830201958655518585018054939694959193909260ff19909116919084908111156117a957fe5b0217905550506040805185815233602082015260028183015290518693507f2dc91c4e4d98180243940dbb23cbc2a91e58fac7e7c1971f5c1abdda5ad18b7892509081900360600190a2505050565b60035481565b60008061180a836109dd565b6004805492945090925083918590811061182057fe5b90600052602060002090600c0201600201819055508060048481548110151561184557fe5b90600052602060002090600c0201600901819055504360048481548110151561186a57fe5b90600052602060002090600c020160080181905550505050565b60006020819052908152604090208054600182015460029092015490919083565b6000806118b0611cd7565b60048054879081106118be57fe5b60009182526020808320600160a060020a03891684526004600c90930201919091019052604090208054859081106118f257fe5b9060005260206000209060020201604080519081016040529081600082015481526020016001820160009054906101000a900460ff16600281111561193357fe5b600281111561193e57fe5b90525080516020909101519097909650945050505050565b60025481565b60015481565b60028054604080516060810182528581526020808201868152600083850181815286825292819052938420925183555160018084019190915590519190940155915490911015611a0f5760006119b783610c92565b90508015156119de5760038054600084815260208190526040902060020155829055611a09565b6000818152602081905260408082206002908101805486855292842090910191909155908290528290555b50611a15565b60038190555b600180548101815560028054909101905592915050565b6060600154604051908082528060200260200182016040528015611a5a578160200160208202803883390190505b5060035490915060005b60008281526020819052604090206002015415611ac3576000828152602081905260409020600101548351849083908110611a9b57fe5b6020908102909101810191909152600092835282905260409091206002015490600101611a64565b6000828152602081905260409020600101548351849083908110611ae357fe5b602090810290910101525090919050565b6004805482908110611b0257fe5b60009182526020808320600160a060020a03861684526004600c9093020191909101905260409020541515611b8a576004805482908110611b3f57fe5b60009182526020808320600c929092029091016007018054600181018255908352912001805473ffffffffffffffffffffffffffffffffffffffff1916600160a060020a0384161790555b5050565b610140604051908101604052806000600160a060020a031681526020016060815260200160008152602001600081526020016000815260200160608152602001600081526020016000815260200160008152602001600081525090565b828054600181600116156101000203166002900490600052602060002090601f016020900481019282601f10611c2c57805160ff1916838001178555611c59565b82800160010185558215611c59579182015b82811115611c59578251825591602001919060010190611c3e565b50611c65929150611cee565b5090565b828054828255906000526020600020908101928215611ccb579160200282015b82811115611ccb578251825473ffffffffffffffffffffffffffffffffffffffff1916600160a060020a03909116178255602090920191600190910190611c89565b50611c65929150611d08565b604080518082019091526000808252602082015290565b6115ac91905b80821115611c655760008155600101611cf4565b6115ac91905b80821115611c6557805473ffffffffffffffffffffffffffffffffffffffff19168155600101611d0e56fea165627a7a7230582028c6064b98fff8add1f037e6c83f55023c0d1651ce20dec59a97efb6c7f3f23a0029",
  "source": "pragma solidity ^0.5.0;\n\nimport \"./Vesting.sol\";\nimport \"./CompoundInterface.sol\";\nimport \"./ERC20.sol\";\n\ncontract Firestarter is Vesting {\n\n\tenum FundType { DirectType, VestingType, CompoundType }\n\n\tstruct Withdraw {\n\t\tuint ethAmount;\n\t\tuint daiAmount;\n\t\tstring message;\n\t}\n\n\tstruct Fund {\n\t\tuint amount;\n\t\tFundType fundType;\n\t}\n\n\tstruct Project {\n\t\taddress owner;\n\t\tstring name;\n\t\tuint funds;\n\t\tuint daiFunds;\n\t\tmapping(address => Fund[]) allFunds;\n\t\t// solidity doesn't support array of structs in struct, so implementing it on my own\n\t\tmapping(uint => Withdraw) allWithdraws;\n\t\tuint totalWithdraws;\n\t\taddress[] investors;\n\t\tuint lastUpdate;\n\t\tuint vestRate;\n\t\tuint ethWithdrawn;\n\t\tuint daiWithdrawn;\n\t}\n\n\tProject[] public projects;\n\n\t// Rinkeby test deployment\n\tCompoundInterface compound = CompoundInterface(0x61bbd7Bd5EE2A202d7e62519750170A52A8DFD45);\n\taddress public DAI_ADDRESS = 0x4e17c87c52d0E9a0cAd3Fbc53b77d9514F003807;\n\n\tevent ProjectCreated(uint indexed id, string name, address indexed owner);\n\tevent ProjectFunded(uint indexed id, uint amount, address from, FundType fundType);\n\tevent ProjectWithdraw(uint indexed id, uint ethAmount, uint daiAmount, string message);\n\n\tconstructor() public {\n\t\t// ERC20(DAI_ADDRESS).approve(address(compound), uint(-1));\n\t}\n\n\tfunction addProject(string memory _name) public {\n\t\t\n\t\tProject memory project;\n\t\tproject.owner = msg.sender;\n\t\tproject.name = _name;\n\n\t\tprojects.push(project);\n\n\t\temit ProjectCreated(projects.length-1, _name, msg.sender);\n\t}\n\t\n\tfunction fundProjectDirectly(uint _id) public payable {\n\t\t\n\t\tprojects[_id].funds += msg.value;\n\n\t\taddInvestorIfNeeded(msg.sender, _id);\n\n\t\tprojects[_id].allFunds[msg.sender].push(Fund({\n\t\t\t\tamount: msg.value,\n\t\t\t\tfundType: FundType.DirectType\n\t\t\t}));\n\n\t\temit ProjectFunded(_id, msg.value, msg.sender, FundType.DirectType);\n\t}\n\n\tfunction fundProjectByVesting(uint _id, uint _numOfBlocks) public payable {\n\t\taddInvestorIfNeeded(msg.sender, _id);\n\n\t\tprojects[_id].allFunds[msg.sender].push(Fund({\n\t\t\t\tamount: msg.value,\n\t\t\t\tfundType: FundType.VestingType\n\t\t\t}));\n\n\t\taddVestingRecord(msg.value / _numOfBlocks, block.number + _numOfBlocks);\n\t\tupdateBalance(_id);\n\t\t\n\t\tprojects[_id].vestRate += msg.value / _numOfBlocks;\n\n\t\temit ProjectFunded(_id, msg.value, msg.sender, FundType.DirectType);\n\t}\n\n\t///@dev Before calling must approve contract to transferFrom Dai\n\tfunction fundProjectByCompound(uint _id, uint _daiAmount) public {\n\t\taddInvestorIfNeeded(msg.sender, _id);\n\n\t\tERC20(DAI_ADDRESS).transferFrom(msg.sender, address(this), _daiAmount);\n\n\t\tuint errCode = compound.supply(DAI_ADDRESS, _daiAmount);\n\n\t\tassert(errCode == 0);\n\n\t\tprojects[_id].daiFunds += _daiAmount;\n\n\t\tprojects[_id].allFunds[msg.sender].push(Fund({\n\t\t\tamount: _daiAmount,\n\t\t\tfundType: FundType.CompoundType\n\t\t}));\n        \n        emit ProjectFunded(_id, _daiAmount, msg.sender, FundType.CompoundType);\n\t}\n\n\tfunction withdraw(uint _projectId, uint _ethBalance, uint _daiBalance, string memory _message) public {\n\t\tProject memory project = projects[_projectId];\n\t\tuint currentFullBalance = compound.getSupplyBalance(address(this), DAI_ADDRESS);\n\n\t\t// update before we try to get it\n\t\tupdateBalance(_projectId);\n\n\t\trequire(project.owner == msg.sender);\n\t\trequire(_ethBalance >= (project.funds - project.ethWithdrawn));\n\t\trequire(_daiBalance >= (currentFullBalance - project.daiFunds - project.daiWithdrawn));\n\n\t\tif (_ethBalance > 0) {\n\t\t\tmsg.sender.transfer(_ethBalance);\n\t\t\tprojects[_projectId].ethWithdrawn += _ethBalance;\n\t\t}\n\n\t\tif (_daiBalance > 0) {\n\t\t\tcompound.withdraw(DAI_ADDRESS, _daiBalance);\n\t\t\tERC20(DAI_ADDRESS).transfer(msg.sender, _daiBalance);\n\t\t\tprojects[_projectId].daiWithdrawn += _daiBalance;\n\t\t}\n\n\t\tprojects[_projectId].allWithdraws[projects[_projectId].totalWithdraws] = Withdraw({\n\t\t\t\tethAmount: _ethBalance,\n\t\t\t\tdaiAmount: _daiBalance,\n\t\t\t\tmessage: _message\n\t\t\t});\n\t\tprojects[_projectId].totalWithdraws++;\n\n\t\temit ProjectWithdraw(_projectId, _ethBalance, _daiBalance, _message);\n\t}\n\t\n\n\tfunction updateBalance(uint _id) public {\n\t\tuint balance;\n\t\tuint rate;\n\t\t(balance, rate) = getNewBalanceAndRate(_id);\n\n\t\tprojects[_id].funds = balance;\n\t\tprojects[_id].vestRate = rate;\n\t\tprojects[_id].lastUpdate = block.number;\n\t}\n\n\tfunction getNewBalanceAndRate(uint _id) public returns(uint, uint) {\n\t\tuint previous = findPrevious(block.number);\n\n\t\tuint curr = firstVestingRecord;\n\t\tuint rate = projects[_id].vestRate;\n\t\tuint balance = projects[_id].funds;\n\t\tuint lastUpdate = projects[_id].lastUpdate;\n\n\t\tif (previous != 0) {\n\t\t\twhile (curr != previous) {\n\t\t\t\tbalance += (allVestings[curr].block - lastUpdate) * rate;\n\t\t\t\trate -= allVestings[curr].rate;\n\t\t\t\tlastUpdate = allVestings[curr].block;\n\n\t\t\t\tuint next = allVestings[curr].next;\n\t\t\t\tremoveVestingRecord(curr);\n\t\t\t\tcurr = next;\n\t\t\t}\n\t\t\t\n\t\t\tbalance += (allVestings[curr].block - lastUpdate) * rate;\n\t\t\trate -= allVestings[curr].rate;\n\t\t\tlastUpdate = allVestings[curr].block;\n\n\t\t\tremoveVestingRecord(curr);\n\t\t} \n\n\t\tbalance += (block.number - lastUpdate) * rate;\n\n\t\treturn (balance, rate);\n\t}\n\n\tfunction getNewBalanceAndRateView(uint _id) public view returns(uint, uint) {\n\t\tuint previous = findPrevious(block.number);\n\n\t\tuint curr = firstVestingRecord;\n\t\tuint rate = projects[_id].vestRate;\n\t\tuint balance = projects[_id].funds;\n\t\tuint lastUpdate = projects[_id].lastUpdate;\n\n\t\tif (previous != 0) {\n\t\t\twhile (curr != previous) {\n\t\t\t\tbalance += (allVestings[curr].block - lastUpdate) * rate;\n\t\t\t\trate -= allVestings[curr].rate;\n\t\t\t\tlastUpdate = allVestings[curr].block;\n\n\t\t\t\tuint next = allVestings[curr].next;\n\t\t\t\t// removeVestingRecord(curr);\n\t\t\t\tcurr = next;\n\t\t\t}\n\t\t\t\n\t\t\tbalance += (allVestings[curr].block - lastUpdate) * rate;\n\t\t\trate -= allVestings[curr].rate;\n\t\t\tlastUpdate = allVestings[curr].block;\n\n\t\t\t// removeVestingRecord(curr);\n\t\t} \n\n\t\tbalance += (block.number - lastUpdate) * rate;\n\n\t\treturn (balance, rate);\n\t}\n\n\tfunction addInvestorIfNeeded(address _user, uint _projectId) internal {\n\t\t//needs to change this in future\n\n\t\tif (projects[_projectId].allFunds[_user].length == 0) {\n\t\t\tprojects[_projectId].investors.push(_user);\n\t\t}\n\t}\n\n\tfunction totalProjects() public view returns(uint) {\n\t\treturn projects.length;\n\t}\n\n\tfunction totalFunds(uint _projectId, address _from) public view returns(uint) {\n\t\treturn projects[_projectId].allFunds[_from].length;\n\t}\n\n\tfunction getFund(uint _projectId, address _from, uint _fundId) public view returns(uint amount, FundType fundType) {\n\t    Fund memory fund = projects[_projectId].allFunds[_from][_fundId];\n\t\treturn (fund.amount, fund.fundType);\n\t}\n\t\n\n\n}\n",
  "sourcePath": "/Users/nikolaklipa/Hakaton/Firestarter/contracts/Firestarter.sol",
  "compiler": {
    "name": "solc",
    "version": "0.5.0+commit.1d4f565a.Emscripten.clang"
  },
  "schemaVersion": "3.0.1",
  "updatedAt": "2019-03-09T10:43:23.224Z",
  "devdoc": {
    "methods": {
      "fundProjectByCompound(uint256,uint256)": {
        "details": "Before calling must approve contract to transferFrom Dai"
      }
    }
  },
  "userdoc": {
    "methods": {}
  }
}