{
  "contractName": "Firestarter",
  "abi": [
    {
      "constant": true,
      "inputs": [
        {
          "name": "",
          "type": "uint256"
        }
      ],
      "name": "projects",
      "outputs": [
        {
          "name": "owner",
          "type": "address"
        },
        {
          "name": "name",
          "type": "string"
        },
        {
          "name": "funds",
          "type": "uint256"
        },
        {
          "name": "lastUpdate",
          "type": "uint256"
        },
        {
          "name": "vestRate",
          "type": "uint256"
        }
      ],
      "payable": false,
      "stateMutability": "view",
      "type": "function",
      "signature": "0x107046bd"
    },
    {
      "constant": true,
      "inputs": [],
      "name": "DAI_ADDRESS",
      "outputs": [
        {
          "name": "",
          "type": "address"
        }
      ],
      "payable": false,
      "stateMutability": "view",
      "type": "function",
      "signature": "0x2a4c0a1a"
    },
    {
      "constant": false,
      "inputs": [
        {
          "name": "_id",
          "type": "uint256"
        }
      ],
      "name": "removeVestingRecord",
      "outputs": [],
      "payable": false,
      "stateMutability": "nonpayable",
      "type": "function",
      "signature": "0x416bb0d7"
    },
    {
      "constant": true,
      "inputs": [
        {
          "name": "_block",
          "type": "uint256"
        }
      ],
      "name": "findPrevious",
      "outputs": [
        {
          "name": "",
          "type": "uint256"
        }
      ],
      "payable": false,
      "stateMutability": "view",
      "type": "function",
      "signature": "0x6f371095"
    },
    {
      "constant": true,
      "inputs": [
        {
          "name": "_id",
          "type": "uint256"
        }
      ],
      "name": "findPreviousWithId",
      "outputs": [
        {
          "name": "",
          "type": "uint256"
        }
      ],
      "payable": false,
      "stateMutability": "view",
      "type": "function",
      "signature": "0x9c328a48"
    },
    {
      "constant": true,
      "inputs": [],
      "name": "firstVestingRecord",
      "outputs": [
        {
          "name": "",
          "type": "uint256"
        }
      ],
      "payable": false,
      "stateMutability": "view",
      "type": "function",
      "signature": "0xa8184b64"
    },
    {
      "constant": true,
      "inputs": [
        {
          "name": "",
          "type": "uint256"
        }
      ],
      "name": "allVestings",
      "outputs": [
        {
          "name": "rate",
          "type": "uint256"
        },
        {
          "name": "block",
          "type": "uint256"
        },
        {
          "name": "next",
          "type": "uint256"
        }
      ],
      "payable": false,
      "stateMutability": "view",
      "type": "function",
      "signature": "0xbf5a1383"
    },
    {
      "constant": true,
      "inputs": [],
      "name": "maxId",
      "outputs": [
        {
          "name": "",
          "type": "uint256"
        }
      ],
      "payable": false,
      "stateMutability": "view",
      "type": "function",
      "signature": "0xc5ea3c65"
    },
    {
      "constant": true,
      "inputs": [],
      "name": "totalVestings",
      "outputs": [
        {
          "name": "",
          "type": "uint256"
        }
      ],
      "payable": false,
      "stateMutability": "view",
      "type": "function",
      "signature": "0xd7ba691e"
    },
    {
      "constant": false,
      "inputs": [
        {
          "name": "_rate",
          "type": "uint256"
        },
        {
          "name": "_block",
          "type": "uint256"
        }
      ],
      "name": "addVestingRecord",
      "outputs": [
        {
          "name": "id",
          "type": "uint256"
        }
      ],
      "payable": false,
      "stateMutability": "nonpayable",
      "type": "function",
      "signature": "0xfacbe90c"
    },
    {
      "constant": true,
      "inputs": [],
      "name": "getArr",
      "outputs": [
        {
          "name": "arr",
          "type": "uint256[]"
        }
      ],
      "payable": false,
      "stateMutability": "view",
      "type": "function",
      "signature": "0xfb8cbced"
    },
    {
      "inputs": [],
      "payable": false,
      "stateMutability": "nonpayable",
      "type": "constructor",
      "signature": "constructor"
    },
    {
      "anonymous": false,
      "inputs": [
        {
          "indexed": false,
          "name": "id",
          "type": "uint256"
        },
        {
          "indexed": false,
          "name": "name",
          "type": "string"
        },
        {
          "indexed": false,
          "name": "owner",
          "type": "address"
        }
      ],
      "name": "ProjectCreated",
      "type": "event",
      "signature": "0xc0c54fed07481d0998e1446b2c13759606bf4f26b78306307413ac4c4309aa82"
    },
    {
      "anonymous": false,
      "inputs": [
        {
          "indexed": false,
          "name": "id",
          "type": "uint256"
        },
        {
          "indexed": false,
          "name": "amount",
          "type": "uint256"
        },
        {
          "indexed": false,
          "name": "from",
          "type": "address"
        },
        {
          "indexed": false,
          "name": "fundType",
          "type": "uint8"
        }
      ],
      "name": "ProjectFunded",
      "type": "event",
      "signature": "0x2dc91c4e4d98180243940dbb23cbc2a91e58fac7e7c1971f5c1abdda5ad18b78"
    },
    {
      "constant": false,
      "inputs": [
        {
          "name": "_name",
          "type": "string"
        }
      ],
      "name": "addProject",
      "outputs": [],
      "payable": false,
      "stateMutability": "nonpayable",
      "type": "function",
      "signature": "0x0ed047d4"
    },
    {
      "constant": false,
      "inputs": [
        {
          "name": "_id",
          "type": "uint256"
        }
      ],
      "name": "fundProjectDirectly",
      "outputs": [],
      "payable": true,
      "stateMutability": "payable",
      "type": "function",
      "signature": "0x7f4054de"
    },
    {
      "constant": false,
      "inputs": [
        {
          "name": "_id",
          "type": "uint256"
        },
        {
          "name": "_numOfBlocks",
          "type": "uint256"
        }
      ],
      "name": "fundProjectByVesting",
      "outputs": [],
      "payable": true,
      "stateMutability": "payable",
      "type": "function",
      "signature": "0x76ca670d"
    },
    {
      "constant": false,
      "inputs": [
        {
          "name": "_id",
          "type": "uint256"
        },
        {
          "name": "_daiAmount",
          "type": "uint256"
        }
      ],
      "name": "fundProjectByCompound",
      "outputs": [],
      "payable": false,
      "stateMutability": "nonpayable",
      "type": "function",
      "signature": "0x9f2c411b"
    },
    {
      "constant": false,
      "inputs": [
        {
          "name": "_id",
          "type": "uint256"
        }
      ],
      "name": "updateBalance",
      "outputs": [],
      "payable": false,
      "stateMutability": "nonpayable",
      "type": "function",
      "signature": "0xba7b37d4"
    },
    {
      "constant": false,
      "inputs": [
        {
          "name": "_id",
          "type": "uint256"
        }
      ],
      "name": "getNewBalanceAndRate",
      "outputs": [
        {
          "name": "",
          "type": "uint256"
        },
        {
          "name": "",
          "type": "uint256"
        }
      ],
      "payable": false,
      "stateMutability": "nonpayable",
      "type": "function",
      "signature": "0x28f91a12"
    },
    {
      "constant": true,
      "inputs": [],
      "name": "totalProjects",
      "outputs": [
        {
          "name": "",
          "type": "uint256"
        }
      ],
      "payable": false,
      "stateMutability": "view",
      "type": "function",
      "signature": "0x9c361e4e"
    },
    {
      "constant": true,
      "inputs": [
        {
          "name": "_projectId",
          "type": "uint256"
        },
        {
          "name": "_from",
          "type": "address"
        }
      ],
      "name": "totalFunds",
      "outputs": [
        {
          "name": "",
          "type": "uint256"
        }
      ],
      "payable": false,
      "stateMutability": "view",
      "type": "function",
      "signature": "0x43f4c44f"
    },
    {
      "constant": true,
      "inputs": [
        {
          "name": "_projectId",
          "type": "uint256"
        },
        {
          "name": "_from",
          "type": "address"
        },
        {
          "name": "_fundId",
          "type": "uint256"
        }
      ],
      "name": "getFund",
      "outputs": [
        {
          "name": "amount",
          "type": "uint256"
        },
        {
          "name": "fundType",
          "type": "uint8"
        }
      ],
      "payable": false,
      "stateMutability": "view",
      "type": "function",
      "signature": "0xc588724b"
    }
  ],
  "bytecode": "0x6080604052600160025560058054600160a060020a03199081167361bbd7bd5ee2a202d7e62519750170a52a8dfd451790915560068054909116734e17c87c52d0e9a0cad3fbc53b77d9514f00380717905534801561005d57600080fd5b506115358061006d6000396000f3fe6080604052600436106101115763ffffffff7c01000000000000000000000000000000000000000000000000000000006000350416630ed047d48114610116578063107046bd146101cb57806328f91a121461029b5780632a4c0a1a146102de578063416bb0d71461030f57806343f4c44f146103395780636f3710951461038457806376ca670d146103ae5780637f4054de146103d15780639c328a48146103ee5780639c361e4e146104185780639f2c411b1461042d578063a8184b641461045d578063ba7b37d414610472578063bf5a13831461049c578063c588724b146104e4578063c5ea3c651461054e578063d7ba691e14610563578063facbe90c14610578578063fb8cbced146105a8575b600080fd5b34801561012257600080fd5b506101c96004803603602081101561013957600080fd5b81019060208101813564010000000081111561015457600080fd5b82018360208201111561016657600080fd5b8035906020019184600183028401116401000000008311171561018857600080fd5b91908080601f01602080910402602001604051908101604052809392919081815260200183838082843760009201919091525092955061060d945050505050565b005b3480156101d757600080fd5b506101f5600480360360208110156101ee57600080fd5b50356107e9565b6040518086600160a060020a0316600160a060020a0316815260200180602001858152602001848152602001838152602001828103825286818151815260200191508051906020019080838360005b8381101561025c578181015183820152602001610244565b50505050905090810190601f1680156102895780820380516001836020036101000a031916815260200191505b50965050505050505060405180910390f35b3480156102a757600080fd5b506102c5600480360360208110156102be57600080fd5b50356108c0565b6040805192835260208301919091528051918290030190f35b3480156102ea57600080fd5b506102f36109ce565b60408051600160a060020a039092168252519081900360200190f35b34801561031b57600080fd5b506101c96004803603602081101561033257600080fd5b50356109dd565b34801561034557600080fd5b506103726004803603604081101561035c57600080fd5b5080359060200135600160a060020a0316610a37565b60408051918252519081900360200190f35b34801561039057600080fd5b50610372600480360360208110156103a757600080fd5b5035610a79565b6101c9600480360360408110156103c457600080fd5b5080359060200135610b0d565b6101c9600480360360208110156103e757600080fd5b5035610c6b565b3480156103fa57600080fd5b506103726004803603602081101561041157600080fd5b5035610d9b565b34801561042457600080fd5b50610372610dd1565b34801561043957600080fd5b506101c96004803603604081101561045057600080fd5b5080359060200135610dd8565b34801561046957600080fd5b50610372611025565b34801561047e57600080fd5b506101c96004803603602081101561049557600080fd5b503561102b565b3480156104a857600080fd5b506104c6600480360360208110156104bf57600080fd5b50356110b1565b60408051938452602084019290925282820152519081900360600190f35b3480156104f057600080fd5b506105236004803603606081101561050757600080fd5b50803590600160a060020a0360208201351690604001356110d2565b6040518083815260200182600281111561053957fe5b60ff1681526020019250505060405180910390f35b34801561055a57600080fd5b50610372611183565b34801561056f57600080fd5b50610372611189565b34801561058457600080fd5b506103726004803603604081101561059b57600080fd5b508035906020013561118f565b3480156105b457600080fd5b506105bd611259565b60408051602080825283518183015283519192839290830191858101910280838360005b838110156105f95781810151838201526020016105e1565b505050509050019250505060405180910390f35b6040805160c081018252338152602080820184815260008385018190528451818152808401909552606084019490945243608084015260a08301849052600480546001810180835591909552835160079095027f8a35acfbc15ff81a39ae7d344fd709f28e8600b4aa8c65c6b64bfe7fe36bd19b81018054600160a060020a0390971673ffffffffffffffffffffffffffffffffffffffff19909716969096178655915180519195936106e5937f8a35acfbc15ff81a39ae7d344fd709f28e8600b4aa8c65c6b64bfe7fe36bd19c01929101906113bb565b50604082015160028201556060820151805161070b916004840191602090910190611439565b506080820151816005015560a082015181600601555050507fc0c54fed07481d0998e1446b2c13759606bf4f26b78306307413ac4c4309aa826001600480549050038233604051808481526020018060200183600160a060020a0316600160a060020a03168152602001828103825284818151815260200191508051906020019080838360005b838110156107aa578181015183820152602001610792565b50505050905090810190601f1680156107d75780820380516001836020036101000a031916815260200191505b5094505050505060405180910390a150565b60048054829081106107f757fe5b600091825260209182902060079091020180546001808301805460408051601f6002600019968516156101000296909601909316949094049182018790048702840187019052808352600160a060020a0390931695509293909291908301828280156108a45780601f10610879576101008083540402835291602001916108a4565b820191906000526020600020905b81548152906001019060200180831161088757829003601f168201915b5050505050908060020154908060050154908060060154905085565b60008060006108ce43610a79565b90506000600354905060006004868154811015156108e857fe5b9060005260206000209060070201600601549050600060048781548110151561090d57fe5b9060005260206000209060070201600201549050600060048881548110151561093257fe5b90600052602060002090600702016005015490508460001415156109be575b8385146109925760008481526020819052604090206001810154815460029092015491850394928103909202929092019161098b856109dd565b9350610951565b60008481526020819052604090206001810154905484039391810390910291909101906109be846109dd565b4303820201945092505050915091565b600654600160a060020a031681565b600354811415610a0157600081815260208190526040902060020154600355610a2a565b6000610a0c82610d9b565b60008381526020819052604080822060029081015493835291200155505b5060018054600019019055565b6000600483815481101515610a4857fe5b60009182526020808320600160a060020a038616845260036007909302019190910190526040902054905092915050565b6003546000905b60008181526020819052604090206002015415801590610ab9575060008181526020819052604080822060020154825290206001015483115b15610ad557600090815260208190526040902060020154610a80565b60035481148015610af6575060008181526020819052604090206001015483105b15610b05576000915050610b08565b90505b919050565b610b173383611321565b6004805483908110610b2557fe5b6000918252602080832033845260079290920290910160030181526040808320815180830190925234825260018284018181528254808301808555938752949095208351600295860290910190815594518582018054939694959193909260ff19909116918490811115610b9557fe5b0217905550505050610bb48134811515610bab57fe5b0482430161118f565b50610bbe8261102b565b8034811515610bc957fe5b04600483815481101515610bd957fe5b9060005260206000209060070201600601600082825401925050819055507f2dc91c4e4d98180243940dbb23cbc2a91e58fac7e7c1971f5c1abdda5ad18b7882343360006040518085815260200184815260200183600160a060020a0316600160a060020a03168152602001826002811115610c5157fe5b60ff16815260200194505050505060405180910390a15050565b34600482815481101515610c7b57fe5b6000918252602090912060026007909202010180549091019055610c9f3382611321565b6004805482908110610cad57fe5b60009182526020808320338452600360079093020191909101815260408083208151808301909252348252929091820152815460018181018085556000948552602094859020845160029485029091019081559484015185830180549296949193909260ff1916918490811115610d2057fe5b02179055505050507f2dc91c4e4d98180243940dbb23cbc2a91e58fac7e7c1971f5c1abdda5ad18b7881343360006040518085815260200184815260200183600160a060020a0316600160a060020a03168152602001826002811115610d8257fe5b60ff16815260200194505050505060405180910390a150565b6003546000905b6000818152602081905260409020600201548314610b0557600090815260208190526040902060020154610da2565b6004545b90565b610de23383611321565b600654604080517f23b872dd000000000000000000000000000000000000000000000000000000008152336004820152306024820152604481018490529051600160a060020a03909216916323b872dd916064808201926020929091908290030181600087803b158015610e5557600080fd5b505af1158015610e69573d6000803e3d6000fd5b505050506040513d6020811015610e7f57600080fd5b5050600554600654604080517ff2b9fdb8000000000000000000000000000000000000000000000000000000008152600160a060020a039283166004820152602481018590529051600093929092169163f2b9fdb89160448082019260209290919082900301818787803b158015610ef657600080fd5b505af1158015610f0a573d6000803e3d6000fd5b505050506040513d6020811015610f2057600080fd5b505190508015610f2c57fe5b6004805484908110610f3a57fe5b6000918252602080832033845260079290920290910160030181526040808320815180830190925285825260028284018181528254600180820180865594885295909620845196830201958655518585018054939694959193909260ff1990911691908490811115610fa857fe5b02179055505050507f2dc91c4e4d98180243940dbb23cbc2a91e58fac7e7c1971f5c1abdda5ad18b7883833360026040518085815260200184815260200183600160a060020a0316600160a060020a0316815260200182600281111561100a57fe5b60ff16815260200194505050505060405180910390a1505050565b60035481565b600080611037836108c0565b6004805492945090925083918590811061104d57fe5b9060005260206000209060070201600201819055508060048481548110151561107257fe5b9060005260206000209060070201600601819055504360048481548110151561109757fe5b906000526020600020906007020160050181905550505050565b60006020819052908152604090208054600182015460029092015490919083565b6000806110dd6114a7565b60048054879081106110eb57fe5b60009182526020808320600160a060020a038916845260036007909302019190910190526040902080548590811061111f57fe5b9060005260206000209060020201604080519081016040529081600082015481526020016001820160009054906101000a900460ff16600281111561116057fe5b600281111561116b57fe5b90525080516020909101519097909650945050505050565b60025481565b60015481565b6002805460408051606081018252858152602080820186815260008385018181528682529281905293842092518355516001808401919091559051919094015591549091101561123c5760006111e483610a79565b905080151561120b5760038054600084815260208190526040902060020155829055611236565b6000818152602081905260408082206002908101805486855292842090910191909155908290528290555b50611242565b60038190555b600180548101815560028054909101905592915050565b6060600154604051908082528060200260200182016040528015611287578160200160208202803883390190505b5060035490915060005b600082815260208190526040902060020154156112f05760008281526020819052604090206001015483518490839081106112c857fe5b6020908102909101810191909152600092835282905260409091206002015490600101611291565b600082815260208190526040902060010154835184908390811061131057fe5b602090810290910101525090919050565b600480548290811061132f57fe5b60009182526020808320600160a060020a03861684526003600790930201919091019052604090205415156113b757600480548290811061136c57fe5b600091825260208083206007929092029091016004018054600181018255908352912001805473ffffffffffffffffffffffffffffffffffffffff1916600160a060020a0384161790555b5050565b828054600181600116156101000203166002900490600052602060002090601f016020900481019282601f106113fc57805160ff1916838001178555611429565b82800160010185558215611429579182015b8281111561142957825182559160200191906001019061140e565b506114359291506114be565b5090565b82805482825590600052602060002090810192821561149b579160200282015b8281111561149b578251825473ffffffffffffffffffffffffffffffffffffffff1916600160a060020a03909116178255602090920191600190910190611459565b506114359291506114d8565b604080518082019091526000808252602082015290565b610dd591905b8082111561143557600081556001016114c4565b610dd591905b8082111561143557805473ffffffffffffffffffffffffffffffffffffffff191681556001016114de56fea165627a7a7230582041a680c1891efc2cf6e594ec4e6f2aca0e724d6d0af1b8fac02ab5bfad353be60029",
  "source": "pragma solidity ^0.5.0;\n\nimport \"./Vesting.sol\";\nimport \"./CompoundInterface.sol\";\nimport \"./ERC20.sol\";\n\ncontract Firestarter is Vesting {\n\n\tenum FundType { DirectType, VestingType, CompoundType }\n\n\tstruct Fund {\n\t\tuint amount;\n\t\tFundType fundType;\n\t}\n\n\tstruct Project {\n\t\taddress owner;\n\t\tstring name;\n\t\tuint funds;\n\t\tmapping(address => Fund[]) allFunds;\n\t\taddress[] investors;\n\t\tuint lastUpdate;\n\t\tuint vestRate;\n\t}\n\n\tProject[] public projects;\n\n\t// Rinkeby test deployment\n\tCompoundInterface compound = CompoundInterface(0x61bbd7Bd5EE2A202d7e62519750170A52A8DFD45);\n\taddress public DAI_ADDRESS = 0x4e17c87c52d0E9a0cAd3Fbc53b77d9514F003807;\n\n\tevent ProjectCreated(uint id, string name, address owner);\n\tevent ProjectFunded(uint id, uint amount, address from, FundType fundType);\n\n\tconstructor() public {\n\t\t// ERC20(DAI_ADDRESS).approve(address(compound), uint(-1));\n\t}\n\n\tfunction addProject(string memory _name) public {\n\t\tprojects.push(Project({\n\t\t\t\towner: msg.sender,\n\t\t\t\tname: _name,\n\t\t\t\tfunds: 0,\n\t\t\t\tinvestors: new address[](0),\n\t\t\t\tlastUpdate: block.number,\n\t\t\t\tvestRate: 0\n\t\t\t}));\n\n\t\temit ProjectCreated(projects.length-1, _name, msg.sender);\n\t}\n\t\n\tfunction fundProjectDirectly(uint _id) public payable {\n\t\t\n\t\tprojects[_id].funds += msg.value;\n\n\t\taddInvestorIfNeeded(msg.sender, _id);\n\n\t\tprojects[_id].allFunds[msg.sender].push(Fund({\n\t\t\t\tamount: msg.value,\n\t\t\t\tfundType: FundType.DirectType\n\t\t\t}));\n\n\t\temit ProjectFunded(_id, msg.value, msg.sender, FundType.DirectType);\n\t}\n\n\tfunction fundProjectByVesting(uint _id, uint _numOfBlocks) public payable {\n\t\taddInvestorIfNeeded(msg.sender, _id);\n\n\t\tprojects[_id].allFunds[msg.sender].push(Fund({\n\t\t\t\tamount: msg.value,\n\t\t\t\tfundType: FundType.VestingType\n\t\t\t}));\n\n\t\taddVestingRecord(msg.value / _numOfBlocks, block.number + _numOfBlocks);\n\t\tupdateBalance(_id);\n\t\t\n\t\tprojects[_id].vestRate += msg.value / _numOfBlocks;\n\n\t\temit ProjectFunded(_id, msg.value, msg.sender, FundType.DirectType);\n\t}\n\n\t///@dev Before calling must approve contract to transferFrom Dai\n\tfunction fundProjectByCompound(uint _id, uint _daiAmount) public {\n\t\taddInvestorIfNeeded(msg.sender, _id);\n\n\t\tERC20(DAI_ADDRESS).transferFrom(msg.sender, address(this), _daiAmount);\n\n\t\tuint errCode = compound.supply(DAI_ADDRESS, _daiAmount);\n\n\t\tassert(errCode == 0);\n\n\t\tprojects[_id].allFunds[msg.sender].push(Fund({\n\t\t\tamount: _daiAmount,\n\t\t\tfundType: FundType.CompoundType\n\t\t}));\n        \n        emit ProjectFunded(_id, _daiAmount, msg.sender, FundType.CompoundType);\n\t}\n\n\tfunction updateBalance(uint _id) public {\n\t\tuint balance;\n\t\tuint rate;\n\t\t(balance, rate) = getNewBalanceAndRate(_id);\n\n\t\tprojects[_id].funds = balance;\n\t\tprojects[_id].vestRate = rate;\n\t\tprojects[_id].lastUpdate = block.number;\n\t}\n\n\tfunction getNewBalanceAndRate(uint _id) public returns(uint, uint) {\n\t\tuint previous = findPrevious(block.number);\n\n\t\tuint curr = firstVestingRecord;\n\t\tuint rate = projects[_id].vestRate;\n\t\tuint balance = projects[_id].funds;\n\t\tuint lastUpdate = projects[_id].lastUpdate;\n\n\t\tif (previous != 0) {\n\t\t\twhile (curr != previous) {\n\t\t\t\tbalance += (allVestings[curr].block - lastUpdate) * rate;\n\t\t\t\trate -= allVestings[curr].rate;\n\t\t\t\tlastUpdate = allVestings[curr].block;\n\n\t\t\t\tuint next = allVestings[curr].next;\n\t\t\t\tremoveVestingRecord(curr);\n\t\t\t\tcurr = next;\n\t\t\t}\n\t\t\t\n\t\t\tbalance += (allVestings[curr].block - lastUpdate) * rate;\n\t\t\trate -= allVestings[curr].rate;\n\t\t\tlastUpdate = allVestings[curr].block;\n\n\t\t\tremoveVestingRecord(curr);\n\t\t} \n\n\t\tbalance += (block.number - lastUpdate) * rate;\n\n\t\treturn (balance, rate);\n\t}\n\n\tfunction addInvestorIfNeeded(address _user, uint _projectId) internal {\n\t\t//needs to change this in future\n\n\t\tif (projects[_projectId].allFunds[_user].length == 0) {\n\t\t\tprojects[_projectId].investors.push(_user);\n\t\t}\n\t}\n\n\tfunction totalProjects() public view returns(uint) {\n\t\treturn projects.length;\n\t}\n\n\tfunction totalFunds(uint _projectId, address _from) public view returns(uint) {\n\t\treturn projects[_projectId].allFunds[_from].length;\n\t}\n\n\tfunction getFund(uint _projectId, address _from, uint _fundId) public view returns(uint amount, FundType fundType) {\n\t    Fund memory fund = projects[_projectId].allFunds[_from][_fundId];\n\t\treturn (fund.amount, fund.fundType);\n\t}\n\t\n\n\n}\n",
  "sourcePath": "/Users/nenadpalinkasevic/Desktop/blockchain/Firestarter/contracts/Firestarter.sol",
  "compiler": {
    "name": "solc",
    "version": "0.5.0+commit.1d4f565a.Emscripten.clang"
  },
  "schemaVersion": "3.0.0",
  "updatedAt": "2019-03-09T09:51:49.835Z",
  "devdoc": {
    "methods": {
      "fundProjectByCompound(uint256,uint256)": {
        "details": "Before calling must approve contract to transferFrom Dai"
      }
    }
  },
  "userdoc": {
    "methods": {}
  }
}