{
  "contractName": "FirestarterProjectClient",
  "abi": [
    {
      "constant": true,
      "inputs": [],
      "name": "name",
      "outputs": [
        {
          "name": "",
          "type": "string"
        }
      ],
      "payable": false,
      "stateMutability": "view",
      "type": "function"
    },
    {
      "constant": true,
      "inputs": [],
      "name": "vestRate",
      "outputs": [
        {
          "name": "",
          "type": "uint256"
        }
      ],
      "payable": false,
      "stateMutability": "view",
      "type": "function"
    },
    {
      "constant": true,
      "inputs": [
        {
          "name": "",
          "type": "uint256"
        }
      ],
      "name": "allWithdraws",
      "outputs": [
        {
          "name": "ethAmount",
          "type": "uint256"
        },
        {
          "name": "daiAmount",
          "type": "uint256"
        },
        {
          "name": "message",
          "type": "string"
        }
      ],
      "payable": false,
      "stateMutability": "view",
      "type": "function"
    },
    {
      "constant": true,
      "inputs": [],
      "name": "DAI_ADDRESS",
      "outputs": [
        {
          "name": "",
          "type": "address"
        }
      ],
      "payable": false,
      "stateMutability": "view",
      "type": "function"
    },
    {
      "constant": true,
      "inputs": [
        {
          "name": "",
          "type": "uint256"
        }
      ],
      "name": "investors",
      "outputs": [
        {
          "name": "",
          "type": "address"
        }
      ],
      "payable": false,
      "stateMutability": "view",
      "type": "function"
    },
    {
      "constant": true,
      "inputs": [],
      "name": "manager",
      "outputs": [
        {
          "name": "",
          "type": "address"
        }
      ],
      "payable": false,
      "stateMutability": "view",
      "type": "function"
    },
    {
      "constant": true,
      "inputs": [],
      "name": "daiWithdrawn",
      "outputs": [
        {
          "name": "",
          "type": "uint256"
        }
      ],
      "payable": false,
      "stateMutability": "view",
      "type": "function"
    },
    {
      "constant": true,
      "inputs": [],
      "name": "HOUSE_COMMISSION",
      "outputs": [
        {
          "name": "",
          "type": "uint256"
        }
      ],
      "payable": false,
      "stateMutability": "view",
      "type": "function"
    },
    {
      "constant": true,
      "inputs": [
        {
          "name": "_block",
          "type": "uint256"
        }
      ],
      "name": "findPrevious",
      "outputs": [
        {
          "name": "",
          "type": "uint256"
        }
      ],
      "payable": false,
      "stateMutability": "view",
      "type": "function"
    },
    {
      "constant": true,
      "inputs": [],
      "name": "currentDaiFunds",
      "outputs": [
        {
          "name": "",
          "type": "uint256"
        }
      ],
      "payable": false,
      "stateMutability": "view",
      "type": "function"
    },
    {
      "constant": true,
      "inputs": [],
      "name": "owner",
      "outputs": [
        {
          "name": "",
          "type": "address"
        }
      ],
      "payable": false,
      "stateMutability": "view",
      "type": "function"
    },
    {
      "constant": false,
      "inputs": [
        {
          "name": "_rate",
          "type": "uint256"
        },
        {
          "name": "_block",
          "type": "uint256"
        }
      ],
      "name": "removeVestingRecordWithRateAndBlock",
      "outputs": [],
      "payable": false,
      "stateMutability": "nonpayable",
      "type": "function"
    },
    {
      "constant": true,
      "inputs": [],
      "name": "totalFunds",
      "outputs": [
        {
          "name": "",
          "type": "uint256"
        }
      ],
      "payable": false,
      "stateMutability": "view",
      "type": "function"
    },
    {
      "constant": true,
      "inputs": [
        {
          "name": "_id",
          "type": "uint256"
        }
      ],
      "name": "findPreviousWithId",
      "outputs": [
        {
          "name": "",
          "type": "uint256"
        }
      ],
      "payable": false,
      "stateMutability": "view",
      "type": "function"
    },
    {
      "constant": true,
      "inputs": [
        {
          "name": "",
          "type": "address"
        },
        {
          "name": "",
          "type": "uint256"
        }
      ],
      "name": "allFunds",
      "outputs": [
        {
          "name": "amount",
          "type": "uint256"
        },
        {
          "name": "fundType",
          "type": "uint8"
        },
        {
          "name": "start",
          "type": "uint256"
        },
        {
          "name": "canceled",
          "type": "uint256"
        },
        {
          "name": "end",
          "type": "uint256"
        }
      ],
      "payable": false,
      "stateMutability": "view",
      "type": "function"
    },
    {
      "constant": true,
      "inputs": [],
      "name": "firstVestingRecord",
      "outputs": [
        {
          "name": "",
          "type": "uint256"
        }
      ],
      "payable": false,
      "stateMutability": "view",
      "type": "function"
    },
    {
      "constant": true,
      "inputs": [],
      "name": "id",
      "outputs": [
        {
          "name": "",
          "type": "uint256"
        }
      ],
      "payable": false,
      "stateMutability": "view",
      "type": "function"
    },
    {
      "constant": true,
      "inputs": [],
      "name": "ethWithdrawn",
      "outputs": [
        {
          "name": "",
          "type": "uint256"
        }
      ],
      "payable": false,
      "stateMutability": "view",
      "type": "function"
    },
    {
      "constant": true,
      "inputs": [
        {
          "name": "",
          "type": "uint256"
        }
      ],
      "name": "allVestings",
      "outputs": [
        {
          "name": "rate",
          "type": "uint256"
        },
        {
          "name": "block",
          "type": "uint256"
        },
        {
          "name": "next",
          "type": "uint256"
        }
      ],
      "payable": false,
      "stateMutability": "view",
      "type": "function"
    },
    {
      "constant": true,
      "inputs": [],
      "name": "lastUpdate",
      "outputs": [
        {
          "name": "",
          "type": "uint256"
        }
      ],
      "payable": false,
      "stateMutability": "view",
      "type": "function"
    },
    {
      "constant": true,
      "inputs": [],
      "name": "maxId",
      "outputs": [
        {
          "name": "",
          "type": "uint256"
        }
      ],
      "payable": false,
      "stateMutability": "view",
      "type": "function"
    },
    {
      "constant": true,
      "inputs": [],
      "name": "totalVestings",
      "outputs": [
        {
          "name": "",
          "type": "uint256"
        }
      ],
      "payable": false,
      "stateMutability": "view",
      "type": "function"
    },
    {
      "constant": true,
      "inputs": [],
      "name": "totalWithdraws",
      "outputs": [
        {
          "name": "",
          "type": "uint256"
        }
      ],
      "payable": false,
      "stateMutability": "view",
      "type": "function"
    },
    {
      "constant": true,
      "inputs": [],
      "name": "getArr",
      "outputs": [
        {
          "name": "arr",
          "type": "uint256[]"
        }
      ],
      "payable": false,
      "stateMutability": "view",
      "type": "function"
    },
    {
      "anonymous": false,
      "inputs": [
        {
          "indexed": true,
          "name": "id",
          "type": "uint256"
        },
        {
          "indexed": false,
          "name": "amount",
          "type": "uint256"
        },
        {
          "indexed": false,
          "name": "from",
          "type": "address"
        },
        {
          "indexed": false,
          "name": "fundType",
          "type": "uint8"
        }
      ],
      "name": "ProjectFunded",
      "type": "event"
    },
    {
      "anonymous": false,
      "inputs": [
        {
          "indexed": true,
          "name": "id",
          "type": "uint256"
        },
        {
          "indexed": false,
          "name": "ethAmount",
          "type": "uint256"
        },
        {
          "indexed": false,
          "name": "daiAmount",
          "type": "uint256"
        },
        {
          "indexed": false,
          "name": "message",
          "type": "string"
        }
      ],
      "name": "ProjectWithdraw",
      "type": "event"
    }
  ],
  "bytecode": "0x6080604052600160025560138054600160a060020a03199081167361bbd7bd5ee2a202d7e62519750170a52a8dfd451790915560148054909116734e17c87c52d0e9a0cad3fbc53b77d9514f00380717905534801561005d57600080fd5b506109ee8061006d6000396000f3fe608060405234801561001057600080fd5b5060043610610175576000357c010000000000000000000000000000000000000000000000000000000090048063968ed600116100e0578063bf5a138311610099578063bf5a138314610422578063c04637111461045d578063c5ea3c6514610465578063d7ba691e1461046d578063e91ac26814610475578063fb8cbced1461047d57610175565b8063968ed6001461036c5780639c328a4814610374578063a0058fb714610391578063a8184b641461040a578063af640d0f14610412578063b86f9b6b1461041a57610175565b80635645c4a4116101325780635645c4a41461030a5780635eba1123146103125780636f3710951461031a57806376e08124146103375780638da5cb5b1461033f578063950deaef1461034757610175565b806306fdde031461017a5780630b7c3b83146101f757806328917695146102115780632a4c0a1a146102b45780633feb5f2b146102e5578063481c6a7514610302575b600080fd5b6101826104d5565b6040805160208082528351818301528351919283929083019185019080838360005b838110156101bc5781810151838201526020016101a4565b50505050905090810190601f1680156101e95780820380516001836020036101000a031916815260200191505b509250505060405180910390f35b6101ff610563565b60408051918252519081900360200190f35b61022e6004803603602081101561022757600080fd5b5035610569565b6040518084815260200183815260200180602001828103825283818151815260200191508051906020019080838360005b8381101561027757818101518382015260200161025f565b50505050905090810190601f1680156102a45780820380516001836020036101000a031916815260200191505b5094505050505060405180910390f35b6102bc610612565b6040805173ffffffffffffffffffffffffffffffffffffffff9092168252519081900360200190f35b6102bc600480360360208110156102fb57600080fd5b503561062e565b6102bc610663565b6101ff61067f565b6101ff610685565b6101ff6004803603602081101561033057600080fd5b503561068b565b6101ff61071f565b6102bc610725565b61036a6004803603604081101561035d57600080fd5b5080359060200135610741565b005b6101ff6107c8565b6101ff6004803603602081101561038a57600080fd5b50356107ce565b6103ca600480360360408110156103a757600080fd5b5073ffffffffffffffffffffffffffffffffffffffff8135169060200135610804565b604051808681526020018560028111156103e057fe5b60ff1681526020018481526020018381526020018281526020019550505050505060405180910390f35b6101ff610855565b6101ff61085b565b6101ff610861565b61043f6004803603602081101561043857600080fd5b5035610867565b60408051938452602084019290925282820152519081900360600190f35b6101ff610888565b6101ff61088e565b6101ff610894565b6101ff61089a565b6104856108a0565b60408051602080825283518183015283519192839290830191858101910280838360005b838110156104c15781810151838201526020016104a9565b505050509050019250505060405180910390f35b6006805460408051602060026001851615610100026000190190941693909304601f8101849004840282018401909252818152929183018282801561055b5780601f106105305761010080835404028352916020019161055b565b820191906000526020600020905b81548152906001019060200180831161053e57829003601f168201915b505050505081565b600f5481565b600c6020908152600091825260409182902080546001808301546002808501805488519481161561010002600019011691909104601f8101879004870284018701909752868352929590949192918301828280156106085780601f106105dd57610100808354040283529160200191610608565b820191906000526020600020905b8154815290600101906020018083116105eb57829003601f168201915b5050505050905083565b60145473ffffffffffffffffffffffffffffffffffffffff1681565b601280548290811061063c57fe5b60009182526020909120015473ffffffffffffffffffffffffffffffffffffffff16905081565b60045473ffffffffffffffffffffffffffffffffffffffff1681565b60115481565b60085481565b6003546000905b600081815260208190526040902060020154158015906106cb575060008181526020819052604080822060020154825290206001015483115b156106e757600090815260208190526040902060020154610692565b60035481148015610708575060008181526020819052604090206001015483105b1561071757600091505061071a565b90505b919050565b600a5481565b60055473ffffffffffffffffffffffffffffffffffffffff1681565b60035460005b600082815260208190526040902060020154156107b0576000828152602081905260409020548414801561078b575060008281526020819052604090206001015483145b156107975750806107b0565b6000918252602082905260409091206002015490610747565b60008111156107c2576107c281610968565b50505050565b60095481565b6003546000905b6000818152602081905260409020600201548314610717576000908152602081905260409020600201546107d5565b600b6020528160005260406000208181548110151561081f57fe5b60009182526020909120600590910201805460018201546002830154600384015460049094015492955060ff9091169350919085565b60035481565b60075481565b60105481565b60006020819052908152604090208054600182015460029092015490919083565b600e5481565b60025481565b60015481565b600d5481565b60606001546040519080825280602002602001820160405280156108ce578160200160208202803883390190505b5060035490915060005b6000828152602081905260409020600201541561093757600082815260208190526040902060010154835184908390811061090f57fe5b60209081029091018101919091526000928352829052604090912060020154906001016108d8565b600082815260208190526040902060010154835184908390811061095757fe5b602090810290910101525090919050565b60035481141561098c576000818152602081905260409020600201546003556109b5565b6000610997826107ce565b60008381526020819052604080822060029081015493835291200155505b506001805460001901905556fea165627a7a72305820f0d89ac3b752b5a74a08c328a9c453cc8ca374648b82214d7f5e58db1c25b6930029",
  "source": "pragma solidity ^0.5.0;\n\nimport \"./IFirestarterProject.sol\";\n\n\n// this should be contract that will have all getters for all Firestarter projects\n// when you want to get data for some project you call method with contract address \n// and it returns whatever you need (all view methods from previous Firestarter.sol)\ncontract FirestarterProjectClient is IFirestarterProject {\n\n}",
  "sourcePath": "/Users/nikolaklipa/Hakaton/Firestarter/contracts/v2/FirestarterProjectClient.sol",
  "compiler": {
    "name": "solc",
    "version": "0.5.4+commit.9549d8ff.Emscripten.clang"
  },
  "schemaVersion": "3.0.2",
  "updatedAt": "2019-03-27T20:18:54.352Z",
  "devdoc": {
    "methods": {}
  },
  "userdoc": {
    "methods": {}
  }
}