{
  "contractName": "Firestarter",
  "abi": [
    {
      "constant": true,
      "inputs": [
        {
          "name": "",
          "type": "uint256"
        }
      ],
      "name": "projects",
      "outputs": [
        {
          "name": "owner",
          "type": "address"
        },
        {
          "name": "name",
          "type": "string"
        },
        {
          "name": "funds",
          "type": "uint256"
        },
        {
          "name": "lastUpdate",
          "type": "uint256"
        },
        {
          "name": "vestRate",
          "type": "uint256"
        }
      ],
      "payable": false,
      "stateMutability": "view",
      "type": "function"
    },
    {
      "constant": false,
      "inputs": [
        {
          "name": "_id",
          "type": "uint256"
        }
      ],
      "name": "removeVestingRecord",
      "outputs": [],
      "payable": false,
      "stateMutability": "nonpayable",
      "type": "function"
    },
    {
      "constant": true,
      "inputs": [
        {
          "name": "_block",
          "type": "uint256"
        }
      ],
      "name": "findPrevious",
      "outputs": [
        {
          "name": "",
          "type": "uint256"
        }
      ],
      "payable": false,
      "stateMutability": "view",
      "type": "function"
    },
    {
      "constant": true,
      "inputs": [
        {
          "name": "_id",
          "type": "uint256"
        }
      ],
      "name": "findPreviousWithId",
      "outputs": [
        {
          "name": "",
          "type": "uint256"
        }
      ],
      "payable": false,
      "stateMutability": "view",
      "type": "function"
    },
    {
      "constant": true,
      "inputs": [],
      "name": "firstVestingRecord",
      "outputs": [
        {
          "name": "",
          "type": "uint256"
        }
      ],
      "payable": false,
      "stateMutability": "view",
      "type": "function"
    },
    {
      "constant": true,
      "inputs": [
        {
          "name": "",
          "type": "uint256"
        }
      ],
      "name": "allVestings",
      "outputs": [
        {
          "name": "rate",
          "type": "uint256"
        },
        {
          "name": "block",
          "type": "uint256"
        },
        {
          "name": "next",
          "type": "uint256"
        }
      ],
      "payable": false,
      "stateMutability": "view",
      "type": "function"
    },
    {
      "constant": true,
      "inputs": [],
      "name": "maxId",
      "outputs": [
        {
          "name": "",
          "type": "uint256"
        }
      ],
      "payable": false,
      "stateMutability": "view",
      "type": "function"
    },
    {
      "constant": true,
      "inputs": [],
      "name": "totalVestings",
      "outputs": [
        {
          "name": "",
          "type": "uint256"
        }
      ],
      "payable": false,
      "stateMutability": "view",
      "type": "function"
    },
    {
      "constant": false,
      "inputs": [
        {
          "name": "_rate",
          "type": "uint256"
        },
        {
          "name": "_block",
          "type": "uint256"
        }
      ],
      "name": "addVestingRecord",
      "outputs": [
        {
          "name": "id",
          "type": "uint256"
        }
      ],
      "payable": false,
      "stateMutability": "nonpayable",
      "type": "function"
    },
    {
      "constant": true,
      "inputs": [],
      "name": "getArr",
      "outputs": [
        {
          "name": "arr",
          "type": "uint256[]"
        }
      ],
      "payable": false,
      "stateMutability": "view",
      "type": "function"
    },
    {
      "anonymous": false,
      "inputs": [
        {
          "indexed": false,
          "name": "id",
          "type": "uint256"
        },
        {
          "indexed": false,
          "name": "name",
          "type": "string"
        },
        {
          "indexed": false,
          "name": "owner",
          "type": "address"
        }
      ],
      "name": "ProjectCreated",
      "type": "event"
    },
    {
      "anonymous": false,
      "inputs": [
        {
          "indexed": false,
          "name": "id",
          "type": "uint256"
        },
        {
          "indexed": false,
          "name": "amount",
          "type": "uint256"
        },
        {
          "indexed": false,
          "name": "from",
          "type": "address"
        },
        {
          "indexed": false,
          "name": "fundType",
          "type": "uint8"
        }
      ],
      "name": "ProjectFunded",
      "type": "event"
    },
    {
      "constant": false,
      "inputs": [
        {
          "name": "_name",
          "type": "string"
        }
      ],
      "name": "addProject",
      "outputs": [],
      "payable": false,
      "stateMutability": "nonpayable",
      "type": "function"
    },
    {
      "constant": false,
      "inputs": [
        {
          "name": "_id",
          "type": "uint256"
        }
      ],
      "name": "fundProjectDirectly",
      "outputs": [],
      "payable": true,
      "stateMutability": "payable",
      "type": "function"
    },
    {
      "constant": false,
      "inputs": [
        {
          "name": "_id",
          "type": "uint256"
        },
        {
          "name": "_numOfBlocks",
          "type": "uint256"
        }
      ],
      "name": "fundProjectByVesting",
      "outputs": [],
      "payable": true,
      "stateMutability": "payable",
      "type": "function"
    },
    {
      "constant": false,
      "inputs": [
        {
          "name": "_id",
          "type": "uint256"
        }
      ],
      "name": "updateBalance",
      "outputs": [],
      "payable": false,
      "stateMutability": "nonpayable",
      "type": "function"
    },
    {
      "constant": false,
      "inputs": [
        {
          "name": "_id",
          "type": "uint256"
        }
      ],
      "name": "getNewBalanceAndRate",
      "outputs": [
        {
          "name": "",
          "type": "uint256"
        },
        {
          "name": "",
          "type": "uint256"
        }
      ],
      "payable": false,
      "stateMutability": "nonpayable",
      "type": "function"
    },
    {
      "constant": true,
      "inputs": [],
      "name": "totalProjects",
      "outputs": [
        {
          "name": "",
          "type": "uint256"
        }
      ],
      "payable": false,
      "stateMutability": "view",
      "type": "function"
    },
    {
      "constant": true,
      "inputs": [
        {
          "name": "_projectId",
          "type": "uint256"
        },
        {
          "name": "_from",
          "type": "address"
        }
      ],
      "name": "totalFunds",
      "outputs": [
        {
          "name": "",
          "type": "uint256"
        }
      ],
      "payable": false,
      "stateMutability": "view",
      "type": "function"
    },
    {
      "constant": true,
      "inputs": [
        {
          "name": "_projectId",
          "type": "uint256"
        },
        {
          "name": "_from",
          "type": "address"
        },
        {
          "name": "_fundId",
          "type": "uint256"
        }
      ],
      "name": "getFund",
      "outputs": [
        {
          "name": "amount",
          "type": "uint256"
        },
        {
          "name": "fundType",
          "type": "uint8"
        }
      ],
      "payable": false,
      "stateMutability": "view",
      "type": "function"
    }
  ],
  "bytecode": "0x6080604052600160025534801561001557600080fd5b50611262806100256000396000f3fe6080604052600436106100fb5763ffffffff7c01000000000000000000000000000000000000000000000000000000006000350416630ed047d48114610100578063107046bd146101b557806328f91a1214610285578063416bb0d7146102c857806343f4c44f146102f25780636f3710951461033d57806376ca670d146103675780637f4054de1461038a5780639c328a48146103a75780639c361e4e146103d1578063a8184b64146103e6578063ba7b37d4146103fb578063bf5a138314610425578063c588724b1461046d578063c5ea3c65146104d7578063d7ba691e146104ec578063facbe90c14610501578063fb8cbced14610531575b600080fd5b34801561010c57600080fd5b506101b36004803603602081101561012357600080fd5b81019060208101813564010000000081111561013e57600080fd5b82018360208201111561015057600080fd5b8035906020019184600183028401116401000000008311171561017257600080fd5b91908080601f016020809104026020016040519081016040528093929190818152602001838380828437600092019190915250929550610596945050505050565b005b3480156101c157600080fd5b506101df600480360360208110156101d857600080fd5b5035610772565b6040518086600160a060020a0316600160a060020a0316815260200180602001858152602001848152602001838152602001828103825286818151815260200191508051906020019080838360005b8381101561024657818101518382015260200161022e565b50505050905090810190601f1680156102735780820380516001836020036101000a031916815260200191505b50965050505050505060405180910390f35b34801561029157600080fd5b506102af600480360360208110156102a857600080fd5b5035610849565b6040805192835260208301919091528051918290030190f35b3480156102d457600080fd5b506101b3600480360360208110156102eb57600080fd5b5035610957565b3480156102fe57600080fd5b5061032b6004803603604081101561031557600080fd5b5080359060200135600160a060020a03166109b1565b60408051918252519081900360200190f35b34801561034957600080fd5b5061032b6004803603602081101561036057600080fd5b50356109f3565b6101b36004803603604081101561037d57600080fd5b5080359060200135610a87565b6101b3600480360360208110156103a057600080fd5b5035610be5565b3480156103b357600080fd5b5061032b600480360360208110156103ca57600080fd5b5035610d15565b3480156103dd57600080fd5b5061032b610d4b565b3480156103f257600080fd5b5061032b610d52565b34801561040757600080fd5b506101b36004803603602081101561041e57600080fd5b5035610d58565b34801561043157600080fd5b5061044f6004803603602081101561044857600080fd5b5035610dde565b60408051938452602084019290925282820152519081900360600190f35b34801561047957600080fd5b506104ac6004803603606081101561049057600080fd5b50803590600160a060020a036020820135169060400135610dff565b604051808381526020018260028111156104c257fe5b60ff1681526020019250505060405180910390f35b3480156104e357600080fd5b5061032b610eb0565b3480156104f857600080fd5b5061032b610eb6565b34801561050d57600080fd5b5061032b6004803603604081101561052457600080fd5b5080359060200135610ebc565b34801561053d57600080fd5b50610546610f86565b60408051602080825283518183015283519192839290830191858101910280838360005b8381101561058257818101518382015260200161056a565b505050509050019250505060405180910390f35b6040805160c081018252338152602080820184815260008385018190528451818152808401909552606084019490945243608084015260a08301849052600480546001810180835591909552835160079095027f8a35acfbc15ff81a39ae7d344fd709f28e8600b4aa8c65c6b64bfe7fe36bd19b81018054600160a060020a0390971673ffffffffffffffffffffffffffffffffffffffff199097169690961786559151805191959361066e937f8a35acfbc15ff81a39ae7d344fd709f28e8600b4aa8c65c6b64bfe7fe36bd19c01929101906110e8565b506040820151600282015560608201518051610694916004840191602090910190611166565b506080820151816005015560a082015181600601555050507fc0c54fed07481d0998e1446b2c13759606bf4f26b78306307413ac4c4309aa826001600480549050038233604051808481526020018060200183600160a060020a0316600160a060020a03168152602001828103825284818151815260200191508051906020019080838360005b8381101561073357818101518382015260200161071b565b50505050905090810190601f1680156107605780820380516001836020036101000a031916815260200191505b5094505050505060405180910390a150565b600480548290811061078057fe5b600091825260209182902060079091020180546001808301805460408051601f6002600019968516156101000296909601909316949094049182018790048702840187019052808352600160a060020a03909316955092939092919083018282801561082d5780601f106108025761010080835404028352916020019161082d565b820191906000526020600020905b81548152906001019060200180831161081057829003601f168201915b5050505050908060020154908060050154908060060154905085565b6000806000610857436109f3565b905060006003549050600060048681548110151561087157fe5b9060005260206000209060070201600601549050600060048781548110151561089657fe5b906000526020600020906007020160020154905060006004888154811015156108bb57fe5b9060005260206000209060070201600501549050846000141515610947575b83851461091b5760008481526020819052604090206001810154815460029092015491850394928103909202929092019161091485610957565b93506108da565b600084815260208190526040902060018101549054840393918103909102919091019061094784610957565b4303820201945092505050915091565b60035481141561097b576000818152602081905260409020600201546003556109a4565b600061098682610d15565b60008381526020819052604080822060029081015493835291200155505b5060018054600019019055565b60006004838154811015156109c257fe5b60009182526020808320600160a060020a038616845260036007909302019190910190526040902054905092915050565b6003546000905b60008181526020819052604090206002015415801590610a33575060008181526020819052604080822060020154825290206001015483115b15610a4f576000908152602081905260409020600201546109fa565b60035481148015610a70575060008181526020819052604090206001015483105b15610a7f576000915050610a82565b90505b919050565b610a91338361104e565b6004805483908110610a9f57fe5b6000918252602080832033845260079290920290910160030181526040808320815180830190925234825260018284018181528254808301808555938752949095208351600295860290910190815594518582018054939694959193909260ff19909116918490811115610b0f57fe5b0217905550505050610b2e8134811515610b2557fe5b04824301610ebc565b50610b3882610d58565b8034811515610b4357fe5b04600483815481101515610b5357fe5b9060005260206000209060070201600601600082825401925050819055507f2dc91c4e4d98180243940dbb23cbc2a91e58fac7e7c1971f5c1abdda5ad18b7882343360006040518085815260200184815260200183600160a060020a0316600160a060020a03168152602001826002811115610bcb57fe5b60ff16815260200194505050505060405180910390a15050565b34600482815481101515610bf557fe5b6000918252602090912060026007909202010180549091019055610c19338261104e565b6004805482908110610c2757fe5b60009182526020808320338452600360079093020191909101815260408083208151808301909252348252929091820152815460018181018085556000948552602094859020845160029485029091019081559484015185830180549296949193909260ff1916918490811115610c9a57fe5b02179055505050507f2dc91c4e4d98180243940dbb23cbc2a91e58fac7e7c1971f5c1abdda5ad18b7881343360006040518085815260200184815260200183600160a060020a0316600160a060020a03168152602001826002811115610cfc57fe5b60ff16815260200194505050505060405180910390a150565b6003546000905b6000818152602081905260409020600201548314610a7f57600090815260208190526040902060020154610d1c565b6004545b90565b60035481565b600080610d6483610849565b60048054929450909250839185908110610d7a57fe5b90600052602060002090600702016002018190555080600484815481101515610d9f57fe5b90600052602060002090600702016006018190555043600484815481101515610dc457fe5b906000526020600020906007020160050181905550505050565b60006020819052908152604090208054600182015460029092015490919083565b600080610e0a6111d4565b6004805487908110610e1857fe5b60009182526020808320600160a060020a0389168452600360079093020191909101905260409020805485908110610e4c57fe5b9060005260206000209060020201604080519081016040529081600082015481526020016001820160009054906101000a900460ff166002811115610e8d57fe5b6002811115610e9857fe5b90525080516020909101519097909650945050505050565b60025481565b60015481565b60028054604080516060810182528581526020808201868152600083850181815286825292819052938420925183555160018084019190915590519190940155915490911015610f69576000610f11836109f3565b9050801515610f385760038054600084815260208190526040902060020155829055610f63565b6000818152602081905260408082206002908101805486855292842090910191909155908290528290555b50610f6f565b60038190555b600180548101815560028054909101905592915050565b6060600154604051908082528060200260200182016040528015610fb4578160200160208202803883390190505b5060035490915060005b6000828152602081905260409020600201541561101d576000828152602081905260409020600101548351849083908110610ff557fe5b6020908102909101810191909152600092835282905260409091206002015490600101610fbe565b600082815260208190526040902060010154835184908390811061103d57fe5b602090810290910101525090919050565b600480548290811061105c57fe5b60009182526020808320600160a060020a03861684526003600790930201919091019052604090205415156110e457600480548290811061109957fe5b600091825260208083206007929092029091016004018054600181018255908352912001805473ffffffffffffffffffffffffffffffffffffffff1916600160a060020a0384161790555b5050565b828054600181600116156101000203166002900490600052602060002090601f016020900481019282601f1061112957805160ff1916838001178555611156565b82800160010185558215611156579182015b8281111561115657825182559160200191906001019061113b565b506111629291506111eb565b5090565b8280548282559060005260206000209081019282156111c8579160200282015b828111156111c8578251825473ffffffffffffffffffffffffffffffffffffffff1916600160a060020a03909116178255602090920191600190910190611186565b50611162929150611205565b604080518082019091526000808252602082015290565b610d4f91905b8082111561116257600081556001016111f1565b610d4f91905b8082111561116257805473ffffffffffffffffffffffffffffffffffffffff1916815560010161120b56fea165627a7a72305820ee63ae48ca696d0fd3903535e753ac5dfbc843956312743d9d2654818626458d0029",
  "source": "pragma solidity ^0.5.0;\n\nimport \"./Vesting.sol\";\n\ncontract Firestarter is Vesting {\n\n\tenum FundType { DirectType, VestingType, CompoundType }\n\n\tstruct Fund {\n\t\tuint amount;\n\t\tFundType fundType;\n\t}\n\n\tstruct Project {\n\t\taddress owner;\n\t\tstring name;\n\t\tuint funds;\n\t\tmapping(address => Fund[]) allFunds;\n\t\taddress[] investors;\n\t\tuint lastUpdate;\n\t\tuint vestRate;\n\t}\n\n\tProject[] public projects;\n\n\tevent ProjectCreated(uint id, string name, address owner);\n\tevent ProjectFunded(uint id, uint amount, address from, FundType fundType);\n\n\tfunction addProject(string memory _name) public {\n\t\tprojects.push(Project({\n\t\t\t\towner: msg.sender,\n\t\t\t\tname: _name,\n\t\t\t\tfunds: 0,\n\t\t\t\tinvestors: new address[](0),\n\t\t\t\tlastUpdate: block.number,\n\t\t\t\tvestRate: 0\n\t\t\t}));\n\n\t\temit ProjectCreated(projects.length-1, _name, msg.sender);\n\t}\n\t\n\tfunction fundProjectDirectly(uint _id) public payable {\n\t\t\n\t\tprojects[_id].funds += msg.value;\n\n\t\taddInvestorIfNeeded(msg.sender, _id);\n\n\t\tprojects[_id].allFunds[msg.sender].push(Fund({\n\t\t\t\tamount: msg.value,\n\t\t\t\tfundType: FundType.DirectType\n\t\t\t}));\n\n\t\temit ProjectFunded(_id, msg.value, msg.sender, FundType.DirectType);\n\t}\n\n\tfunction fundProjectByVesting(uint _id, uint _numOfBlocks) public payable {\n\t\taddInvestorIfNeeded(msg.sender, _id);\n\n\t\tprojects[_id].allFunds[msg.sender].push(Fund({\n\t\t\t\tamount: msg.value,\n\t\t\t\tfundType: FundType.VestingType\n\t\t\t}));\n\n\t\taddVestingRecord(msg.value / _numOfBlocks, block.number + _numOfBlocks);\n\t\tupdateBalance(_id);\n\t\t\n\t\tprojects[_id].vestRate += msg.value / _numOfBlocks;\n\n\t\temit ProjectFunded(_id, msg.value, msg.sender, FundType.DirectType);\n\t}\n\n\tfunction updateBalance(uint _id) public {\n\t\tuint balance;\n\t\tuint rate;\n\t\t(balance, rate) = getNewBalanceAndRate(_id);\n\n\t\tprojects[_id].funds = balance;\n\t\tprojects[_id].vestRate = rate;\n\t\tprojects[_id].lastUpdate = block.number;\n\t}\n\n\tfunction getNewBalanceAndRate(uint _id) public returns(uint, uint) {\n\t\tuint previous = findPrevious(block.number);\n\n\t\tuint curr = firstVestingRecord;\n\t\tuint rate = projects[_id].vestRate;\n\t\tuint balance = projects[_id].funds;\n\t\tuint lastUpdate = projects[_id].lastUpdate;\n\n\t\tif (previous != 0) {\n\t\t\twhile (curr != previous) {\n\t\t\t\tbalance += (allVestings[curr].block - lastUpdate) * rate;\n\t\t\t\trate -= allVestings[curr].rate;\n\t\t\t\tlastUpdate = allVestings[curr].block;\n\n\t\t\t\tuint next = allVestings[curr].next;\n\t\t\t\tremoveVestingRecord(curr);\n\t\t\t\tcurr = next;\n\t\t\t}\n\t\t\t\n\t\t\tbalance += (allVestings[curr].block - lastUpdate) * rate;\n\t\t\trate -= allVestings[curr].rate;\n\t\t\tlastUpdate = allVestings[curr].block;\n\n\t\t\tremoveVestingRecord(curr);\n\t\t} \n\n\t\tbalance += (block.number - lastUpdate) * rate;\n\n\t\treturn (balance, rate);\n\t}\n\n\tfunction addInvestorIfNeeded(address _user, uint _projectId) internal {\n\t\t//needs to change this in future\n\n\t\tif (projects[_projectId].allFunds[_user].length == 0) {\n\t\t\tprojects[_projectId].investors.push(_user);\n\t\t}\n\t}\n\n\tfunction totalProjects() public view returns(uint) {\n\t\treturn projects.length;\n\t}\n\n\tfunction totalFunds(uint _projectId, address _from) public view returns(uint) {\n\t\treturn projects[_projectId].allFunds[_from].length;\n\t}\n\n\tfunction getFund(uint _projectId, address _from, uint _fundId) public view returns(uint amount, FundType fundType) {\n\t    Fund memory fund = projects[_projectId].allFunds[_from][_fundId];\n\t\treturn (fund.amount, fund.fundType);\n\t}\n\t\n\n\n}\n",
  "sourcePath": "/Users/nikolaklipa/Hakaton/Firestarter/contracts/Firestarter.sol",
  "compiler": {
    "name": "solc",
    "version": "0.5.0+commit.1d4f565a.Emscripten.clang"
  },
  "schemaVersion": "3.0.1",
  "updatedAt": "2019-03-09T00:05:43.660Z",
  "devdoc": {
    "methods": {}
  },
  "userdoc": {
    "methods": {}
  }
}