{
  "contractName": "Firestarter",
  "abi": [
    {
      "constant": true,
      "inputs": [
        {
          "name": "",
          "type": "uint256"
        }
      ],
      "name": "projects",
      "outputs": [
        {
          "name": "owner",
          "type": "address"
        },
        {
          "name": "name",
          "type": "string"
        },
        {
          "name": "funds",
          "type": "uint256"
        }
      ],
      "payable": false,
      "stateMutability": "view",
      "type": "function",
      "signature": "0x107046bd"
    },
    {
      "anonymous": false,
      "inputs": [
        {
          "indexed": false,
          "name": "id",
          "type": "uint256"
        },
        {
          "indexed": false,
          "name": "name",
          "type": "string"
        },
        {
          "indexed": false,
          "name": "owner",
          "type": "address"
        }
      ],
      "name": "ProjectCreated",
      "type": "event",
      "signature": "0xc0c54fed07481d0998e1446b2c13759606bf4f26b78306307413ac4c4309aa82"
    },
    {
      "anonymous": false,
      "inputs": [
        {
          "indexed": false,
          "name": "id",
          "type": "uint256"
        },
        {
          "indexed": false,
          "name": "amount",
          "type": "uint256"
        },
        {
          "indexed": false,
          "name": "from",
          "type": "address"
        },
        {
          "indexed": false,
          "name": "fundType",
          "type": "uint8"
        }
      ],
      "name": "ProjectFunded",
      "type": "event",
      "signature": "0x2dc91c4e4d98180243940dbb23cbc2a91e58fac7e7c1971f5c1abdda5ad18b78"
    },
    {
      "constant": false,
      "inputs": [
        {
          "name": "_name",
          "type": "string"
        }
      ],
      "name": "addProject",
      "outputs": [],
      "payable": false,
      "stateMutability": "nonpayable",
      "type": "function",
      "signature": "0x0ed047d4"
    },
    {
      "constant": false,
      "inputs": [
        {
          "name": "_id",
          "type": "uint256"
        }
      ],
      "name": "fundProjectDirectly",
      "outputs": [],
      "payable": true,
      "stateMutability": "payable",
      "type": "function",
      "signature": "0x7f4054de"
    },
    {
      "constant": true,
      "inputs": [],
      "name": "totalProjects",
      "outputs": [
        {
          "name": "",
          "type": "uint256"
        }
      ],
      "payable": false,
      "stateMutability": "view",
      "type": "function",
      "signature": "0x9c361e4e"
    },
    {
      "constant": true,
      "inputs": [
        {
          "name": "_projectId",
          "type": "uint256"
        },
        {
          "name": "_from",
          "type": "address"
        }
      ],
      "name": "totalFunds",
      "outputs": [
        {
          "name": "",
          "type": "uint256"
        }
      ],
      "payable": false,
      "stateMutability": "view",
      "type": "function",
      "signature": "0x43f4c44f"
    },
    {
      "constant": true,
      "inputs": [
        {
          "name": "_projectId",
          "type": "uint256"
        },
        {
          "name": "_from",
          "type": "address"
        },
        {
          "name": "_fundId",
          "type": "uint256"
        }
      ],
      "name": "getFund",
      "outputs": [
        {
          "name": "amount",
          "type": "uint256"
        },
        {
          "name": "fundType",
          "type": "uint8"
        }
      ],
      "payable": false,
      "stateMutability": "view",
      "type": "function",
      "signature": "0xc588724b"
    }
  ],
  "bytecode": "0x608060405234801561001057600080fd5b5061096d806100206000396000f3fe6080604052600436106100775763ffffffff7c01000000000000000000000000000000000000000000000000000000006000350416630ed047d4811461007c578063107046bd1461013157806343f4c44f146101e95780637f4054de146102345780639c361e4e14610251578063c588724b14610266575b600080fd5b34801561008857600080fd5b5061012f6004803603602081101561009f57600080fd5b8101906020810181356401000000008111156100ba57600080fd5b8201836020820111156100cc57600080fd5b803590602001918460018302840111640100000000831117156100ee57600080fd5b91908080601f0160208091040260200160405190810160405280939291908181526020018383808284376000920191909152509295506102d0945050505050565b005b34801561013d57600080fd5b5061015b6004803603602081101561015457600080fd5b5035610487565b60408051600160a060020a0385168152908101829052606060208083018281528551928401929092528451608084019186019080838360005b838110156101ac578181015183820152602001610194565b50505050905090810190601f1680156101d95780820380516001836020036101000a031916815260200191505b5094505050505060405180910390f35b3480156101f557600080fd5b506102226004803603604081101561020c57600080fd5b5080359060200135600160a060020a0316610552565b60408051918252519081900360200190f35b61012f6004803603602081101561024a57600080fd5b5035610593565b34801561025d57600080fd5b5061022261073b565b34801561027257600080fd5b506102a56004803603606081101561028957600080fd5b50803590600160a060020a036020820135169060400135610742565b604051808381526020018260028111156102bb57fe5b60ff1681526020019250505060405180910390f35b604080516080810182523381526020808201848152600083850181905284518181528084019095526060840194909452835460018101808655948052835160059091027f290decd9548b62a8d60345a988386fc84ba6bc95484008f6362f93160ef3e56381018054600160a060020a0390931673ffffffffffffffffffffffffffffffffffffffff19909316929092178255915180519193610397937f290decd9548b62a8d60345a988386fc84ba6bc95484008f6362f93160ef3e56401929101906107f3565b5060408201516002820155606082015180516103bd916004840191602090910190610871565b505050507fc0c54fed07481d0998e1446b2c13759606bf4f26b78306307413ac4c4309aa826001600080549050038233604051808481526020018060200183600160a060020a0316600160a060020a03168152602001828103825284818151815260200191508051906020019080838360005b83811015610448578181015183820152602001610430565b50505050905090810190601f1680156104755780820380516001836020036101000a031916815260200191505b5094505050505060405180910390a150565b600080548290811061049557fe5b600091825260209182902060059091020180546001808301805460408051601f6002600019968516156101000296909601909316949094049182018790048702840187019052808352600160a060020a0390931695509293909291908301828280156105425780601f1061051757610100808354040283529160200191610542565b820191906000526020600020905b81548152906001019060200180831161052557829003601f168201915b5050505050908060020154905083565b6000808381548110151561056257fe5b60009182526020808320600160a060020a038616845260036005909302019190910190526040902054905092915050565b346000828154811015156105a357fe5b60009182526020822060026005909202010180549092019091558054829081106105c957fe5b6000918252602080832033845260036005909302019190910190526040902054151561063f5760008054829081106105fd57fe5b600091825260208083206004600590930201919091018054600181018255908352912001805473ffffffffffffffffffffffffffffffffffffffff1916331790555b600080548290811061064d57fe5b60009182526020808320338452600360059093020191909101815260408083208151808301909252348252929091820152815460018181018085556000948552602094859020845160029485029091019081559484015185830180549296949193909260ff19169184908111156106c057fe5b02179055505050507f2dc91c4e4d98180243940dbb23cbc2a91e58fac7e7c1971f5c1abdda5ad18b7881343360006040518085815260200184815260200183600160a060020a0316600160a060020a0316815260200182600281111561072257fe5b60ff16815260200194505050505060405180910390a150565b6000545b90565b60008061074d6108df565b600080548790811061075b57fe5b60009182526020808320600160a060020a038916845260036005909302019190910190526040902080548590811061078f57fe5b9060005260206000209060020201604080519081016040529081600082015481526020016001820160009054906101000a900460ff1660028111156107d057fe5b60028111156107db57fe5b90525080516020909101519097909650945050505050565b828054600181600116156101000203166002900490600052602060002090601f016020900481019282601f1061083457805160ff1916838001178555610861565b82800160010185558215610861579182015b82811115610861578251825591602001919060010190610846565b5061086d9291506108f6565b5090565b8280548282559060005260206000209081019282156108d3579160200282015b828111156108d3578251825473ffffffffffffffffffffffffffffffffffffffff1916600160a060020a03909116178255602090920191600190910190610891565b5061086d929150610910565b604080518082019091526000808252602082015290565b61073f91905b8082111561086d57600081556001016108fc565b61073f91905b8082111561086d57805473ffffffffffffffffffffffffffffffffffffffff1916815560010161091656fea165627a7a7230582082273b05dc3bc4af4f1b842d760d00d0330cc414331f9483e2b4ee92e4faa6ed0029",
  "source": "pragma solidity ^0.5.0;\n\ncontract Firestarter {\n\n\tenum FundType { DirectType, VestingType, CompoundType }\n\n\tstruct Fund {\n\t\tuint amount;\n\t\tFundType fundType;\n\t}\n\n\tstruct Project {\n\t\taddress owner;\n\t\tstring name;\n\t\tuint funds;\n\t\tmapping(address => Fund[]) allFunds;\n\t\taddress[] investors;\n\t}\n\n\tProject[] public projects;\n\n\tevent ProjectCreated(uint id, string name, address owner);\n\tevent ProjectFunded(uint id, uint amount, address from, FundType fundType);\n\n\tfunction addProject(string memory _name) public {\n\t\tprojects.push(Project({\n\t\t\t\towner: msg.sender,\n\t\t\t\tname: _name,\n\t\t\t\tfunds: 0,\n\t\t\t\tinvestors: new address[](0)\n\t\t\t}));\n\n\t\temit ProjectCreated(projects.length-1, _name, msg.sender);\n\t}\n\t\n\tfunction fundProjectDirectly(uint _id) public payable {\n\t\t\n\t\tprojects[_id].funds += msg.value;\n\n\t\tif (projects[_id].allFunds[msg.sender].length == 0) {\n\t\t\tprojects[_id].investors.push(msg.sender);\n\t\t}\n\n\t\tprojects[_id].allFunds[msg.sender].push(Fund({\n\t\t\t\tamount: msg.value,\n\t\t\t\tfundType: FundType.DirectType\n\t\t\t}));\n\n\t\temit ProjectFunded(_id, msg.value, msg.sender, FundType.DirectType);\n\t}\n\n\tfunction totalProjects() public view returns(uint) {\n\t\treturn projects.length;\n\t}\n\n\tfunction totalFunds(uint _projectId, address _from) public view returns(uint) {\n\t\treturn projects[_projectId].allFunds[_from].length;\n\t}\n\n\tfunction getFund(uint _projectId, address _from, uint _fundId) public view returns(uint amount, FundType fundType) {\n\t    Fund memory fund = projects[_projectId].allFunds[_from][_fundId];\n\t\treturn (fund.amount, fund.fundType);\n\t}\n\t\n\n\n}\n",
  "sourcePath": "/Users/nikolaklipa/Hakaton/Firestarter/contracts/Firestarter.sol",
  "compiler": {
    "name": "solc",
    "version": "0.5.0+commit.1d4f565a.Emscripten.clang"
  },
  "schemaVersion": "3.0.1",
  "updatedAt": "2019-03-08T20:52:46.176Z",
  "devdoc": {
    "methods": {}
  },
  "userdoc": {
    "methods": {}
  }
}