{
  "contractName": "Firestarter",
  "abi": [
    {
      "constant": true,
      "inputs": [
        {
          "name": "",
          "type": "uint256"
        }
      ],
      "name": "projects",
      "outputs": [
        {
          "name": "owner",
          "type": "address"
        },
        {
          "name": "name",
          "type": "string"
        },
        {
          "name": "funds",
          "type": "uint256"
        },
        {
          "name": "daiFunds",
          "type": "uint256"
        },
        {
          "name": "totalWithdraws",
          "type": "uint256"
        },
        {
          "name": "lastUpdate",
          "type": "uint256"
        },
        {
          "name": "vestRate",
          "type": "uint256"
        },
        {
          "name": "ethWithdrawn",
          "type": "uint256"
        },
        {
          "name": "daiWithdrawn",
          "type": "uint256"
        },
        {
          "name": "votingMachineCallback",
          "type": "address"
        }
      ],
      "payable": false,
      "stateMutability": "view",
      "type": "function"
    },
    {
      "constant": true,
      "inputs": [],
      "name": "DAI_ADDRESS",
      "outputs": [
        {
          "name": "",
          "type": "address"
        }
      ],
      "payable": false,
      "stateMutability": "view",
      "type": "function"
    },
    {
      "constant": true,
      "inputs": [
        {
          "name": "_block",
          "type": "uint256"
        }
      ],
      "name": "findPrevious",
      "outputs": [
        {
          "name": "",
          "type": "uint256"
        }
      ],
      "payable": false,
      "stateMutability": "view",
      "type": "function"
    },
    {
      "constant": true,
      "inputs": [
        {
          "name": "_id",
          "type": "uint256"
        }
      ],
      "name": "findPreviousWithId",
      "outputs": [
        {
          "name": "",
          "type": "uint256"
        }
      ],
      "payable": false,
      "stateMutability": "view",
      "type": "function"
    },
    {
      "constant": true,
      "inputs": [],
      "name": "firstVestingRecord",
      "outputs": [
        {
          "name": "",
          "type": "uint256"
        }
      ],
      "payable": false,
      "stateMutability": "view",
      "type": "function"
    },
    {
      "constant": true,
      "inputs": [
        {
          "name": "",
          "type": "uint256"
        }
      ],
      "name": "allVestings",
      "outputs": [
        {
          "name": "rate",
          "type": "uint256"
        },
        {
          "name": "block",
          "type": "uint256"
        },
        {
          "name": "next",
          "type": "uint256"
        }
      ],
      "payable": false,
      "stateMutability": "view",
      "type": "function"
    },
    {
      "constant": true,
      "inputs": [],
      "name": "maxId",
      "outputs": [
        {
          "name": "",
          "type": "uint256"
        }
      ],
      "payable": false,
      "stateMutability": "view",
      "type": "function"
    },
    {
      "constant": true,
      "inputs": [],
      "name": "totalVestings",
      "outputs": [
        {
          "name": "",
          "type": "uint256"
        }
      ],
      "payable": false,
      "stateMutability": "view",
      "type": "function"
    },
    {
      "constant": true,
      "inputs": [],
      "name": "getArr",
      "outputs": [
        {
          "name": "arr",
          "type": "uint256[]"
        }
      ],
      "payable": false,
      "stateMutability": "view",
      "type": "function"
    },
    {
      "inputs": [],
      "payable": false,
      "stateMutability": "nonpayable",
      "type": "constructor"
    },
    {
      "anonymous": false,
      "inputs": [
        {
          "indexed": true,
          "name": "id",
          "type": "uint256"
        },
        {
          "indexed": false,
          "name": "name",
          "type": "string"
        },
        {
          "indexed": true,
          "name": "owner",
          "type": "address"
        }
      ],
      "name": "ProjectCreated",
      "type": "event"
    },
    {
      "anonymous": false,
      "inputs": [
        {
          "indexed": true,
          "name": "id",
          "type": "uint256"
        },
        {
          "indexed": false,
          "name": "amount",
          "type": "uint256"
        },
        {
          "indexed": false,
          "name": "from",
          "type": "address"
        },
        {
          "indexed": false,
          "name": "fundType",
          "type": "uint8"
        }
      ],
      "name": "ProjectFunded",
      "type": "event"
    },
    {
      "anonymous": false,
      "inputs": [
        {
          "indexed": true,
          "name": "id",
          "type": "uint256"
        },
        {
          "indexed": false,
          "name": "ethAmount",
          "type": "uint256"
        },
        {
          "indexed": false,
          "name": "daiAmount",
          "type": "uint256"
        },
        {
          "indexed": false,
          "name": "message",
          "type": "string"
        }
      ],
      "name": "ProjectWithdraw",
      "type": "event"
    },
    {
      "constant": false,
      "inputs": [
        {
          "name": "_name",
          "type": "string"
        }
      ],
      "name": "addProject",
      "outputs": [],
      "payable": false,
      "stateMutability": "nonpayable",
      "type": "function"
    },
    {
      "constant": false,
      "inputs": [
        {
          "name": "_id",
          "type": "uint256"
        }
      ],
      "name": "fundProjectDirectly",
      "outputs": [],
      "payable": true,
      "stateMutability": "payable",
      "type": "function"
    },
    {
      "constant": false,
      "inputs": [
        {
          "name": "_id",
          "type": "uint256"
        },
        {
          "name": "_numOfBlocks",
          "type": "uint256"
        }
      ],
      "name": "fundProjectByVesting",
      "outputs": [],
      "payable": true,
      "stateMutability": "payable",
      "type": "function"
    },
    {
      "constant": false,
      "inputs": [
        {
          "name": "_id",
          "type": "uint256"
        },
        {
          "name": "_daiAmount",
          "type": "uint256"
        }
      ],
      "name": "fundProjectByCompound",
      "outputs": [],
      "payable": false,
      "stateMutability": "nonpayable",
      "type": "function"
    },
    {
      "constant": false,
      "inputs": [
        {
          "name": "_projectId",
          "type": "uint256"
        },
        {
          "name": "_ethBalance",
          "type": "uint256"
        },
        {
          "name": "_daiBalance",
          "type": "uint256"
        },
        {
          "name": "_message",
          "type": "string"
        }
      ],
      "name": "withdraw",
      "outputs": [],
      "payable": false,
      "stateMutability": "nonpayable",
      "type": "function"
    },
    {
      "constant": true,
      "inputs": [
        {
          "name": "_projectId",
          "type": "uint256"
        }
      ],
      "name": "getMaxWithdraws",
      "outputs": [
        {
          "name": "maxEth",
          "type": "uint256"
        },
        {
          "name": "maxDai",
          "type": "uint256"
        }
      ],
      "payable": false,
      "stateMutability": "view",
      "type": "function"
    },
    {
      "constant": true,
      "inputs": [
        {
          "name": "_projectId",
          "type": "uint256"
        }
      ],
      "name": "getFullEarnings",
      "outputs": [
        {
          "name": "fullEth",
          "type": "uint256"
        },
        {
          "name": "fullDai",
          "type": "uint256"
        }
      ],
      "payable": false,
      "stateMutability": "view",
      "type": "function"
    },
    {
      "constant": false,
      "inputs": [
        {
          "name": "_id",
          "type": "uint256"
        }
      ],
      "name": "updateBalance",
      "outputs": [],
      "payable": false,
      "stateMutability": "nonpayable",
      "type": "function"
    },
    {
      "constant": true,
      "inputs": [
        {
          "name": "_id",
          "type": "uint256"
        }
      ],
      "name": "getNewBalanceAndRateView",
      "outputs": [
        {
          "name": "",
          "type": "uint256"
        },
        {
          "name": "",
          "type": "uint256"
        }
      ],
      "payable": false,
      "stateMutability": "view",
      "type": "function"
    },
    {
      "constant": true,
      "inputs": [
        {
          "name": "_projectId",
          "type": "uint256"
        },
        {
          "name": "_user",
          "type": "address"
        }
      ],
      "name": "userFundedProject",
      "outputs": [
        {
          "name": "",
          "type": "uint256"
        }
      ],
      "payable": false,
      "stateMutability": "view",
      "type": "function"
    },
    {
      "constant": true,
      "inputs": [],
      "name": "totalProjects",
      "outputs": [
        {
          "name": "",
          "type": "uint256"
        }
      ],
      "payable": false,
      "stateMutability": "view",
      "type": "function"
    },
    {
      "constant": true,
      "inputs": [
        {
          "name": "_projectId",
          "type": "uint256"
        },
        {
          "name": "_from",
          "type": "address"
        }
      ],
      "name": "totalFunds",
      "outputs": [
        {
          "name": "",
          "type": "uint256"
        }
      ],
      "payable": false,
      "stateMutability": "view",
      "type": "function"
    },
    {
      "constant": true,
      "inputs": [
        {
          "name": "_projectId",
          "type": "uint256"
        },
        {
          "name": "_from",
          "type": "address"
        },
        {
          "name": "_fundId",
          "type": "uint256"
        }
      ],
      "name": "getFund",
      "outputs": [
        {
          "name": "amount",
          "type": "uint256"
        },
        {
          "name": "fundType",
          "type": "uint8"
        }
      ],
      "payable": false,
      "stateMutability": "view",
      "type": "function"
    },
    {
      "constant": false,
      "inputs": [],
      "name": "skip",
      "outputs": [],
      "payable": false,
      "stateMutability": "nonpayable",
      "type": "function"
    }
  ],
  "bytecode": "0x6080604052600160025560058054600160a060020a03199081167361bbd7bd5ee2a202d7e62519750170a52a8dfd451790915560068054909116734e17c87c52d0e9a0cad3fbc53b77d9514f00380717905534801561005d57600080fd5b50600654600554604080517f095ea7b3000000000000000000000000000000000000000000000000000000008152600160a060020a03928316600482015260001960248201529051919092169163095ea7b39160448083019260209291908290030181600087803b1580156100d157600080fd5b505af11580156100e5573d6000803e3d6000fd5b505050506040513d60208110156100fb57600080fd5b5050613ef18061010c6000396000f3fe6080604052600436106200017b576000357c01000000000000000000000000000000000000000000000000000000009004806390fbc26311620000e4578063ba7b37d41162000096578063ba7b37d41462000696578063bf5a138314620006c4578063c588724b1462000710578063c5ea3c65146200077f578063d7ba691e1462000797578063fb8cbced14620007af576200017b565b806390fbc26314620005095780639c328a4814620005d65780639c361e4e14620006045780639f2c411b146200061c578063a7feb7201462000650578063a8184b64146200067e576200017b565b806343f4c44f116200013e57806343f4c44f14620003db57806346f07ee6146200042a57806348e2f80814620004585780636f371095146200049557806376ca670d14620004c35780637f4054de14620004e9576200017b565b80630ed047d41462000180578063107046bd146200023c5780631d2aa5b314620003485780632a4c0a1a14620003605780633cd7c7ff1462000394575b600080fd5b3480156200018d57600080fd5b506200023a60048036036020811015620001a657600080fd5b810190602081018135640100000000811115620001c257600080fd5b820183602082011115620001d557600080fd5b80359060200191846001830284011164010000000083111715620001f857600080fd5b91908080601f01602080910402602001604051908101604052809392919081815260200183838082843760009201919091525092955062000819945050505050565b005b3480156200024957600080fd5b506200026a600480360360208110156200026257600080fd5b503562000a5d565b604051808b600160a060020a0316600160a060020a03168152602001806020018a815260200189815260200188815260200187815260200186815260200185815260200184815260200183600160a060020a0316600160a060020a0316815260200182810382528b818151815260200191508051906020019080838360005b8381101562000303578181015183820152602001620002e9565b50505050905090810190601f168015620003315780820380516001836020036101000a031916815260200191505b509b50505050505050505050505060405180910390f35b3480156200035557600080fd5b506200023a62000b63565b3480156200036d57600080fd5b506200037862000b65565b60408051600160a060020a039092168252519081900360200190f35b348015620003a157600080fd5b50620003c260048036036020811015620003ba57600080fd5b503562000b74565b6040805192835260208301919091528051918290030190f35b348015620003e857600080fd5b5062000418600480360360408110156200040157600080fd5b5080359060200135600160a060020a031662000ded565b60408051918252519081900360200190f35b3480156200043757600080fd5b50620003c2600480360360208110156200045057600080fd5b503562000e30565b3480156200046557600080fd5b5062000418600480360360408110156200047e57600080fd5b5080359060200135600160a060020a031662000f35565b348015620004a257600080fd5b506200041860048036036020811015620004bb57600080fd5b50356200104e565b6200023a60048036036040811015620004db57600080fd5b5080359060200135620010e8565b6200023a600480360360208110156200050157600080fd5b503562001274565b3480156200051657600080fd5b506200023a600480360360808110156200052f57600080fd5b813591602081013591604082013591908101906080810160608201356401000000008111156200055e57600080fd5b8201836020820111156200057157600080fd5b803590602001918460018302840111640100000000831117156200059457600080fd5b91908080601f016020809104026020016040519081016040528093929190818152602001838380828437600092019190915250929550620013c4945050505050565b348015620005e357600080fd5b506200041860048036036020811015620005fc57600080fd5b5035620019d5565b3480156200061157600080fd5b506200041862001a0d565b3480156200062957600080fd5b506200023a600480360360408110156200064257600080fd5b508035906020013562001a14565b3480156200065d57600080fd5b50620003c2600480360360208110156200067657600080fd5b503562001cb8565b3480156200068b57600080fd5b506200041862001f2f565b348015620006a357600080fd5b506200023a60048036036020811015620006bc57600080fd5b503562001f35565b348015620006d157600080fd5b50620006f260048036036020811015620006ea57600080fd5b503562001fc0565b60408051938452602084019290925282820152519081900360600190f35b3480156200071d57600080fd5b5062000753600480360360608110156200073657600080fd5b50803590600160a060020a03602082013516906040013562001fe1565b604051808381526020018260028111156200076a57fe5b60ff1681526020019250505060405180910390f35b3480156200078c57600080fd5b5062000418620020af565b348015620007a457600080fd5b5062000418620020b5565b348015620007bc57600080fd5b50620007c7620020bb565b60408051602080825283518183015283519192839290830191858101910280838360005b8381101562000805578181015183820152602001620007eb565b505050509050019250505060405180910390f35b6200082362002458565b338152602081018290526200083762001a0d565b6040516200084590620024c5565b90815260405190819003602001906000f08015801562000869573d6000803e3d6000fd5b50600160a060020a03908116610140830152600480546001810180835560009290925283517f8a35acfbc15ff81a39ae7d344fd709f28e8600b4aa8c65c6b64bfe7fe36bd19b600d909202918201805473ffffffffffffffffffffffffffffffffffffffff191691909416178355602080850151805193948694909362000917937f8a35acfbc15ff81a39ae7d344fd709f28e8600b4aa8c65c6b64bfe7fe36bd19c909101920190620024d3565b5060408201516002820155606082015160038201556080820151600682015560a082015180516200095391600784019160209091019062002558565b5060c0820151600882015560e08201516009820155610100820151600a820155610120820151600b82015561014090910151600c909101805473ffffffffffffffffffffffffffffffffffffffff1916600160a060020a03909216919091179055506004546040805160208082528551818301528551339460001901937fc0c54fed07481d0998e1446b2c13759606bf4f26b78306307413ac4c4309aa829388939092839283019185019080838360005b8381101562000a1e57818101518382015260200162000a04565b50505050905090810190601f16801562000a4c5780820380516001836020036101000a031916815260200191505b509250505060405180910390a35050565b600480548290811062000a6c57fe5b6000918252602091829020600d9091020180546001808301805460408051601f6002600019968516156101000296909601909316949094049182018790048702840187019052808352600160a060020a03909316955092939092919083018282801562000b1d5780601f1062000af15761010080835404028352916020019162000b1d565b820191906000526020600020905b81548152906001019060200180831162000aff57829003601f168201915b50505060028401546003850154600686015460088701546009880154600a890154600b8a0154600c909a01549899959894975092955090939092600160a060020a03168a565b565b600654600160a060020a031681565b600554600654604080517fba377731000000000000000000000000000000000000000000000000000000008152306004820152600160a060020a03928316602482015290516000938493849391169163ba37773191604480820192602092909190829003018186803b15801562000bea57600080fd5b505afa15801562000bff573d6000803e3d6000fd5b505050506040513d602081101562000c1657600080fd5b5051905060008062000c288662000e30565b909250905062000c3762002458565b600480548890811062000c4657fe5b60009182526020918290206040805161016081018252600d9093029091018054600160a060020a03168352600180820180548451601f6002600019958416156101000295909501909216939093049081018790048702830187019094528382529394919385830193919290919083018282801562000d085780601f1062000cdc5761010080835404028352916020019162000d08565b820191906000526020600020905b81548152906001019060200180831162000cea57829003601f168201915b505050505081526020016002820154815260200160038201548152602001600682015481526020016007820180548060200260200160405190810160405280929190818152602001828054801562000d8a57602002820191906000526020600020905b8154600160a060020a0316815260019091019060200180831162000d6b575b50505091835250506008820154602082015260098201546040820152600a820154606080830191909152600b8301546080830152600c90920154600160a060020a031660a090910152610100820151910151930397929093039550909350505050565b600060048381548110151562000dff57fe5b60009182526020808320600160a060020a03861684526004600d909302019190910190526040902054905092915050565b600080600062000e40436200104e565b905060006003549050600060048681548110151562000e5b57fe5b90600052602060002090600d0201600901549050600060048781548110151562000e8157fe5b90600052602060002090600d0201600201549050600060048881548110151562000ea757fe5b90600052602060002090600d020160080154905084600014151562000f25575b83851462000f0157600093845260208490526040909320600181015481546002909201549491840393918103909102919091019062000ec7565b60008481526020819052604090206001810154905484039391810390910291909101905b4303820201945092505050915091565b6000606060048481548110151562000f4957fe5b60009182526020808320600160a060020a03871684526004600d90930201919091018152604080832080548251818502810185019093528083529193909284015b8282101562001004576000848152602090819020604080516080810190915260048502909101805482526001810154919290919083019060ff16600281111562000fd057fe5b600281111562000fdc57fe5b8152602001600282015481526020016003820154815250508152602001906001019062000f8a565b50508251929350600091508190505b82811015620010445783818151811015156200102b57fe5b6020908102909101015151919091019060010162001013565b5095945050505050565b6003546000905b600081815260208190526040902060020154158015906200108f575060008181526020819052604080822060020154825290206001015483115b15620010ad5760009081526020819052604090206002015462001055565b60035481148015620010cf575060008181526020819052604090206001015483105b15620010e0576000915050620010e3565b90505b919050565b620010f4338362002188565b60048054839081106200110357fe5b600091825260208083203384526004600d90930201919091018152604091829020825160808101909352348352919081016001815260006020808301829052438601604090930192909252835460018181018087559583529183902084516004909202019081559183015182820180549192909160ff1916908360028111156200118957fe5b02179055506040820151816002015560608201518160030155505050620011bf8134811515620011b557fe5b0482430162002225565b50620011cb8262001f35565b8034811515620011d757fe5b04600483815481101515620011e857fe5b90600052602060002090600d020160090160008282540192505081905550817f2dc91c4e4d98180243940dbb23cbc2a91e58fac7e7c1971f5c1abdda5ad18b78343360006040518084815260200183600160a060020a0316600160a060020a031681526020018260028111156200125b57fe5b60ff168152602001935050505060405180910390a25050565b346004828154811015156200128557fe5b600091825260209091206002600d909202010180549091019055620012ab338262002188565b6004805482908110620012ba57fe5b600091825260208083203384526004600d9093020191909101815260408083208151608081019092523482529290918201908152600060208083018290526040909201819052835460018181018087559583529183902084516004909202019081559183015182820180549192909160ff1916908360028111156200133b57fe5b02179055506040820151816002015560608201518160030155505050807f2dc91c4e4d98180243940dbb23cbc2a91e58fac7e7c1971f5c1abdda5ad18b78343360006040518084815260200183600160a060020a0316600160a060020a03168152602001826002811115620013ac57fe5b60ff168152602001935050505060405180910390a250565b600554600654604080517fba377731000000000000000000000000000000000000000000000000000000008152306004820152600160a060020a0392831660248201529051600093929092169163ba37773191604480820192602092909190829003018186803b1580156200143857600080fd5b505afa1580156200144d573d6000803e3d6000fd5b505050506040513d60208110156200146457600080fd5b50519050620014738562001f35565b6200147d62002458565b60048054879081106200148c57fe5b60009182526020918290206040805161016081018252600d9093029091018054600160a060020a03168352600180820180548451601f600260001995841615610100029590950190921693909304908101879004870283018701909452838252939491938583019391929091908301828280156200154e5780601f1062001522576101008083540402835291602001916200154e565b820191906000526020600020905b8154815290600101906020018083116200153057829003601f168201915b5050505050815260200160028201548152602001600382015481526020016006820154815260200160078201805480602002602001604051908101604052809291908181526020018280548015620015d057602002820191906000526020600020905b8154600160a060020a03168152600190910190602001808311620015b1575b50505091835250506008820154602082015260098201546040820152600a8201546060820152600b8201546080820152600c90910154600160a060020a0390811660a0909201919091528151919250163314806200163b5750610140810151600160a060020a031633145b15156200164757600080fd5b6101008101516040820151038511156200166057600080fd5b606081015182038411156200167457600080fd5b6000851115620016d957604051339086156108fc029087906000818181858888f19350505050158015620016ac573d6000803e3d6000fd5b5084600487815481101515620016be57fe5b60009182526020909120600a600d9092020101805490910190555b60008411156200184d57600554600654604080517ff3fef3a3000000000000000000000000000000000000000000000000000000008152600160a060020a039283166004820152602481018890529051919092169163f3fef3a39160448083019260209291908290030181600087803b1580156200175657600080fd5b505af11580156200176b573d6000803e3d6000fd5b505050506040513d60208110156200178257600080fd5b5050600654604080517fa9059cbb000000000000000000000000000000000000000000000000000000008152336004820152602481018790529051600160a060020a039092169163a9059cbb916044808201926020929091908290030181600087803b158015620017f257600080fd5b505af115801562001807573d6000803e3d6000fd5b505050506040513d60208110156200181e57600080fd5b505060048054859190889081106200183257fe5b60009182526020909120600b600d9092020101805490910190555b604080516060810182528681526020810186905290810184905260048054889081106200187657fe5b90600052602060002090600d020160050160006004898154811015156200189957fe5b90600052602060002090600d020160060154815260200190815260200160002060008201518160000155602082015181600101556040820151816002019080519060200190620018eb929190620024d3565b50905050600486815481101515620018ff57fe5b90600052602060002090600d020160060160008154809291906001019190505550857ff06d9ec9c3e2e48871183628508cae534a356e2e9354760f079399bbe8d923378686866040518084815260200183815260200180602001828103825283818151815260200191508051906020019080838360005b838110156200199057818101518382015260200162001976565b50505050905090810190601f168015620019be5780820380516001836020036101000a031916815260200191505b5094505050505060405180910390a2505050505050565b6003546000905b6000818152602081905260409020600201548314620010e057600090815260208190526040902060020154620019dc565b6004545b90565b62001a20338362002188565b600654604080517f23b872dd000000000000000000000000000000000000000000000000000000008152336004820152306024820152604481018490529051600160a060020a03909216916323b872dd916064808201926020929091908290030181600087803b15801562001a9457600080fd5b505af115801562001aa9573d6000803e3d6000fd5b505050506040513d602081101562001ac057600080fd5b5050600554600654604080517ff2b9fdb8000000000000000000000000000000000000000000000000000000008152600160a060020a039283166004820152602481018590529051600093929092169163f2b9fdb89160448082019260209290919082900301818787803b15801562001b3857600080fd5b505af115801562001b4d573d6000803e3d6000fd5b505050506040513d602081101562001b6457600080fd5b50519050801562001b7157fe5b8160048481548110151562001b8257fe5b600091825260209091206003600d909202010180549091019055600480548490811062001bab57fe5b600091825260208083203384526004600d909302019190910181526040918290208251608081019093528483529190810160028152600060208083018290526040909201819052835460018181018087559583529183902084516004909202019081559183015182820180549192909160ff19169083600281111562001c2d57fe5b02179055506040820151816002015560608201518160030155505050827f2dc91c4e4d98180243940dbb23cbc2a91e58fac7e7c1971f5c1abdda5ad18b78833360026040518084815260200183600160a060020a0316600160a060020a0316815260200182600281111562001c9e57fe5b60ff168152602001935050505060405180910390a2505050565b600554600654604080517fba377731000000000000000000000000000000000000000000000000000000008152306004820152600160a060020a03928316602482015290516000938493849391169163ba37773191604480820192602092909190829003018186803b15801562001d2e57600080fd5b505afa15801562001d43573d6000803e3d6000fd5b505050506040513d602081101562001d5a57600080fd5b50519050600062001d6b8562000e30565b909450905062001d7a62002458565b600480548790811062001d8957fe5b60009182526020918290206040805161016081018252600d9093029091018054600160a060020a03168352600180820180548451601f6002600019958416156101000295909501909216939093049081018790048702830187019094528382529394919385830193919290919083018282801562001e4b5780601f1062001e1f5761010080835404028352916020019162001e4b565b820191906000526020600020905b81548152906001019060200180831162001e2d57829003601f168201915b505050505081526020016002820154815260200160038201548152602001600682015481526020016007820180548060200260200160405190810160405280929190818152602001828054801562001ecd57602002820191906000526020600020905b8154600160a060020a0316815260019091019060200180831162001eae575b50505091835250506008820154602082015260098201546040820152600a820154606080830191909152600b8301546080830152600c90920154600160a060020a031660a0909101526101208201519101519597959093039092019450505050565b60035481565b60008062001f4383620022f5565b6004805492945090925083918590811062001f5a57fe5b90600052602060002090600d0201600201819055508060048481548110151562001f8057fe5b90600052602060002090600d0201600901819055504360048481548110151562001fa657fe5b90600052602060002090600d020160080181905550505050565b60006020819052908152604090208054600182015460029092015490919083565b60008062001fee620025cb565b600480548790811062001ffd57fe5b60009182526020808320600160a060020a03891684526004600d90930201919091019052604090208054859081106200203257fe5b906000526020600020906004020160806040519081016040529081600082015481526020016001820160009054906101000a900460ff1660028111156200207557fe5b60028111156200208157fe5b8152600282015460208083019190915260039092015460409091015281519101519097909650945050505050565b60025481565b60015481565b6060600154604051908082528060200260200182016040528015620020ea578160200160208202803883390190505b5060035490915060005b60008281526020819052604090206002015415620021565760008281526020819052604090206001015483518490839081106200212d57fe5b6020908102909101810191909152600092835282905260409091206002015490600101620020f4565b60008281526020819052604090206001015483518490839081106200217757fe5b602090810290910101525090919050565b60048054829081106200219757fe5b60009182526020808320600160a060020a03861684526004600d909302019190910190526040902054151562002221576004805482908110620021d657fe5b60009182526020808320600d929092029091016007018054600181018255908352912001805473ffffffffffffffffffffffffffffffffffffffff1916600160a060020a0384161790555b5050565b60028054604080516060810182528581526020808201868152600083850181815286825292819052938420925183555160018084019190915590519190940155915490911015620022d85760006200227d836200104e565b9050801515620022a65760038054600084815260208190526040902060020155829055620022d1565b6000818152602081905260408082206002908101805486855292842090910191909155908290528290555b50620022de565b60038190555b600180548101815560028054909101905592915050565b600080600062002305436200104e565b90506000600354905060006004868154811015156200232057fe5b90600052602060002090600d020160090154905060006004878154811015156200234657fe5b90600052602060002090600d020160020154905060006004888154811015156200236c57fe5b90600052602060002090600d020160080154905084600014151562000f25575b838514620023d157600084815260208190526040902060018101548154600290920154918503949281039092029290920191620023c985620023fa565b93506200238c565b600084815260208190526040902060018101549054840393918103909102919091019062000f25845b60035481141562002420576000818152602081905260409020600201546003556200244b565b60006200242d82620019d5565b60008381526020819052604080822060029081015493835291200155505b5060018054600019019055565b610160604051908101604052806000600160a060020a031681526020016060815260200160008152602001600081526020016000815260200160608152602001600081526020016000815260200160008152602001600081526020016000600160a060020a031681525090565b611880806200264683390190565b828054600181600116156101000203166002900490600052602060002090601f016020900481019282601f106200251657805160ff191683800117855562002546565b8280016001018555821562002546579182015b828111156200254657825182559160200191906001019062002529565b5062002554929150620025f4565b5090565b828054828255906000526020600020908101928215620025bd579160200282015b82811115620025bd578251825473ffffffffffffffffffffffffffffffffffffffff1916600160a060020a0390911617825560209092019160019091019062002579565b506200255492915062002611565b604080516080810190915260008082526020820190815260200160008152602001600081525090565b62001a1191905b80821115620025545760008155600101620025fb565b62001a1191905b808211156200255457805473ffffffffffffffffffffffffffffffffffffffff191681556001016200261856fe608060405234801561001057600080fd5b506040516020806118808339810180604052602081101561003057600080fd5b5051600381905560008054600160a060020a0319163317905560405161005590610127565b604051809103906000f080158015610071573d6000803e3d6000fd5b5060018054600160a060020a031916600160a060020a039283161790819055604080517f23d840f500000000000000000000000000000000000000000000000000000000815260336004820152306024820152905191909216916323d840f59160448083019260209291908290030181600087803b1580156100f257600080fd5b505af1158015610106573d6000803e3d6000fd5b505050506040513d602081101561011c57600080fd5b505160025550610134565b6110ce806107b283390190565b61066f806101436000396000f3fe608060405234801561001057600080fd5b50600436106100ec576000357c0100000000000000000000000000000000000000000000000000000000900480639588378e116100a9578063b551c37311610083578063b551c373146101fd578063bea75f281461021a578063d29b5d2f14610256578063f81f8bf614610256576100ec565b80639588378e146101755780639d4c162d146101a15780639f2ce678146101d8576100ec565b8063180fd87f146100f15780633fafa127146100fb5780634b6d4400146101155780635b8a1236146101395780636b8eb4031461014157806386a426631461016d575b600080fd5b6100f9610288565b005b610103610368565b60408051918252519081900360200190f35b61011d61036e565b60408051600160a060020a039092168252519081900360200190f35b61011d61037d565b6101036004803603604081101561015757600080fd5b50600160a060020a03813516906020013561038c565b610103610394565b6101036004803603604081101561018b57600080fd5b50600160a060020a03813516906020013561039a565b6101c4600480360360408110156101b757600080fd5b508035906020013561043e565b604080519115158252519081900360200190f35b6100f9600480360360408110156101ee57600080fd5b5080359060200135151561047c565b6101036004803603602081101561021357600080fd5b5035610594565b6101c46004803603608081101561023057600080fd5b50600160a060020a03813581169160208101359091169060408101359060600135610630565b6101c46004803603606081101561026c57600080fd5b50803590600160a060020a03602082013516906040013561063a565b60015460028054604080517f88737b5e0000000000000000000000000000000000000000000000000000000081526004810193909352602483019190915260006044830181905230606484015290519092600160a060020a0316916388737b5e91608480830192602092919082900301818787803b15801561030957600080fd5b505af115801561031d573d6000803e3d6000fd5b505050506040513d602081101561033357600080fd5b5051604051909150339082907fe90bb18a6fc9203e3678a7f41e132910465e0fce1421609662d02c481fbfbcf890600090a350565b60035481565b600154600160a060020a031681565b600054600160a060020a031681565b600092915050565b60025481565b60008054600354604080517f48e2f8080000000000000000000000000000000000000000000000000000000081526004810192909252600160a060020a03868116602484015290519216916348e2f80891604480820192602092909190829003018186803b15801561040b57600080fd5b505afa15801561041f573d6000803e3d6000fd5b505050506040513d602081101561043557600080fd5b50519392505050565b60408051828152905160009184917f7aee3b251fb70a99f585fd5c4dcf58d0d06214cb5613783bf0d8be2bdd4cb9279181900360200190a292915050565b600154600160a060020a031663359afa49838361049a57600061049d565b60015b6000336040518563ffffffff167c0100000000000000000000000000000000000000000000000000000000028152600401808581526020018460ff16815260200183815260200182600160a060020a0316600160a060020a03168152602001945050505050602060405180830381600087803b15801561051c57600080fd5b505af1158015610530573d6000803e3d6000fd5b505050506040513d602081101561054657600080fd5b50339050827f18c281333a47d53d54122a7e7eab5dea68828361db06aa24ec6512a3baee304d8361057857600061057b565b60015b6040805160ff9092168252519081900360200190a35050565b60008054600354604080517f46f07ee60000000000000000000000000000000000000000000000000000000081526004810192909252805184938493600160a060020a03909116926346f07ee692602480840193829003018186803b1580156105fc57600080fd5b505afa158015610610573d6000803e3d6000fd5b505050506040513d604081101561062657600080fd5b5051949350505050565b6000949350505050565b6000939250505056fea165627a7a723058205b842e01c9539ff0f7bafea1a7926f713d52699f550648d3a6cbd4415e4596640029608060405234801561001057600080fd5b506110ae806100206000396000f3fe608060405234801561001057600080fd5b5060043610610128576000357c01000000000000000000000000000000000000000000000000000000009004806351d997b2116100bf578063a003651d1161008e578063a003651d14610337578063b451291314610354578063ba51b14e14610377578063c0835106146103b0578063e751f271146103cd57610128565b806351d997b2146102ce57806388737b5e146102d65780638d22651e146103105780639525c0cc1461031857610128565b8063289647e4116100fb578063289647e4146101f657806332ed5b1214610222578063359afa491461027a5780635142bc1e146102c657610128565b8063025068041461012d578063119ce91b1461016b57806321b4b3dc146101b057806323d840f5146101ca575b600080fd5b61014a6004803603602081101561014357600080fd5b50356103ea565b60408051928352600160a060020a0390911660208301528051918290030190f35b6101976004803603604081101561018157600080fd5b5080359060200135600160a060020a031661040c565b6040805192835260208301919091528051918290030190f35b6101b861045d565b60408051918252519081900360200190f35b6101b8600480360360408110156101e057600080fd5b5080359060200135600160a060020a0316610463565b6101b86004803603604081101561020c57600080fd5b5080359060200135600160a060020a03166104ee565b61023f6004803603602081101561023857600080fd5b5035610533565b604080519687529415156020870152600160a060020a03909316858501526060850191909152608084015260a0830152519081900360c00190f35b6102b26004803603608081101561029057600080fd5b5080359060208101359060408101359060600135600160a060020a0316610573565b604080519115158252519081900360200190f35b610197610622565b6102b261062a565b6101b8600480360360808110156102ec57600080fd5b50803590602081013590600160a060020a036040820135811691606001351661062f565b6101b8610891565b6103356004803603602081101561032e57600080fd5b5035610896565b005b6101b86004803603602081101561034d57600080fd5b50356108c7565b6101b86004803603604081101561036a57600080fd5b50803590602001356108dc565b6103946004803603602081101561038d57600080fd5b50356108fd565b60408051600160a060020a039092168252519081900360200190f35b6102b2600480360360208110156103c657600080fd5b5035610918565b6102b2600480360360208110156103e357600080fd5b5035610931565b60006020819052908152604090208054600190910154600160a060020a031682565b600080610417611036565b5050506000828152600160208181526040808420600160a060020a0386168552600601825292839020835180850190945280548085529201549201829052909250929050565b60035481565b6000606483111580156104765750600083115b151561048157600080fd5b600061048d84846104ee565b604080518082018252958652600160a060020a0394851660208088019182526000848152908190529190912095518655516001909501805473ffffffffffffffffffffffffffffffffffffffff191695909416949094179092555090919050565b60408051602080820194909452600160a060020a03929092166c0100000000000000000000000002828201528051808303603401815260549092019052805191012090565b60016020819052600091825260409091208054918101546002820154600383015460049093015460ff831693610100909304600160a060020a0316929086565b600084815260016020819052604082200154859060ff16151561059557600080fd5b60008681526001602052604090206105ab611036565b50600381015460009081526020818152604080832081518083019092528054825260010154600160a060020a0316918101829052919015610606576020820151600160a060020a031633146105ff57600080fd5b5084610609565b50335b61061589828a8a610965565b9998505050505050505050565b6000600a9091565b600190565b600083815260208190526040812054811061064957600080fd5b60008511801561065a5750600a8511155b151561066557600080fd5b600354604080516c01000000000000000000000000300260208083019190915260348083018590528351808403909101815260549092019092528051910120906106b690600163ffffffff610c0816565b6003556106c161104d565b606081018781526080820187815233604080850182815281516c01000000000000000000000000938402602082810191909152600160a060020a038b8116909502603483015283516028818403018152604890920184528151918101919091208752600181880181815260008a81528284528581208a5180825592519381018054965189166101000274ffffffffffffffffffffffffffffffffffffffff001995151560ff1990981697909717949094169590951790925596516002808501919091559551600384015560a0880151600490930192909255948152929093529190205416151561082457600160a060020a03841615156107ed5780516000908152600260205260409020805473ffffffffffffffffffffffffffffffffffffffff191633179055610824565b80516000908152600260205260409020805473ffffffffffffffffffffffffffffffffffffffff1916600160a060020a0386161790555b80516000908152600260209081526040918290205482518a815233928101929092528183018990529151600160a060020a039092169184917f75b4ff136cc5de5957574c797de3334eb1c141271922b825eb071e0487ba2c5c919081900360600190a35095945050505050565b600a81565b60008181526001602081905260409091200154819060ff1615156108b957600080fd5b6108c38233610c21565b5050565b60009081526001602052604090206002015490565b60009182526001602090815260408084209284526005909201905290205490565b600260205260009081526040902054600160a060020a031681565b6000908152600160208190526040909120015460ff1690565b600081815260016020819052604082200154829060ff16151561095357600080fd5b61095c83610d26565b91505b50919050565b6000848152600160205260408120600281015484111561098457600080fd5b6001810154604080517f9588378e000000000000000000000000000000000000000000000000000000008152600160a060020a038881166004830152602482018a90529151600093610100900490921691639588378e91604480820192602092909190829003018186803b1580156109fb57600080fd5b505afa158015610a0f573d6000803e3d6000fd5b505050506040513d6020811015610a2557600080fd5b5051905060008111610a9857604080517f08c379a000000000000000000000000000000000000000000000000000000000815260206004820152601b60248201527f5f766f746572206d75737420686176652072657075746174696f6e0000000000604482015290519081900360640190fd5b83811015610aa557600080fd5b83801515610ab05750805b600160a060020a038716600090815260068401602052604090206001015415610add57610add8888610c21565b6000868152600584016020526040902054610aff90829063ffffffff610c0816565b60008781526005850160205260409020556004830154610b2690829063ffffffff610c0816565b60048401556040805180820182528781526020808201848152600160a060020a03808c16600081815260068a0185528681209551865592516001909501949094558754825260028352908490205484518b8152928301869052845193949116928c927f066c061a3792cb3eb64a441a928655fcbafb4a54b49725fe9cd2951df5e7189e92908290030190a460408051600160a060020a0389163314158152905189917fe715e19c865cb724f3c292cc2fffc24d9cdd398e179fb366f008cc73028e1c52919081900360200190a2610bfc88610d26565b98975050505050505050565b600082820183811015610c1a57600080fd5b9392505050565b6000828152600160205260409020610c37611036565b50600160a060020a03821660009081526006820160209081526040808320815180830183528154808252600190920154818501819052918552600586019093529220549091610c8c919063ffffffff610fa516565b815160009081526005840160209081526040909120919091558101516004830154610cbc9163ffffffff610fa516565b6004830155600160a060020a03808416600081815260068501602090815260408083208381556001018390558654835260029091528082205490519293169187917f0ecab23267930de581498fac1af19a95c888ec6583921ee9c47473e16245d3c891a450505050565b600081815260016020819052604082200154829060ff161515610d4857600080fd5b60008381526001602081815260408084209283015481517fb551c373000000000000000000000000000000000000000000000000000000008152600481018990529151939493610100909104600160a060020a03169263b551c3739260248082019391829003018186803b158015610dbf57600080fd5b505afa158015610dd3573d6000803e3d6000fd5b505050506040513d6020811015610de957600080fd5b505160038301546000908152602081905260408120549192505b60028401548111610f985760008181526005850160205260409020546064840483021015610f9057610e3361104d565b506040805160c08101825285548152600186015460ff8116151560208301526101009004600160a060020a0316918101919091526002850154606082015260038501546080820152600485015460a0820152610e8e88610fba565b80516000908152600260209081526040918290205482518581529182018790528251600160a060020a03909116928b927f37471b9c9d295ffb1309ad070b8964700bfb7b555e8e8292d0b6cbc7dba35d10929081900390910190a38060400151600160a060020a0316639d4c162d89846040518363ffffffff167c01000000000000000000000000000000000000000000000000000000000281526004018083815260200182815260200192505050602060405180830381600087803b158015610f5757600080fd5b505af1158015610f6b573d6000803e3d6000fd5b505050506040513d6020811015610f8157600080fd5b5051965061095f945050505050565b600101610e03565b5060009695505050505050565b600082821115610fb457600080fd5b50900390565b6000818152600160205260408120905b60028201548111610fee576000818152600583016020526040812055600101610fca565b505060009081526001602081905260408220828155908101805474ffffffffffffffffffffffffffffffffffffffffff19169055600281018290556003810182905560040155565b604080518082019091526000808252602082015290565b6040805160c081018252600080825260208201819052918101829052606081018290526080810182905260a08101919091529056fea165627a7a72305820ff1c11a11cf3590584d367a53dd17ef3cd7f6895bf5bac1795fcfe740f3889ed0029a165627a7a72305820774c7befdbf39935dcf43117c982838694f0afe340b46ddae35ee9d8ffa6d4150029",
  "source": "pragma solidity ^0.5.0;\n\nimport \"./Vesting.sol\";\nimport \"./CompoundInterface.sol\";\nimport \"./ERC20.sol\";\nimport \"./VotingMachineCallback.sol\";\n\ncontract Firestarter is Vesting {\n\n\tenum FundType { DirectType, VestingType, CompoundType }\n\n\tstruct Withdraw {\n\t\tuint ethAmount;\n\t\tuint daiAmount;\n\t\tstring message;\n\t}\n\n\tstruct Fund {\n\t\tuint amount;\n\t\tFundType fundType;\n\t\tuint canceled;\n\t\tuint end;\n\t}\n\n\tstruct Project {\n\t\taddress owner;\n\t\tstring name;\n\t\tuint funds;\n\t\tuint daiFunds;\n\t\tmapping(address => Fund[]) allFunds;\n\t\t// solidity doesn't support array of structs in struct, so implementing it on my own\n\t\tmapping(uint => Withdraw) allWithdraws;\n\t\tuint totalWithdraws;\n\t\taddress[] investors;\n\t\tuint lastUpdate;\n\t\tuint vestRate;\n\t\tuint ethWithdrawn;\n\t\tuint daiWithdrawn;\n\t\taddress votingMachineCallback;\n\t}\n\n\tProject[] public projects;\n\n\t// Rinkeby test deployment\n\tCompoundInterface compound = CompoundInterface(0x61bbd7Bd5EE2A202d7e62519750170A52A8DFD45);\n\taddress public DAI_ADDRESS = 0x4e17c87c52d0E9a0cAd3Fbc53b77d9514F003807;\n\n\tevent ProjectCreated(uint indexed id, string name, address indexed owner);\n\tevent ProjectFunded(uint indexed id, uint amount, address from, FundType fundType);\n\tevent ProjectWithdraw(uint indexed id, uint ethAmount, uint daiAmount, string message);\n\n\tconstructor() public {\n\t\tERC20(DAI_ADDRESS).approve(address(compound), uint(-1));\n\t}\n\n\tfunction addProject(string memory _name) public {\n\t\t\n\t\tProject memory project;\n\t\tproject.owner = msg.sender;\n\t\tproject.name = _name;\n\t\tproject.votingMachineCallback = address(new VotingMachineCallback(totalProjects()));\n\n\t\tprojects.push(project);\n\n\t\temit ProjectCreated(projects.length-1, _name, msg.sender);\n\t}\n\t\n\tfunction fundProjectDirectly(uint _id) public payable {\n\t\t\n\t\tprojects[_id].funds += msg.value;\n\n\t\taddInvestorIfNeeded(msg.sender, _id);\n\n\t\tprojects[_id].allFunds[msg.sender].push(Fund({\n\t\t\t\tamount: msg.value,\n\t\t\t\tfundType: FundType.DirectType,\n\t\t\t\tcanceled: 0,\n\t\t\t\tend: 0\n\t\t\t}));\n\n\t\temit ProjectFunded(_id, msg.value, msg.sender, FundType.DirectType);\n\t}\n\n\tfunction fundProjectByVesting(uint _id, uint _numOfBlocks) public payable {\n\t\taddInvestorIfNeeded(msg.sender, _id);\n\n\t\tprojects[_id].allFunds[msg.sender].push(Fund({\n\t\t\t\tamount: msg.value,\n\t\t\t\tfundType: FundType.VestingType,\n\t\t\t\tcanceled: 0,\n\t\t\t\tend: block.number + _numOfBlocks\n\t\t\t}));\n\n\t\taddVestingRecord(msg.value / _numOfBlocks, block.number + _numOfBlocks);\n\t\tupdateBalance(_id);\n\t\t\n\t\tprojects[_id].vestRate += msg.value / _numOfBlocks;\n\n\t\temit ProjectFunded(_id, msg.value, msg.sender, FundType.DirectType);\n\t}\n\n\t///@dev Before calling must approve contract to transferFrom Dai\n\tfunction fundProjectByCompound(uint _id, uint _daiAmount) public {\n\t\taddInvestorIfNeeded(msg.sender, _id);\n\n\t\tERC20(DAI_ADDRESS).transferFrom(msg.sender, address(this), _daiAmount);\n\n\t\tuint errCode = compound.supply(DAI_ADDRESS, _daiAmount);\n\n\t\tassert(errCode == 0);\n\n\t\tprojects[_id].daiFunds += _daiAmount;\n\n\t\tprojects[_id].allFunds[msg.sender].push(Fund({\n\t\t\tamount: _daiAmount,\n\t\t\tfundType: FundType.CompoundType,\n\t\t\tcanceled: 0,\n\t\t\tend: 0\n\t\t}));\n        \n        emit ProjectFunded(_id, _daiAmount, msg.sender, FundType.CompoundType);\n\t}\n\n\tfunction withdraw(uint _projectId, uint _ethBalance, uint _daiBalance, string memory _message) public {\n\t\tuint currentFullBalance = compound.getSupplyBalance(address(this), DAI_ADDRESS);\n\n\t\t// update before we try to get it\n\t\tupdateBalance(_projectId);\n\t\tProject memory project = projects[_projectId];\n\n\t\trequire(project.owner == msg.sender || project.votingMachineCallback == msg.sender);\n\t\trequire(_ethBalance <= (project.funds - project.ethWithdrawn));\n\t\trequire(_daiBalance <= (currentFullBalance - project.daiFunds));\n\n\t\tif (_ethBalance > 0) {\n\t\t\tmsg.sender.transfer(_ethBalance);\n\t\t\tprojects[_projectId].ethWithdrawn += _ethBalance;\n\t\t}\n\n\t\tif (_daiBalance > 0) {\n\t\t\tcompound.withdraw(DAI_ADDRESS, _daiBalance);\n\t\t\tERC20(DAI_ADDRESS).transfer(msg.sender, _daiBalance);\n\t\t\tprojects[_projectId].daiWithdrawn += _daiBalance;\n\t\t}\n\n\t\tprojects[_projectId].allWithdraws[projects[_projectId].totalWithdraws] = Withdraw({\n\t\t\t\tethAmount: _ethBalance,\n\t\t\t\tdaiAmount: _daiBalance,\n\t\t\t\tmessage: _message\n\t\t\t});\n\t\tprojects[_projectId].totalWithdraws++;\n\n\t\temit ProjectWithdraw(_projectId, _ethBalance, _daiBalance, _message);\n\t}\n\n\tfunction getMaxWithdraws(uint _projectId) public view returns(uint maxEth, uint maxDai) {\n\t\tuint currentFullBalance = compound.getSupplyBalance(address(this), DAI_ADDRESS);\n\n\t\t// update before we try to get it\n\t\tuint balance;\n\t\tuint rate;\n\t\t(balance, rate) = getNewBalanceAndRateView(_projectId);\n\t\tProject memory project = projects[_projectId];\n\n\t\tmaxEth = (balance - project.ethWithdrawn);\n\t\tmaxDai = (currentFullBalance - project.daiFunds);\n\t}\n\n\tfunction getFullEarnings(uint _projectId) public view returns(uint fullEth, uint fullDai) {\n\t\tuint currentFullBalance = compound.getSupplyBalance(address(this), DAI_ADDRESS);\n\n\t\t// update before we try to get it\n\t\tuint rate;\n\t\t(fullEth, rate) = getNewBalanceAndRateView(_projectId);\n\t\tProject memory project = projects[_projectId];\n\t\tfullDai = (currentFullBalance - project.daiFunds) + project.daiWithdrawn;\n\t}\n\t\n\n\tfunction updateBalance(uint _id) public {\n\t\tuint balance;\n\t\tuint rate;\n\t\t(balance, rate) = getNewBalanceAndRate(_id);\n\n\t\tprojects[_id].funds = balance;\n\t\tprojects[_id].vestRate = rate;\n\t\tprojects[_id].lastUpdate = block.number;\n\t}\n\n\tfunction getNewBalanceAndRate(uint _id) internal returns(uint, uint) {\n\t\tuint previous = findPrevious(block.number);\n\n\t\tuint curr = firstVestingRecord;\n\t\tuint rate = projects[_id].vestRate;\n\t\tuint balance = projects[_id].funds;\n\t\tuint lastUpdate = projects[_id].lastUpdate;\n\n\t\tif (previous != 0) {\n\t\t\twhile (curr != previous) {\n\t\t\t\tbalance += (allVestings[curr].block - lastUpdate) * rate;\n\t\t\t\trate -= allVestings[curr].rate;\n\t\t\t\tlastUpdate = allVestings[curr].block;\n\n\t\t\t\tuint next = allVestings[curr].next;\n\t\t\t\tremoveVestingRecord(curr);\n\t\t\t\tcurr = next;\n\t\t\t}\n\t\t\t\n\t\t\tbalance += (allVestings[curr].block - lastUpdate) * rate;\n\t\t\trate -= allVestings[curr].rate;\n\t\t\tlastUpdate = allVestings[curr].block;\n\n\t\t\tremoveVestingRecord(curr);\n\t\t} \n\n\t\tbalance += (block.number - lastUpdate) * rate;\n\n\t\treturn (balance, rate);\n\t}\n\n\tfunction getNewBalanceAndRateView(uint _id) public view returns(uint, uint) {\n\t\tuint previous = findPrevious(block.number);\n\n\t\tuint curr = firstVestingRecord;\n\t\tuint rate = projects[_id].vestRate;\n\t\tuint balance = projects[_id].funds;\n\t\tuint lastUpdate = projects[_id].lastUpdate;\n\n\t\tif (previous != 0) {\n\t\t\twhile (curr != previous) {\n\t\t\t\tbalance += (allVestings[curr].block - lastUpdate) * rate;\n\t\t\t\trate -= allVestings[curr].rate;\n\t\t\t\tlastUpdate = allVestings[curr].block;\n\n\t\t\t\tuint next = allVestings[curr].next;\n\t\t\t\t// removeVestingRecord(curr);\n\t\t\t\tcurr = next;\n\t\t\t}\n\t\t\t\n\t\t\tbalance += (allVestings[curr].block - lastUpdate) * rate;\n\t\t\trate -= allVestings[curr].rate;\n\t\t\tlastUpdate = allVestings[curr].block;\n\n\t\t\t// removeVestingRecord(curr);\n\t\t} \n\n\t\tbalance += (block.number - lastUpdate) * rate;\n\n\t\treturn (balance, rate);\n\t}\n\n\tfunction addInvestorIfNeeded(address _user, uint _projectId) internal {\n\t\t//needs to change this in future\n\n\t\tif (projects[_projectId].allFunds[_user].length == 0) {\n\t\t\tprojects[_projectId].investors.push(_user);\n\t\t}\n\t}\n\n\tfunction userFundedProject(uint _projectId, address _user) public view returns(uint) {\n\t\tFund[] memory userFunds = projects[_projectId].allFunds[_user];\n\n\t\tuint count = userFunds.length;\n\t\tuint balance = 0;\n\t\tfor (uint i=0; i<count; i++) {\n\t\t\tbalance += userFunds[i].amount;\n\t\t}\n\n\t\treturn balance;\n\t}\n\n\tfunction totalProjects() public view returns(uint) {\n\t\treturn projects.length;\n\t}\n\n\tfunction totalFunds(uint _projectId, address _from) public view returns(uint) {\n\t\treturn projects[_projectId].allFunds[_from].length;\n\t}\n\n\tfunction getFund(uint _projectId, address _from, uint _fundId) public view returns(uint amount, FundType fundType) {\n\t    Fund memory fund = projects[_projectId].allFunds[_from][_fundId];\n\t\treturn (fund.amount, fund.fundType);\n\t}\n\t\n\t// remix for skipping few blocks\n\tfunction skip() public {}\n}\n",
  "sourcePath": "/Users/nikolaklipa/Hakaton/Firestarter/contracts/Firestarter.sol",
  "compiler": {
    "name": "solc",
    "version": "0.5.4+commit.9549d8ff.Emscripten.clang"
  },
  "schemaVersion": "3.0.2",
  "updatedAt": "2019-03-09T22:48:31.705Z",
  "devdoc": {
    "methods": {
      "fundProjectByCompound(uint256,uint256)": {
        "details": "Before calling must approve contract to transferFrom Dai"
      }
    }
  },
  "userdoc": {
    "methods": {}
  }
}