{
  "contractName": "Firestarter",
  "abi": [
    {
      "constant": true,
      "inputs": [
        {
          "name": "",
          "type": "uint256"
        }
      ],
      "name": "projects",
      "outputs": [
        {
          "name": "owner",
          "type": "address"
        },
        {
          "name": "name",
          "type": "string"
        },
        {
          "name": "funds",
          "type": "uint256"
        },
        {
          "name": "daiFunds",
          "type": "uint256"
        },
        {
          "name": "totalWithdraws",
          "type": "uint256"
        },
        {
          "name": "lastUpdate",
          "type": "uint256"
        },
        {
          "name": "vestRate",
          "type": "uint256"
        },
        {
          "name": "ethWithdrawn",
          "type": "uint256"
        },
        {
          "name": "daiWithdrawn",
          "type": "uint256"
        },
        {
          "name": "votingMachineCallback",
          "type": "address"
        }
      ],
      "payable": false,
      "stateMutability": "view",
      "type": "function",
      "signature": "0x107046bd"
    },
    {
      "constant": true,
      "inputs": [],
      "name": "DAI_ADDRESS",
      "outputs": [
        {
          "name": "",
          "type": "address"
        }
      ],
      "payable": false,
      "stateMutability": "view",
      "type": "function",
      "signature": "0x2a4c0a1a"
    },
    {
      "constant": true,
      "inputs": [
        {
          "name": "_block",
          "type": "uint256"
        }
      ],
      "name": "findPrevious",
      "outputs": [
        {
          "name": "",
          "type": "uint256"
        }
      ],
      "payable": false,
      "stateMutability": "view",
      "type": "function",
      "signature": "0x6f371095"
    },
    {
      "constant": false,
      "inputs": [
        {
          "name": "_rate",
          "type": "uint256"
        },
        {
          "name": "_block",
          "type": "uint256"
        }
      ],
      "name": "removeVestingRecordWithRateAndBlock",
      "outputs": [],
      "payable": false,
      "stateMutability": "nonpayable",
      "type": "function",
      "signature": "0x950deaef"
    },
    {
      "constant": true,
      "inputs": [
        {
          "name": "_id",
          "type": "uint256"
        }
      ],
      "name": "findPreviousWithId",
      "outputs": [
        {
          "name": "",
          "type": "uint256"
        }
      ],
      "payable": false,
      "stateMutability": "view",
      "type": "function",
      "signature": "0x9c328a48"
    },
    {
      "constant": true,
      "inputs": [],
      "name": "firstVestingRecord",
      "outputs": [
        {
          "name": "",
          "type": "uint256"
        }
      ],
      "payable": false,
      "stateMutability": "view",
      "type": "function",
      "signature": "0xa8184b64"
    },
    {
      "constant": true,
      "inputs": [
        {
          "name": "",
          "type": "uint256"
        }
      ],
      "name": "allVestings",
      "outputs": [
        {
          "name": "rate",
          "type": "uint256"
        },
        {
          "name": "block",
          "type": "uint256"
        },
        {
          "name": "next",
          "type": "uint256"
        }
      ],
      "payable": false,
      "stateMutability": "view",
      "type": "function",
      "signature": "0xbf5a1383"
    },
    {
      "constant": true,
      "inputs": [],
      "name": "maxId",
      "outputs": [
        {
          "name": "",
          "type": "uint256"
        }
      ],
      "payable": false,
      "stateMutability": "view",
      "type": "function",
      "signature": "0xc5ea3c65"
    },
    {
      "constant": true,
      "inputs": [],
      "name": "totalVestings",
      "outputs": [
        {
          "name": "",
          "type": "uint256"
        }
      ],
      "payable": false,
      "stateMutability": "view",
      "type": "function",
      "signature": "0xd7ba691e"
    },
    {
      "constant": true,
      "inputs": [],
      "name": "getArr",
      "outputs": [
        {
          "name": "arr",
          "type": "uint256[]"
        }
      ],
      "payable": false,
      "stateMutability": "view",
      "type": "function",
      "signature": "0xfb8cbced"
    },
    {
      "inputs": [],
      "payable": false,
      "stateMutability": "nonpayable",
      "type": "constructor",
      "signature": "constructor"
    },
    {
      "anonymous": false,
      "inputs": [
        {
          "indexed": true,
          "name": "id",
          "type": "uint256"
        },
        {
          "indexed": false,
          "name": "name",
          "type": "string"
        },
        {
          "indexed": true,
          "name": "owner",
          "type": "address"
        }
      ],
      "name": "ProjectCreated",
      "type": "event",
      "signature": "0xc0c54fed07481d0998e1446b2c13759606bf4f26b78306307413ac4c4309aa82"
    },
    {
      "anonymous": false,
      "inputs": [
        {
          "indexed": true,
          "name": "id",
          "type": "uint256"
        },
        {
          "indexed": false,
          "name": "amount",
          "type": "uint256"
        },
        {
          "indexed": false,
          "name": "from",
          "type": "address"
        },
        {
          "indexed": false,
          "name": "fundType",
          "type": "uint8"
        }
      ],
      "name": "ProjectFunded",
      "type": "event",
      "signature": "0x2dc91c4e4d98180243940dbb23cbc2a91e58fac7e7c1971f5c1abdda5ad18b78"
    },
    {
      "anonymous": false,
      "inputs": [
        {
          "indexed": true,
          "name": "id",
          "type": "uint256"
        },
        {
          "indexed": false,
          "name": "ethAmount",
          "type": "uint256"
        },
        {
          "indexed": false,
          "name": "daiAmount",
          "type": "uint256"
        },
        {
          "indexed": false,
          "name": "message",
          "type": "string"
        }
      ],
      "name": "ProjectWithdraw",
      "type": "event",
      "signature": "0xf06d9ec9c3e2e48871183628508cae534a356e2e9354760f079399bbe8d92337"
    },
    {
      "constant": false,
      "inputs": [
        {
          "name": "_name",
          "type": "string"
        }
      ],
      "name": "addProject",
      "outputs": [],
      "payable": false,
      "stateMutability": "nonpayable",
      "type": "function",
      "signature": "0x0ed047d4"
    },
    {
      "constant": false,
      "inputs": [
        {
          "name": "_id",
          "type": "uint256"
        }
      ],
      "name": "fundProjectDirectly",
      "outputs": [],
      "payable": true,
      "stateMutability": "payable",
      "type": "function",
      "signature": "0x7f4054de"
    },
    {
      "constant": false,
      "inputs": [
        {
          "name": "_id",
          "type": "uint256"
        },
        {
          "name": "_numOfBlocks",
          "type": "uint256"
        }
      ],
      "name": "fundProjectByVesting",
      "outputs": [],
      "payable": true,
      "stateMutability": "payable",
      "type": "function",
      "signature": "0x76ca670d"
    },
    {
      "constant": false,
      "inputs": [
        {
          "name": "_id",
          "type": "uint256"
        },
        {
          "name": "_daiAmount",
          "type": "uint256"
        }
      ],
      "name": "fundProjectByCompound",
      "outputs": [],
      "payable": false,
      "stateMutability": "nonpayable",
      "type": "function",
      "signature": "0x9f2c411b"
    },
    {
      "constant": false,
      "inputs": [
        {
          "name": "_projectId",
          "type": "uint256"
        },
        {
          "name": "_fundId",
          "type": "uint256"
        }
      ],
      "name": "stopFunding",
      "outputs": [],
      "payable": false,
      "stateMutability": "nonpayable",
      "type": "function",
      "signature": "0x73668405"
    },
    {
      "constant": false,
      "inputs": [
        {
          "name": "_projectId",
          "type": "uint256"
        },
        {
          "name": "_ethBalance",
          "type": "uint256"
        },
        {
          "name": "_daiBalance",
          "type": "uint256"
        },
        {
          "name": "_message",
          "type": "string"
        }
      ],
      "name": "withdraw",
      "outputs": [],
      "payable": false,
      "stateMutability": "nonpayable",
      "type": "function",
      "signature": "0x90fbc263"
    },
    {
      "constant": true,
      "inputs": [
        {
          "name": "_projectId",
          "type": "uint256"
        }
      ],
      "name": "getMaxWithdraws",
      "outputs": [
        {
          "name": "maxEth",
          "type": "uint256"
        },
        {
          "name": "maxDai",
          "type": "uint256"
        }
      ],
      "payable": false,
      "stateMutability": "view",
      "type": "function",
      "signature": "0x3cd7c7ff"
    },
    {
      "constant": true,
      "inputs": [
        {
          "name": "_projectId",
          "type": "uint256"
        }
      ],
      "name": "getFullEarnings",
      "outputs": [
        {
          "name": "fullEth",
          "type": "uint256"
        },
        {
          "name": "fullDai",
          "type": "uint256"
        }
      ],
      "payable": false,
      "stateMutability": "view",
      "type": "function",
      "signature": "0xa7feb720"
    },
    {
      "constant": true,
      "inputs": [
        {
          "name": "_projectId",
          "type": "uint256"
        }
      ],
      "name": "getFinance",
      "outputs": [
        {
          "name": "earnedEthOneTime",
          "type": "uint256"
        },
        {
          "name": "earnedEthVested",
          "type": "uint256"
        },
        {
          "name": "earnedDai",
          "type": "uint256"
        },
        {
          "name": "vestedEth",
          "type": "uint256"
        },
        {
          "name": "vestedDai",
          "type": "uint256"
        }
      ],
      "payable": false,
      "stateMutability": "view",
      "type": "function",
      "signature": "0x6d0406fd"
    },
    {
      "constant": false,
      "inputs": [
        {
          "name": "_id",
          "type": "uint256"
        }
      ],
      "name": "updateBalance",
      "outputs": [],
      "payable": false,
      "stateMutability": "nonpayable",
      "type": "function",
      "signature": "0xba7b37d4"
    },
    {
      "constant": true,
      "inputs": [
        {
          "name": "_id",
          "type": "uint256"
        }
      ],
      "name": "getNewBalanceAndRateView",
      "outputs": [
        {
          "name": "",
          "type": "uint256"
        },
        {
          "name": "",
          "type": "uint256"
        }
      ],
      "payable": false,
      "stateMutability": "view",
      "type": "function",
      "signature": "0x46f07ee6"
    },
    {
      "constant": true,
      "inputs": [
        {
          "name": "_projectId",
          "type": "uint256"
        },
        {
          "name": "_from",
          "type": "address"
        }
      ],
      "name": "hasLockedFunds",
      "outputs": [
        {
          "name": "",
          "type": "bool"
        }
      ],
      "payable": false,
      "stateMutability": "view",
      "type": "function",
      "signature": "0xfbd62e82"
    },
    {
      "constant": true,
      "inputs": [
        {
          "name": "_projectId",
          "type": "uint256"
        },
        {
          "name": "_user",
          "type": "address"
        }
      ],
      "name": "userFundedProject",
      "outputs": [
        {
          "name": "",
          "type": "uint256"
        }
      ],
      "payable": false,
      "stateMutability": "view",
      "type": "function",
      "signature": "0x48e2f808"
    },
    {
      "constant": true,
      "inputs": [
        {
          "name": "_projectId",
          "type": "uint256"
        }
      ],
      "name": "maxReputation",
      "outputs": [
        {
          "name": "",
          "type": "uint256"
        }
      ],
      "payable": false,
      "stateMutability": "view",
      "type": "function",
      "signature": "0x0c78adcc"
    },
    {
      "constant": true,
      "inputs": [],
      "name": "totalProjects",
      "outputs": [
        {
          "name": "",
          "type": "uint256"
        }
      ],
      "payable": false,
      "stateMutability": "view",
      "type": "function",
      "signature": "0x9c361e4e"
    },
    {
      "constant": true,
      "inputs": [
        {
          "name": "_projectId",
          "type": "uint256"
        },
        {
          "name": "_from",
          "type": "address"
        }
      ],
      "name": "totalFunds",
      "outputs": [
        {
          "name": "",
          "type": "uint256"
        }
      ],
      "payable": false,
      "stateMutability": "view",
      "type": "function",
      "signature": "0x43f4c44f"
    },
    {
      "constant": true,
      "inputs": [
        {
          "name": "_projectId",
          "type": "uint256"
        },
        {
          "name": "_from",
          "type": "address"
        },
        {
          "name": "_fundId",
          "type": "uint256"
        }
      ],
      "name": "getFund",
      "outputs": [
        {
          "name": "amount",
          "type": "uint256"
        },
        {
          "name": "fundType",
          "type": "uint8"
        },
        {
          "name": "canceled",
          "type": "uint256"
        },
        {
          "name": "end",
          "type": "uint256"
        },
        {
          "name": "start",
          "type": "uint256"
        }
      ],
      "payable": false,
      "stateMutability": "view",
      "type": "function",
      "signature": "0xc588724b"
    },
    {
      "constant": false,
      "inputs": [],
      "name": "skip",
      "outputs": [],
      "payable": false,
      "stateMutability": "nonpayable",
      "type": "function",
      "signature": "0x1d2aa5b3"
    }
  ],
  "bytecode": "0x6080604052600160025560058054600160a060020a03199081167361bbd7bd5ee2a202d7e62519750170a52a8dfd451790915560068054909116734e17c87c52d0e9a0cad3fbc53b77d9514f00380717905534801561005d57600080fd5b506157998061006d6000396000f3fe608060405260043610620001ff576000357c01000000000000000000000000000000000000000000000000000000009004806390fbc2631162000120578063ba7b37d411620000b4578063c5ea3c65116200008a578063c5ea3c651462000907578063d7ba691e146200091f578063fb8cbced1462000937578063fbd62e8214620009a157620001ff565b8063ba7b37d41462000809578063bf5a13831462000837578063c588724b146200088357620001ff565b80639c361e4e11620000f65780639c361e4e14620007775780639f2c411b146200078f578063a7feb72014620007c3578063a8184b6414620007f157620001ff565b806390fbc2631462000648578063950deaef14620007155780639c328a48146200074957620001ff565b806346f07ee611620001985780636f371095116200016e5780636f37109514620005a05780637366840514620005ce57806376ca670d14620006025780637f4054de146200062857620001ff565b806346f07ee614620004dc57806348e2f808146200050a5780636d0406fd146200054757620001ff565b80631d2aa5b311620001da5780631d2aa5b3146200040c5780632a4c0a1a14620004245780633cd7c7ff146200045857806343f4c44f146200049f57620001ff565b80630c78adcc14620002045780630ed047d41462000244578063107046bd1462000300575b600080fd5b3480156200021157600080fd5b5062000232600480360360208110156200022a57600080fd5b5035620009f2565b60408051918252519081900360200190f35b3480156200025157600080fd5b50620002fe600480360360208110156200026a57600080fd5b8101906020810181356401000000008111156200028657600080fd5b8201836020820111156200029957600080fd5b80359060200191846001830284011164010000000083111715620002bc57600080fd5b91908080601f01602080910402602001604051908101604052809392919081815260200183838082843760009201919091525092955062000ac0945050505050565b005b3480156200030d57600080fd5b506200032e600480360360208110156200032657600080fd5b503562000d04565b604051808b600160a060020a0316600160a060020a03168152602001806020018a815260200189815260200188815260200187815260200186815260200185815260200184815260200183600160a060020a0316600160a060020a0316815260200182810382528b818151815260200191508051906020019080838360005b83811015620003c7578181015183820152602001620003ad565b50505050905090810190601f168015620003f55780820380516001836020036101000a031916815260200191505b509b50505050505050505050505060405180910390f35b3480156200041957600080fd5b50620002fe62000e0a565b3480156200043157600080fd5b506200043c62000e0c565b60408051600160a060020a039092168252519081900360200190f35b3480156200046557600080fd5b5062000486600480360360208110156200047e57600080fd5b503562000e1b565b6040805192835260208301919091528051918290030190f35b348015620004ac57600080fd5b506200023260048036036040811015620004c557600080fd5b5080359060200135600160a060020a03166200107e565b348015620004e957600080fd5b5062000486600480360360208110156200050257600080fd5b5035620010c2565b3480156200051757600080fd5b5062000232600480360360408110156200053057600080fd5b5080359060200135600160a060020a0316620011c7565b3480156200055457600080fd5b5062000575600480360360208110156200056d57600080fd5b50356200142b565b6040805195865260208601949094528484019290925260608401526080830152519081900360a00190f35b348015620005ad57600080fd5b506200023260048036036020811015620005c657600080fd5b503562001ac6565b348015620005db57600080fd5b50620002fe60048036036040811015620005f457600080fd5b508035906020013562001b58565b620002fe600480360360408110156200061a57600080fd5b508035906020013562001ec7565b620002fe600480360360208110156200064057600080fd5b503562002086565b3480156200065557600080fd5b50620002fe600480360360808110156200066e57600080fd5b813591602081013591604082013591908101906080810160608201356401000000008111156200069d57600080fd5b820183602082011115620006b057600080fd5b80359060200191846001830284011164010000000083111715620006d357600080fd5b91908080601f016020809104026020016040519081016040528093929190818152602001838380828437600092019190915250929550620021e5945050505050565b3480156200072257600080fd5b50620002fe600480360360408110156200073b57600080fd5b5080359060200135620027e0565b3480156200075657600080fd5b5062000232600480360360208110156200076f57600080fd5b50356200286f565b3480156200078457600080fd5b5062000232620028a7565b3480156200079c57600080fd5b50620002fe60048036036040811015620007b557600080fd5b5080359060200135620028ae565b348015620007d057600080fd5b506200048660048036036020811015620007e957600080fd5b503562002b63565b348015620007fe57600080fd5b506200023262002dc4565b3480156200081657600080fd5b50620002fe600480360360208110156200082f57600080fd5b503562002dca565b3480156200084457600080fd5b5062000865600480360360208110156200085d57600080fd5b503562002e55565b60408051938452602084019290925282820152519081900360600190f35b3480156200089057600080fd5b50620008c660048036036060811015620008a957600080fd5b50803590600160a060020a03602082013516906040013562002e76565b60405180868152602001856002811115620008dd57fe5b60ff1681526020018481526020018381526020018281526020019550505050505060405180910390f35b3480156200091457600080fd5b506200023262002f6e565b3480156200092c57600080fd5b506200023262002f74565b3480156200094457600080fd5b506200094f62002f7a565b60408051602080825283518183015283519192839290830191858101910280838360005b838110156200098d57818101518382015260200162000973565b505050509050019250505060405180910390f35b348015620009ae57600080fd5b50620009de60048036036040811015620009c757600080fd5b5080359060200135600160a060020a031662003047565b604080519115158252519081900360200190f35b6000606060048381548110151562000a0657fe5b90600052602060002090600d020160070180548060200260200160405190810160405280929190818152602001828054801562000a6d57602002820191906000526020600020905b8154600160a060020a0316815260019091019060200180831162000a4e575b509394506000935083925050505b825181101562000ab65762000aa985848381518110151562000a9957fe5b90602001906020020151620011c7565b9091019060010162000a7b565b509150505b919050565b62000aca62003507565b3381526020810182905262000ade620028a7565b60405162000aec9062003574565b90815260405190819003602001906000f08015801562000b10573d6000803e3d6000fd5b50600160a060020a03908116610140830152600480546001810180835560009290925283517f8a35acfbc15ff81a39ae7d344fd709f28e8600b4aa8c65c6b64bfe7fe36bd19b600d909202918201805473ffffffffffffffffffffffffffffffffffffffff191691909416178355602080850151805193948694909362000bbe937f8a35acfbc15ff81a39ae7d344fd709f28e8600b4aa8c65c6b64bfe7fe36bd19c90910192019062003582565b5060408201516002820155606082015160038201556080820151600682015560a0820151805162000bfa91600784019160209091019062003607565b5060c0820151600882015560e08201516009820155610100820151600a820155610120820151600b82015561014090910151600c909101805473ffffffffffffffffffffffffffffffffffffffff1916600160a060020a03909216919091179055506004546040805160208082528551818301528551339460001901937fc0c54fed07481d0998e1446b2c13759606bf4f26b78306307413ac4c4309aa829388939092839283019185019080838360005b8381101562000cc557818101518382015260200162000cab565b50505050905090810190601f16801562000cf35780820380516001836020036101000a031916815260200191505b509250505060405180910390a35050565b600480548290811062000d1357fe5b6000918252602091829020600d9091020180546001808301805460408051601f6002600019968516156101000296909601909316949094049182018790048702840187019052808352600160a060020a03909316955092939092919083018282801562000dc45780601f1062000d985761010080835404028352916020019162000dc4565b820191906000526020600020905b81548152906001019060200180831162000da657829003601f168201915b50505060028401546003850154600686015460088701546009880154600a890154600b8a0154600c909a01549899959894975092955090939092600160a060020a03168a565b565b600654600160a060020a031681565b6005546006546040805160e060020a63ba377731028152306004820152600160a060020a03928316602482015290516000938493849391169163ba37773191604480820192602092909190829003018186803b15801562000e7b57600080fd5b505afa15801562000e90573d6000803e3d6000fd5b505050506040513d602081101562000ea757600080fd5b5051905060008062000eb986620010c2565b909250905062000ec862003507565b600480548890811062000ed757fe5b60009182526020918290206040805161016081018252600d9093029091018054600160a060020a03168352600180820180548451601f6002600019958416156101000295909501909216939093049081018790048702830187019094528382529394919385830193919290919083018282801562000f995780601f1062000f6d5761010080835404028352916020019162000f99565b820191906000526020600020905b81548152906001019060200180831162000f7b57829003601f168201915b50505050508152602001600282015481526020016003820154815260200160068201548152602001600782018054806020026020016040519081016040528092919081815260200182805480156200101b57602002820191906000526020600020905b8154600160a060020a0316815260019091019060200180831162000ffc575b50505091835250506008820154602082015260098201546040820152600a820154606080830191909152600b8301546080830152600c90920154600160a060020a031660a090910152610100820151910151930397929093039550909350505050565b60006004838154811015156200109057fe5b60009182526020808320600160a060020a03861684526004600d90930201919091019052604090205490505b92915050565b6000806000620010d24362001ac6565b9050600060035490506000600486815481101515620010ed57fe5b90600052602060002090600d020160090154905060006004878154811015156200111357fe5b90600052602060002090600d020160020154905060006004888154811015156200113957fe5b90600052602060002090600d0201600801549050846000141515620011b7575b8385146200119357600093845260208490526040909320600181015481546002909201549491840393918103909102919091019062001159565b60008481526020819052604090206001810154905484039391810390910291909101905b4303820201945092505050915091565b60006060600484815481101515620011db57fe5b60009182526020808320600160a060020a03871684526004600d90930201919091018152604080832080548251818502810185019093528083529193909284015b82821015620012a05760008481526020908190206040805160a0810190915260058502909101805482526001810154919290919083019060ff1660028111156200126257fe5b60028111156200126e57fe5b81526020016002820154815260200160038201548152602001600482015481525050815260200190600101906200121c565b50508251929350600091508190505b82811015620014215760008482815181101515620012c957fe5b90602001906020020151602001516002811115620012e357fe5b141562001311578381815181101515620012f957fe5b90602001906020020151600001518201915062001418565b600184828151811015156200132257fe5b906020019060200201516020015160028111156200133c57fe5b1415620013a95783818151811015156200135257fe5b602090810290910101515184518590839081106200136c57fe5b90602001906020020151604001516200139d86848151811015156200138d57fe5b9060200190602002015162003209565b03028201915062001418565b600060648583815181101515620013bc57fe5b6020908102909101015151811515620013d157fe5b04905060006220148082049050808684815181101515620013ee57fe5b90602001906020020151604001516200140f88868151811015156200138d57fe5b03028401935050505b600101620012af565b5095945050505050565b6000806000806000806200143f8762002b63565b6005546006546040805160e060020a63ba377731028152306004820152600160a060020a0392831660248201529051939850939450169163ba377731916044808301926020929190829003018186803b1580156200149c57600080fd5b505afa158015620014b1573d6000803e3d6000fd5b505050506040513d6020811015620014c857600080fd5b5051600480546000985088975087955091935060609189908110620014e957fe5b90600052602060002090600d02016007018054806020026020016040519081016040528092919081815260200182805480156200155057602002820191906000526020600020905b8154600160a060020a0316815260019091019060200180831162001531575b50939450600093505050505b815181101562001aba5760006200158c8a84848151811015156200157c57fe5b906020019060200201516200107e565b905060005b8181101562001aaf576000600480548d908110620015ab57fe5b90600052602060002090600d020160040160008686815181101515620015cd57fe5b90602001906020020151600160a060020a0316600160a060020a03168152602001908152602001600020828154811015156200160557fe5b600091825260209091206001600590920201015460ff1660028111156200162857fe5b1415620016b457600480548c9081106200163e57fe5b90600052602060002090600d0201600401600085858151811015156200166057fe5b90602001906020020151600160a060020a0316600160a060020a03168152602001908152602001600020818154811015156200169857fe5b9060005260206000209060050201600001548a01995062001aa6565b6001600480548d908110620016c557fe5b90600052602060002090600d020160040160008686815181101515620016e757fe5b90602001906020020151600160a060020a0316600160a060020a03168152602001908152602001600020828154811015156200171f57fe5b600091825260209091206001600590920201015460ff1660028111156200174257fe5b141562001aa657600480548c9081106200175857fe5b90600052602060002090600d0201600401600085858151811015156200177a57fe5b90602001906020020151600160a060020a0316600160a060020a0316815260200190815260200160002081815481101515620017b257fe5b90600052602060002090600502016000015460048c815481101515620017d457fe5b90600052602060002090600d020160040160008686815181101515620017f657fe5b90602001906020020151600160a060020a0316600160a060020a03168152602001908152602001600020828154811015156200182e57fe5b9060005260206000209060050201600201546200192560048e8154811015156200185457fe5b90600052602060002090600d0201600401600088888151811015156200187657fe5b90602001906020020151600160a060020a0316600160a060020a0316815260200190815260200160002084815481101515620018ae57fe5b906000526020600020906005020160a06040519081016040529081600082015481526020016001820160009054906101000a900460ff166002811115620018f157fe5b6002811115620018fd57fe5b8152602001600282015481526020016003820154815260200160048201548152505062003209565b03028901985060048b8154811015156200193b57fe5b90600052602060002090600d0201600401600085858151811015156200195d57fe5b90602001906020020151600160a060020a0316600160a060020a03168152602001908152602001600020818154811015156200199557fe5b90600052602060002090600502016000015460048c815481101515620019b757fe5b90600052602060002090600d020160040160008686815181101515620019d957fe5b90602001906020020151600160a060020a0316600160a060020a031681526020019081526020016000208281548110151562001a1157fe5b90600052602060002090600502016002015460048d81548110151562001a3357fe5b90600052602060002090600d02016004016000878781518110151562001a5557fe5b90602001906020020151600160a060020a0316600160a060020a031681526020019081526020016000208381548110151562001a8d57fe5b9060005260206000209060050201600401540302870196505b60010162001591565b50506001016200155c565b50505091939590929450565b6003546000905b6000818152602081905260409020600201541580159062001b07575060008181526020819052604080822060020154825290206001015483115b1562001b255760009081526020819052604090206002015462001acd565b6003548114801562001b47575060008181526020819052604090206001015483105b15620010bc57600091505062000abb565b62001b626200367a565b600480548490811062001b7157fe5b600091825260208083203384526004600d909302019190910190526040902080548390811062001b9d57fe5b906000526020600020906005020160a06040519081016040529081600082015481526020016001820160009054906101000a900460ff16600281111562001be057fe5b600281111562001bec57fe5b81526002820154602082015260038201546040820152600490910154606090910152905060008160200151600281111562001c2357fe5b141562001c2f57600080fd5b60608101511562001c3f57600080fd5b60018160200151600281111562001c5257fe5b141562001cff5762001c648362002dca565b8051600480548590811062001c7557fe5b90600052602060002090600d0201600901600082825403925050819055504360048481548110151562001ca457fe5b600091825260208083203384526004600d909302019190910190526040902080548490811062001cd057fe5b90600052602060002090600502016003018190555062001cf981600001518260800151620027e0565b62001ec2565b6005546006548251604080517ff3fef3a3000000000000000000000000000000000000000000000000000000008152600160a060020a039384166004820152602481019290925251919092169163f3fef3a39160448083019260209291908290030181600087803b15801562001d7457600080fd5b505af115801562001d89573d6000803e3d6000fd5b505050506040513d602081101562001da057600080fd5b50506006548151604080517fa9059cbb000000000000000000000000000000000000000000000000000000008152336004820152602481019290925251600160a060020a039092169163a9059cbb916044808201926020929091908290030181600087803b15801562001e1257600080fd5b505af115801562001e27573d6000803e3d6000fd5b505050506040513d602081101562001e3e57600080fd5b50508051600480548590811062001e5157fe5b90600052602060002090600d0201600b01600082825403925050819055504360048481548110151562001e8057fe5b600091825260208083203384526004600d909302019190910190526040902080548490811062001eac57fe5b9060005260206000209060050201600301819055505b505050565b62001ed3338362003232565b600480548390811062001ee257fe5b90600052602060002090600d0201600401600033600160a060020a0316600160a060020a0316815260200190815260200160002060a060405190810160405280833481151562001f2e57fe5b04815260200160018152436020808301829052600060408401819052918601606090930192909252835460018181018087559583529183902084516005909202019081559183015182820180549192909160ff19169083600281111562001f9157fe5b021790555060408201518160020155606082015181600301556080820151816004015550505062001fd1813481151562001fc757fe5b04824301620032cf565b5062001fdd8262002dca565b803481151562001fe957fe5b0460048381548110151562001ffa57fe5b90600052602060002090600d020160090160008282540192505081905550817f2dc91c4e4d98180243940dbb23cbc2a91e58fac7e7c1971f5c1abdda5ad18b78343360006040518084815260200183600160a060020a0316600160a060020a031681526020018260028111156200206d57fe5b60ff168152602001935050505060405180910390a25050565b346004828154811015156200209757fe5b600091825260209091206002600d909202010180549091019055620020bd338262003232565b6004805482908110620020cc57fe5b60009182526020808320338452600d9290920290910160040181526040808320815160a081018352348152808401858152439382019390935260608101859052608081018590528154600180820180855593875294909520815160059096020194855591518484018054929593949192909160ff19909116908360028111156200215257fe5b0217905550604082015181600201556060820151816003015560808201518160040155505050807f2dc91c4e4d98180243940dbb23cbc2a91e58fac7e7c1971f5c1abdda5ad18b78343360006040518084815260200183600160a060020a0316600160a060020a03168152602001826002811115620021cd57fe5b60ff168152602001935050505060405180910390a250565b6005546006546040805160e060020a63ba377731028152306004820152600160a060020a0392831660248201529051600093929092169163ba37773191604480820192602092909190829003018186803b1580156200224357600080fd5b505afa15801562002258573d6000803e3d6000fd5b505050506040513d60208110156200226f57600080fd5b505190506200227e8562002dca565b6200228862003507565b60048054879081106200229757fe5b60009182526020918290206040805161016081018252600d9093029091018054600160a060020a03168352600180820180548451601f60026000199584161561010002959095019092169390930490810187900487028301870190945283825293949193858301939192909190830182828015620023595780601f106200232d5761010080835404028352916020019162002359565b820191906000526020600020905b8154815290600101906020018083116200233b57829003601f168201915b5050505050815260200160028201548152602001600382015481526020016006820154815260200160078201805480602002602001604051908101604052809291908181526020018280548015620023db57602002820191906000526020600020905b8154600160a060020a03168152600190910190602001808311620023bc575b50505091835250506008820154602082015260098201546040820152600a8201546060820152600b8201546080820152600c90910154600160a060020a0390811660a090920191909152815191925016331480620024465750610140810151600160a060020a031633145b15156200245257600080fd5b6101008101516040820151038511156200246b57600080fd5b606081015182038411156200247f57600080fd5b6000851115620024e457604051339086156108fc029087906000818181858888f19350505050158015620024b7573d6000803e3d6000fd5b5084600487815481101515620024c957fe5b60009182526020909120600a600d9092020101805490910190555b60008411156200265857600554600654604080517ff3fef3a3000000000000000000000000000000000000000000000000000000008152600160a060020a039283166004820152602481018890529051919092169163f3fef3a39160448083019260209291908290030181600087803b1580156200256157600080fd5b505af115801562002576573d6000803e3d6000fd5b505050506040513d60208110156200258d57600080fd5b5050600654604080517fa9059cbb000000000000000000000000000000000000000000000000000000008152336004820152602481018790529051600160a060020a039092169163a9059cbb916044808201926020929091908290030181600087803b158015620025fd57600080fd5b505af115801562002612573d6000803e3d6000fd5b505050506040513d60208110156200262957600080fd5b505060048054859190889081106200263d57fe5b60009182526020909120600b600d9092020101805490910190555b604080516060810182528681526020810186905290810184905260048054889081106200268157fe5b90600052602060002090600d02016005016000600489815481101515620026a457fe5b90600052602060002090600d020160060154815260200190815260200160002060008201518160000155602082015181600101556040820151816002019080519060200190620026f692919062003582565b509050506004868154811015156200270a57fe5b90600052602060002090600d020160060160008154809291906001019190505550857ff06d9ec9c3e2e48871183628508cae534a356e2e9354760f079399bbe8d923378686866040518084815260200183815260200180602001828103825283818151815260200191508051906020019080838360005b838110156200279b57818101518382015260200162002781565b50505050905090810190601f168015620027c95780820380516001836020036101000a031916815260200191505b5094505050505060405180910390a2505050505050565b60035460005b600082815260208190526040902060020154156200285457600082815260208190526040902054841480156200282c575060008281526020819052604090206001015483145b156200283a57508062002854565b6000918252602082905260409091206002015490620027e6565b6000811115620028695762002869816200339f565b50505050565b6003546000905b6000818152602081905260409020600201548314620010bc5760009081526020819052604090206002015462002876565b6004545b90565b620028ba338362003232565b600654604080517f23b872dd000000000000000000000000000000000000000000000000000000008152336004820152306024820152604481018490529051600160a060020a03909216916323b872dd916064808201926020929091908290030181600087803b1580156200292e57600080fd5b505af115801562002943573d6000803e3d6000fd5b505050506040513d60208110156200295a57600080fd5b5050600554600654604080517ff2b9fdb8000000000000000000000000000000000000000000000000000000008152600160a060020a039283166004820152602481018590529051600093929092169163f2b9fdb89160448082019260209290919082900301818787803b158015620029d257600080fd5b505af1158015620029e7573d6000803e3d6000fd5b505050506040513d6020811015620029fe57600080fd5b50519050801562002a0b57fe5b8160048481548110151562002a1c57fe5b600091825260209091206003600d909202010180549091019055600480548490811062002a4557fe5b60009182526020808320338452600d9290920290910160040181526040808320815160a08101835286815260028185018181524394830194909452606082018690526080820186905282546001808201808655948852959096208251600590970201958655925185850180549396929592949193909260ff1990911691849081111562002ace57fe5b0217905550604082015181600201556060820151816003015560808201518160040155505050827f2dc91c4e4d98180243940dbb23cbc2a91e58fac7e7c1971f5c1abdda5ad18b78833360026040518084815260200183600160a060020a0316600160a060020a0316815260200182600281111562002b4957fe5b60ff168152602001935050505060405180910390a2505050565b6005546006546040805160e060020a63ba377731028152306004820152600160a060020a03928316602482015290516000938493849391169163ba37773191604480820192602092909190829003018186803b15801562002bc357600080fd5b505afa15801562002bd8573d6000803e3d6000fd5b505050506040513d602081101562002bef57600080fd5b50519050600062002c0085620010c2565b909450905062002c0f62003507565b600480548790811062002c1e57fe5b60009182526020918290206040805161016081018252600d9093029091018054600160a060020a03168352600180820180548451601f6002600019958416156101000295909501909216939093049081018790048702830187019094528382529394919385830193919290919083018282801562002ce05780601f1062002cb45761010080835404028352916020019162002ce0565b820191906000526020600020905b81548152906001019060200180831162002cc257829003601f168201915b505050505081526020016002820154815260200160038201548152602001600682015481526020016007820180548060200260200160405190810160405280929190818152602001828054801562002d6257602002820191906000526020600020905b8154600160a060020a0316815260019091019060200180831162002d43575b50505091835250506008820154602082015260098201546040820152600a820154606080830191909152600b8301546080830152600c90920154600160a060020a031660a0909101526101208201519101519597959093039092019450505050565b60035481565b60008062002dd883620033fd565b6004805492945090925083918590811062002def57fe5b90600052602060002090600d0201600201819055508060048481548110151562002e1557fe5b90600052602060002090600d0201600901819055504360048481548110151562002e3b57fe5b90600052602060002090600d020160080181905550505050565b60006020819052908152604090208054600182015460029092015490919083565b600080600080600062002e886200367a565b600480548a90811062002e9757fe5b60009182526020808320600160a060020a038c1684526004600d909302019190910190526040902080548890811062002ecc57fe5b906000526020600020906005020160a06040519081016040529081600082015481526020016001820160009054906101000a900460ff16600281111562002f0f57fe5b600281111562002f1b57fe5b815260200160028201548152602001600382015481526020016004820154815250509050806000015195508060200151945080606001519350806080015192508060400151915050939792965093509350565b60025481565b60015481565b606060015460405190808252806020026020018201604052801562002fa9578160200160208202803883390190505b5060035490915060005b600082815260208190526040902060020154156200301557600082815260208190526040902060010154835184908390811062002fec57fe5b602090810290910181019190915260009283528290526040909120600201549060010162002fb3565b60008281526020819052604090206001015483518490839081106200303657fe5b602090810290910101525090919050565b600060606004848154811015156200305b57fe5b60009182526020808320600160a060020a03871684526004600d90930201919091018152604080832080548251818502810185019093528083529193909284015b82821015620031205760008481526020908190206040805160a0810190915260058502909101805482526001810154919290919083019060ff166002811115620030e257fe5b6002811115620030ee57fe5b81526020016002820154815260200160038201548152602001600482015481525050815260200190600101906200309c565b509293506000925050505b8151811015620031fe57600282828151811015156200314657fe5b906020019060200201516020015160028111156200316057fe5b1480620031955750600182828151811015156200317957fe5b906020019060200201516020015160028111156200319357fe5b145b15620031f5578181815181101515620031aa57fe5b906020019060200201516080015143108015620031e357508181815181101515620031d157fe5b90602001906020020151606001516000145b15620031f557600192505050620010bc565b6001016200312b565b506000949350505050565b60608101514390156200321d575060608101515b808260800151101562000abb57506080015190565b60048054829081106200324157fe5b60009182526020808320600160a060020a03861684526004600d9093020191909101905260409020541515620032cb5760048054829081106200328057fe5b60009182526020808320600d929092029091016007018054600181018255908352912001805473ffffffffffffffffffffffffffffffffffffffff1916600160a060020a0384161790555b5050565b6002805460408051606081018252858152602080820186815260008385018181528682529281905293842092518355516001808401919091559051919094015591549091101562003382576000620033278362001ac6565b90508015156200335057600380546000848152602081905260409020600201558290556200337b565b6000818152602081905260408082206002908101805486855292842090910191909155908290528290555b5062003388565b60038190555b600180548101815560028054909101905592915050565b600354811415620033c557600081815260208190526040902060020154600355620033f0565b6000620033d2826200286f565b60008381526020819052604080822060029081015493835291200155505b5060018054600019019055565b60008060006200340d4362001ac6565b90506000600354905060006004868154811015156200342857fe5b90600052602060002090600d020160090154905060006004878154811015156200344e57fe5b90600052602060002090600d020160020154905060006004888154811015156200347457fe5b90600052602060002090600d0201600801549050846000141515620011b7575b838514620034d957600084815260208190526040902060018101548154600290920154918503949281039092029290920191620034d1856200339f565b935062003494565b6000848152602081905260409020600181015490548403939181039091029190910190620011b7846200339f565b610160604051908101604052806000600160a060020a031681526020016060815260200160008152602001600081526020016000815260200160608152602001600081526020016000815260200160008152602001600081526020016000600160a060020a031681525090565b61207280620036fc83390190565b828054600181600116156101000203166002900490600052602060002090601f016020900481019282601f10620035c557805160ff1916838001178555620035f5565b82800160010185558215620035f5579182015b82811115620035f5578251825591602001919060010190620035d8565b5062003603929150620036aa565b5090565b8280548282559060005260206000209081019282156200366c579160200282015b828111156200366c578251825473ffffffffffffffffffffffffffffffffffffffff1916600160a060020a0390911617825560209092019160019091019062003628565b5062003603929150620036c7565b6040805160a081019091526000808252602082019081526020016000815260200160008152602001600081525090565b620028ab91905b80821115620036035760008155600101620036b1565b620028ab91905b808211156200360357805473ffffffffffffffffffffffffffffffffffffffff19168155600101620036ce56fe608060405260048054600160a060020a031916734e17c87c52d0e9a0cad3fbc53b77d9514f00380717905534801561003657600080fd5b506040516020806120728339810180604052602081101561005657600080fd5b5051600381905560008054600160a060020a0319163317905560405161007b9061014d565b604051809103906000f080158015610097573d6000803e3d6000fd5b5060018054600160a060020a031916600160a060020a039283161790819055604080517f23d840f500000000000000000000000000000000000000000000000000000000815260336004820152306024820152905191909216916323d840f59160448083019260209291908290030181600087803b15801561011857600080fd5b505af115801561012c573d6000803e3d6000fd5b505050506040513d602081101561014257600080fd5b50516002555061015a565b6110ce80610fa483390190565b610e3b806101696000396000f3fe60806040526004361061013c576000357c0100000000000000000000000000000000000000000000000000000000900480639588378e116100bd578063bea75f2811610081578063bea75f28146103d8578063d29b5d2f14610421578063ef0b236814610460578063f0786562146104ff578063f81f8bf6146104215761013c565b80639588378e146102d55780639d4c162d1461030e5780639f2ce67814610352578063ac7f05f914610384578063b551c373146103ae5761013c565b80635b8a1236116101045780635b8a1236146102185780636935bda61461022d5780636b8eb4031461025d5780637bdd52bd1461029657806386a42663146102c05761013c565b80631290b2131461013e5780632a4c0a1a1461018157806334b67dc8146101b25780633fafa127146101ee5780634b6d440014610203575b005b34801561014a57600080fd5b506101686004803603602081101561016157600080fd5b5035610538565b6040805192835260208301919091528051918290030190f35b34801561018d57600080fd5b50610196610677565b60408051600160a060020a039092168252519081900360200190f35b3480156101be57600080fd5b506101dc600480360360208110156101d557600080fd5b5035610686565b60408051918252519081900360200190f35b3480156101fa57600080fd5b506101dc610698565b34801561020f57600080fd5b5061019661069e565b34801561022457600080fd5b506101966106ad565b34801561023957600080fd5b5061013c6004803603604081101561025057600080fd5b50803590602001356106bc565b34801561026957600080fd5b506101dc6004803603604081101561028057600080fd5b50600160a060020a0381351690602001356107df565b3480156102a257600080fd5b506101dc600480360360208110156102b957600080fd5b50356107e7565b3480156102cc57600080fd5b506101dc6107f9565b3480156102e157600080fd5b506101dc600480360360408110156102f857600080fd5b50600160a060020a0381351690602001356107ff565b34801561031a57600080fd5b5061033e6004803603604081101561033157600080fd5b50803590602001356108a3565b604080519115158252519081900360200190f35b34801561035e57600080fd5b5061013c6004803603604081101561037557600080fd5b50803590602001351515610ada565b34801561039057600080fd5b50610196600480360360208110156103a757600080fd5b5035610bf2565b3480156103ba57600080fd5b506101dc600480360360208110156103d157600080fd5b5035610c0d565b3480156103e457600080fd5b5061033e600480360360808110156103fb57600080fd5b50600160a060020a03813581169160208101359091169060408101359060600135610ca8565b34801561042d57600080fd5b5061033e6004803603606081101561044457600080fd5b50803590600160a060020a036020820135169060400135610cb2565b34801561046c57600080fd5b5061048a6004803603602081101561048357600080fd5b5035610cbb565b6040805160208082528351818301528351919283929083019185019080838360005b838110156104c45781810151838201526020016104ac565b50505050905090810190601f1680156104f15780820380516001836020036101000a031916815260200191505b509250505060405180910390f35b34801561050b57600080fd5b506101686004803603604081101561052257600080fd5b5080359060200135600160a060020a0316610d64565b60018054604080517fb4512913000000000000000000000000000000000000000000000000000000008152600481018590526024810193909352516000928392600160a060020a03169163b451291391604480820192602092909190829003018186803b1580156105a857600080fd5b505afa1580156105bc573d6000803e3d6000fd5b505050506040513d60208110156105d257600080fd5b5051600154604080517fb451291300000000000000000000000000000000000000000000000000000000815260048101879052600060248201529051929450600160a060020a039091169163b451291391604480820192602092909190829003018186803b15801561064357600080fd5b505afa158015610657573d6000803e3d6000fd5b505050506040513d602081101561066d57600080fd5b5051919391925050565b600454600160a060020a031681565b60056020526000908152604090205481565b60035481565b600154600160a060020a031681565b600054600160a060020a031681565b60015460028054604080517f88737b5e0000000000000000000000000000000000000000000000000000000081526004810193909352602483019190915260006044830181905230606484015290519092600160a060020a0316916388737b5e91608480830192602092919082900301818787803b15801561073d57600080fd5b505af1158015610751573d6000803e3d6000fd5b505050506040513d602081101561076757600080fd5b50516000818152600560209081526040808320879055600682528083208690556007909152808220805473ffffffffffffffffffffffffffffffffffffffff19163390811790915590519293509183917fe90bb18a6fc9203e3678a7f41e132910465e0fce1421609662d02c481fbfbcf891a3505050565b600092915050565b60066020526000908152604090205481565b60025481565b60008054600354604080517f48e2f8080000000000000000000000000000000000000000000000000000000081526004810192909252600160a060020a03868116602484015290519216916348e2f80891604480820192602092909190829003018186803b15801561087057600080fd5b505afa158015610884573d6000803e3d6000fd5b505050506040513d602081101561089a57600080fd5b50519392505050565b60008160011415610a9e57600080546003548583526005602090815260408085205460069092528085205481517f90fbc26300000000000000000000000000000000000000000000000000000000815260048101949094526024840192909252604483019190915260806064830152601160848301527f476f742066726f6d2070726f706f73616c00000000000000000000000000000060a483015251600160a060020a03909216926390fbc2639260c48084019382900301818387803b15801561096d57600080fd5b505af1158015610981573d6000803e3d6000fd5b505050600084815260056020526040812054111590506109e357600083815260076020526040808220549051600160a060020a0390911691303180156108fc02929091818181858888f193505050501580156109e1573d6000803e3d6000fd5b505b6000838152600660205260408120541115610a9e576004805460008581526006602090815260408083205481517fa9059cbb0000000000000000000000000000000000000000000000000000000081523396810196909652602486015251600160a060020a039093169363a9059cbb9360448083019491928390030190829087803b158015610a7157600080fd5b505af1158015610a85573d6000803e3d6000fd5b505050506040513d6020811015610a9b57600080fd5b50505b60408051838152905184917f7aee3b251fb70a99f585fd5c4dcf58d0d06214cb5613783bf0d8be2bdd4cb927919081900360200190a292915050565b600154600160a060020a031663359afa498383610af8576000610afb565b60015b6000336040518563ffffffff167c0100000000000000000000000000000000000000000000000000000000028152600401808581526020018460ff16815260200183815260200182600160a060020a0316600160a060020a03168152602001945050505050602060405180830381600087803b158015610b7a57600080fd5b505af1158015610b8e573d6000803e3d6000fd5b505050506040513d6020811015610ba457600080fd5b50339050827f18c281333a47d53d54122a7e7eab5dea68828361db06aa24ec6512a3baee304d83610bd6576000610bd9565b60015b6040805160ff9092168252519081900360200190a35050565b600760205260009081526040902054600160a060020a031681565b60008054600354604080517f0c78adcc000000000000000000000000000000000000000000000000000000008152600481019290925251600160a060020a0390921691630c78adcc91602480820192602092909190829003018186803b158015610c7657600080fd5b505afa158015610c8a573d6000803e3d6000fd5b505050506040513d6020811015610ca057600080fd5b505192915050565b6000949350505050565b60009392505050565b60408051818152606081810183529182919060208201818038833901905050905060005b6020811015610d5d57838160208110610cf457fe5b1a7f0100000000000000000000000000000000000000000000000000000000000000028282815181101515610d2557fe5b9060200101907effffffffffffffffffffffffffffffffffffffffffffffffffffffffffffff1916908160001a905350600201610cdf565b5092915050565b600154604080517f119ce91b00000000000000000000000000000000000000000000000000000000815260048101859052600160a060020a0384811660248301528251600094859492169263119ce91b926044808301939192829003018186803b158015610dd157600080fd5b505afa158015610de5573d6000803e3d6000fd5b505050506040513d6040811015610dfb57600080fd5b50805160209091015190959094509250505056fea165627a7a723058203d4643a19d39dc01408b8eab0198723cf8d50b085bd805a97322138af0bf6efa0029608060405234801561001057600080fd5b506110ae806100206000396000f3fe608060405234801561001057600080fd5b5060043610610128576000357c01000000000000000000000000000000000000000000000000000000009004806351d997b2116100bf578063a003651d1161008e578063a003651d14610337578063b451291314610354578063ba51b14e14610377578063c0835106146103b0578063e751f271146103cd57610128565b806351d997b2146102ce57806388737b5e146102d65780638d22651e146103105780639525c0cc1461031857610128565b8063289647e4116100fb578063289647e4146101f657806332ed5b1214610222578063359afa491461027a5780635142bc1e146102c657610128565b8063025068041461012d578063119ce91b1461016b57806321b4b3dc146101b057806323d840f5146101ca575b600080fd5b61014a6004803603602081101561014357600080fd5b50356103ea565b60408051928352600160a060020a0390911660208301528051918290030190f35b6101976004803603604081101561018157600080fd5b5080359060200135600160a060020a031661040c565b6040805192835260208301919091528051918290030190f35b6101b861045d565b60408051918252519081900360200190f35b6101b8600480360360408110156101e057600080fd5b5080359060200135600160a060020a0316610463565b6101b86004803603604081101561020c57600080fd5b5080359060200135600160a060020a03166104ee565b61023f6004803603602081101561023857600080fd5b5035610533565b604080519687529415156020870152600160a060020a03909316858501526060850191909152608084015260a0830152519081900360c00190f35b6102b26004803603608081101561029057600080fd5b5080359060208101359060408101359060600135600160a060020a0316610573565b604080519115158252519081900360200190f35b610197610622565b6102b261062a565b6101b8600480360360808110156102ec57600080fd5b50803590602081013590600160a060020a036040820135811691606001351661062f565b6101b8610891565b6103356004803603602081101561032e57600080fd5b5035610896565b005b6101b86004803603602081101561034d57600080fd5b50356108c7565b6101b86004803603604081101561036a57600080fd5b50803590602001356108dc565b6103946004803603602081101561038d57600080fd5b50356108fd565b60408051600160a060020a039092168252519081900360200190f35b6102b2600480360360208110156103c657600080fd5b5035610918565b6102b2600480360360208110156103e357600080fd5b5035610931565b60006020819052908152604090208054600190910154600160a060020a031682565b600080610417611036565b5050506000828152600160208181526040808420600160a060020a0386168552600601825292839020835180850190945280548085529201549201829052909250929050565b60035481565b6000606483111580156104765750600083115b151561048157600080fd5b600061048d84846104ee565b604080518082018252958652600160a060020a0394851660208088019182526000848152908190529190912095518655516001909501805473ffffffffffffffffffffffffffffffffffffffff191695909416949094179092555090919050565b60408051602080820194909452600160a060020a03929092166c0100000000000000000000000002828201528051808303603401815260549092019052805191012090565b60016020819052600091825260409091208054918101546002820154600383015460049093015460ff831693610100909304600160a060020a0316929086565b600084815260016020819052604082200154859060ff16151561059557600080fd5b60008681526001602052604090206105ab611036565b50600381015460009081526020818152604080832081518083019092528054825260010154600160a060020a0316918101829052919015610606576020820151600160a060020a031633146105ff57600080fd5b5084610609565b50335b61061589828a8a610965565b9998505050505050505050565b6000600a9091565b600190565b600083815260208190526040812054811061064957600080fd5b60008511801561065a5750600a8511155b151561066557600080fd5b600354604080516c01000000000000000000000000300260208083019190915260348083018590528351808403909101815260549092019092528051910120906106b690600163ffffffff610c0816565b6003556106c161104d565b606081018781526080820187815233604080850182815281516c01000000000000000000000000938402602082810191909152600160a060020a038b8116909502603483015283516028818403018152604890920184528151918101919091208752600181880181815260008a81528284528581208a5180825592519381018054965189166101000274ffffffffffffffffffffffffffffffffffffffff001995151560ff1990981697909717949094169590951790925596516002808501919091559551600384015560a0880151600490930192909255948152929093529190205416151561082457600160a060020a03841615156107ed5780516000908152600260205260409020805473ffffffffffffffffffffffffffffffffffffffff191633179055610824565b80516000908152600260205260409020805473ffffffffffffffffffffffffffffffffffffffff1916600160a060020a0386161790555b80516000908152600260209081526040918290205482518a815233928101929092528183018990529151600160a060020a039092169184917f75b4ff136cc5de5957574c797de3334eb1c141271922b825eb071e0487ba2c5c919081900360600190a35095945050505050565b600a81565b60008181526001602081905260409091200154819060ff1615156108b957600080fd5b6108c38233610c21565b5050565b60009081526001602052604090206002015490565b60009182526001602090815260408084209284526005909201905290205490565b600260205260009081526040902054600160a060020a031681565b6000908152600160208190526040909120015460ff1690565b600081815260016020819052604082200154829060ff16151561095357600080fd5b61095c83610d26565b91505b50919050565b6000848152600160205260408120600281015484111561098457600080fd5b6001810154604080517f9588378e000000000000000000000000000000000000000000000000000000008152600160a060020a038881166004830152602482018a90529151600093610100900490921691639588378e91604480820192602092909190829003018186803b1580156109fb57600080fd5b505afa158015610a0f573d6000803e3d6000fd5b505050506040513d6020811015610a2557600080fd5b5051905060008111610a9857604080517f08c379a000000000000000000000000000000000000000000000000000000000815260206004820152601b60248201527f5f766f746572206d75737420686176652072657075746174696f6e0000000000604482015290519081900360640190fd5b83811015610aa557600080fd5b83801515610ab05750805b600160a060020a038716600090815260068401602052604090206001015415610add57610add8888610c21565b6000868152600584016020526040902054610aff90829063ffffffff610c0816565b60008781526005850160205260409020556004830154610b2690829063ffffffff610c0816565b60048401556040805180820182528781526020808201848152600160a060020a03808c16600081815260068a0185528681209551865592516001909501949094558754825260028352908490205484518b8152928301869052845193949116928c927f066c061a3792cb3eb64a441a928655fcbafb4a54b49725fe9cd2951df5e7189e92908290030190a460408051600160a060020a0389163314158152905189917fe715e19c865cb724f3c292cc2fffc24d9cdd398e179fb366f008cc73028e1c52919081900360200190a2610bfc88610d26565b98975050505050505050565b600082820183811015610c1a57600080fd5b9392505050565b6000828152600160205260409020610c37611036565b50600160a060020a03821660009081526006820160209081526040808320815180830183528154808252600190920154818501819052918552600586019093529220549091610c8c919063ffffffff610fa516565b815160009081526005840160209081526040909120919091558101516004830154610cbc9163ffffffff610fa516565b6004830155600160a060020a03808416600081815260068501602090815260408083208381556001018390558654835260029091528082205490519293169187917f0ecab23267930de581498fac1af19a95c888ec6583921ee9c47473e16245d3c891a450505050565b600081815260016020819052604082200154829060ff161515610d4857600080fd5b60008381526001602081815260408084209283015481517fb551c373000000000000000000000000000000000000000000000000000000008152600481018990529151939493610100909104600160a060020a03169263b551c3739260248082019391829003018186803b158015610dbf57600080fd5b505afa158015610dd3573d6000803e3d6000fd5b505050506040513d6020811015610de957600080fd5b505160038301546000908152602081905260408120549192505b60028401548111610f985760008181526005850160205260409020546064840483021015610f9057610e3361104d565b506040805160c08101825285548152600186015460ff8116151560208301526101009004600160a060020a0316918101919091526002850154606082015260038501546080820152600485015460a0820152610e8e88610fba565b80516000908152600260209081526040918290205482518581529182018790528251600160a060020a03909116928b927f37471b9c9d295ffb1309ad070b8964700bfb7b555e8e8292d0b6cbc7dba35d10929081900390910190a38060400151600160a060020a0316639d4c162d89846040518363ffffffff167c01000000000000000000000000000000000000000000000000000000000281526004018083815260200182815260200192505050602060405180830381600087803b158015610f5757600080fd5b505af1158015610f6b573d6000803e3d6000fd5b505050506040513d6020811015610f8157600080fd5b5051965061095f945050505050565b600101610e03565b5060009695505050505050565b600082821115610fb457600080fd5b50900390565b6000818152600160205260408120905b60028201548111610fee576000818152600583016020526040812055600101610fca565b505060009081526001602081905260408220828155908101805474ffffffffffffffffffffffffffffffffffffffffff19169055600281018290556003810182905560040155565b604080518082019091526000808252602082015290565b6040805160c081018252600080825260208201819052918101829052606081018290526080810182905260a08101919091529056fea165627a7a72305820ff1c11a11cf3590584d367a53dd17ef3cd7f6895bf5bac1795fcfe740f3889ed0029a165627a7a723058204296a94dd79a8d45febbb29dca1e52c60985d1c3718f561371cf2a7353a8d4660029",
  "source": "pragma solidity ^0.5.0;\n\nimport \"./Vesting.sol\";\nimport \"./CompoundInterface.sol\";\nimport \"./ERC20.sol\";\nimport \"./VotingMachineCallback.sol\";\n\ncontract Firestarter is Vesting {\n\n\tenum FundType { DirectType, VestingType, CompoundType }\n\n\tstruct Withdraw {\n\t\tuint ethAmount;\n\t\tuint daiAmount;\n\t\tstring message;\n\t}\n\n\tstruct Fund {\n\t\tuint amount;\n\t\tFundType fundType;\n\t\tuint start;\n\t\tuint canceled;\n\t\tuint end;\n\t}\n\n\tstruct Project {\n\t\taddress owner;\n\t\tstring name;\n\t\tuint funds;\n\t\tuint daiFunds;\n\t\tmapping(address => Fund[]) allFunds;\n\t\t// solidity doesn't support array of structs in struct, so implementing it on my own\n\t\tmapping(uint => Withdraw) allWithdraws;\n\t\tuint totalWithdraws;\n\t\taddress[] investors;\n\t\tuint lastUpdate;\n\t\tuint vestRate;\n\t\tuint ethWithdrawn;\n\t\tuint daiWithdrawn;\n\t\taddress votingMachineCallback;\n\t}\n\n\tProject[] public projects;\n\n\t// Rinkeby test deployment\n\tCompoundInterface compound = CompoundInterface(0x61bbd7Bd5EE2A202d7e62519750170A52A8DFD45);\n\taddress public DAI_ADDRESS = 0x4e17c87c52d0E9a0cAd3Fbc53b77d9514F003807;\n\n\tevent ProjectCreated(uint indexed id, string name, address indexed owner);\n\tevent ProjectFunded(uint indexed id, uint amount, address from, FundType fundType);\n\tevent ProjectWithdraw(uint indexed id, uint ethAmount, uint daiAmount, string message);\n\n\tconstructor() public {\n\t\t// ERC20(DAI_ADDRESS).approve(address(compound), uint(-1));\n\t}\n\n\tfunction addProject(string memory _name) public {\n\t\t\n\t\tProject memory project;\n\t\tproject.owner = msg.sender;\n\t\tproject.name = _name;\n\t\tproject.votingMachineCallback = address(new VotingMachineCallback(totalProjects()));\n\n\t\tprojects.push(project);\n\n\t\temit ProjectCreated(projects.length-1, _name, msg.sender);\n\t}\n\t\n\tfunction fundProjectDirectly(uint _id) public payable {\n\t\t\n\t\tprojects[_id].funds += msg.value;\n\n\t\taddInvestorIfNeeded(msg.sender, _id);\n\n\t\tprojects[_id].allFunds[msg.sender].push(Fund({\n\t\t\t\tamount: msg.value,\n\t\t\t\tfundType: FundType.DirectType,\n\t\t\t\tcanceled: 0,\n\t\t\t\tend: 0,\n\t\t\t\tstart: block.number\n\t\t\t}));\n\n\t\temit ProjectFunded(_id, msg.value, msg.sender, FundType.DirectType);\n\t}\n\n\tfunction fundProjectByVesting(uint _id, uint _numOfBlocks) public payable {\n\t\taddInvestorIfNeeded(msg.sender, _id);\n\n\t\tprojects[_id].allFunds[msg.sender].push(Fund({\n\t\t\t\tamount: msg.value / _numOfBlocks,\n\t\t\t\tfundType: FundType.VestingType,\n\t\t\t\tcanceled: 0,\n\t\t\t\tend: block.number + _numOfBlocks,\n\t\t\t\tstart: block.number\n\t\t\t}));\n\n\t\taddVestingRecord(msg.value / _numOfBlocks, block.number + _numOfBlocks);\n\t\tupdateBalance(_id);\n\t\t\n\t\tprojects[_id].vestRate += msg.value / _numOfBlocks;\n\n\t\temit ProjectFunded(_id, msg.value, msg.sender, FundType.DirectType);\n\t}\n\n\t///@dev Before calling must approve contract to transferFrom Dai\n\tfunction fundProjectByCompound(uint _id, uint _daiAmount) public {\n\t\taddInvestorIfNeeded(msg.sender, _id);\n\n\t\tERC20(DAI_ADDRESS).transferFrom(msg.sender, address(this), _daiAmount);\n\n\t\tuint errCode = compound.supply(DAI_ADDRESS, _daiAmount);\n\n\t\tassert(errCode == 0);\n\n\t\tprojects[_id].daiFunds += _daiAmount;\n\n\t\tprojects[_id].allFunds[msg.sender].push(Fund({\n\t\t\tamount: _daiAmount,\n\t\t\tfundType: FundType.CompoundType,\n\t\t\tcanceled: 0,\n\t\t\tend: 0,\n\t\t\tstart: block.number\n\t\t}));\n        \n        emit ProjectFunded(_id, _daiAmount, msg.sender, FundType.CompoundType);\n\t}\n\n\tfunction stopFunding(uint _projectId, uint _fundId) public {\n\t\tFund memory fund = projects[_projectId].allFunds[msg.sender][_fundId];\n\t\t// can't stop one time payment\n\t\trequire(fund.fundType != FundType.DirectType);\n\t\trequire(fund.canceled == 0);\n\n\t\tif (fund.fundType == FundType.VestingType) {\n\t\t\tupdateBalance(_projectId);\n\n\t\t\tprojects[_projectId].vestRate -= fund.amount;\n\t\t\tprojects[_projectId].allFunds[msg.sender][_fundId].canceled = block.number;\n\t\t\tremoveVestingRecordWithRateAndBlock(fund.amount, fund.end);\n\t\t} else {\n\t\t\tcompound.withdraw(DAI_ADDRESS, fund.amount);\n\t\t\tERC20(DAI_ADDRESS).transfer(msg.sender, fund.amount);\n\t\t\tprojects[_projectId].daiWithdrawn -= fund.amount;\n\n\t\t\tprojects[_projectId].allFunds[msg.sender][_fundId].canceled = block.number;\n\t\t}\n\t}\n\n\tfunction withdraw(uint _projectId, uint _ethBalance, uint _daiBalance, string memory _message) public {\n\t\tuint currentFullBalance = compound.getSupplyBalance(address(this), DAI_ADDRESS);\n\n\t\t// update before we try to get it\n\t\tupdateBalance(_projectId);\n\t\tProject memory project = projects[_projectId];\n\n\t\trequire(project.owner == msg.sender || project.votingMachineCallback == msg.sender);\n\t\trequire(_ethBalance <= (project.funds - project.ethWithdrawn));\n\t\trequire(_daiBalance <= (currentFullBalance - project.daiFunds));\n\n\t\tif (_ethBalance > 0) {\n\t\t\tmsg.sender.transfer(_ethBalance);\n\t\t\tprojects[_projectId].ethWithdrawn += _ethBalance;\n\t\t}\n\n\t\tif (_daiBalance > 0) {\n\t\t\tcompound.withdraw(DAI_ADDRESS, _daiBalance);\n\t\t\tERC20(DAI_ADDRESS).transfer(msg.sender, _daiBalance);\n\t\t\tprojects[_projectId].daiWithdrawn += _daiBalance;\n\t\t}\n\n\t\tprojects[_projectId].allWithdraws[projects[_projectId].totalWithdraws] = Withdraw({\n\t\t\t\tethAmount: _ethBalance,\n\t\t\t\tdaiAmount: _daiBalance,\n\t\t\t\tmessage: _message\n\t\t\t});\n\t\tprojects[_projectId].totalWithdraws++;\n\n\t\temit ProjectWithdraw(_projectId, _ethBalance, _daiBalance, _message);\n\t}\n\n\tfunction getMaxWithdraws(uint _projectId) public view returns(uint maxEth, uint maxDai) {\n\t\tuint currentFullBalance = compound.getSupplyBalance(address(this), DAI_ADDRESS);\n\n\t\t// update before we try to get it\n\t\tuint balance;\n\t\tuint rate;\n\t\t(balance, rate) = getNewBalanceAndRateView(_projectId);\n\t\tProject memory project = projects[_projectId];\n\n\t\tmaxEth = (balance - project.ethWithdrawn);\n\t\tmaxDai = (currentFullBalance - project.daiFunds);\n\t}\n\n\tfunction getFullEarnings(uint _projectId) public view returns(uint fullEth, uint fullDai) {\n\t\tuint currentFullBalance = compound.getSupplyBalance(address(this), DAI_ADDRESS);\n\n\t\t// update before we try to get it\n\t\tuint rate;\n\t\t(fullEth, rate) = getNewBalanceAndRateView(_projectId);\n\t\tProject memory project = projects[_projectId];\n\t\tfullDai = (currentFullBalance - project.daiFunds) + project.daiWithdrawn;\n\t}\n\t\n\tfunction getFinance(uint _projectId) public view returns(uint earnedEthOneTime, uint earnedEthVested, uint earnedDai, uint vestedEth, uint vestedDai) {\n\t\tuint eth;\n\t\t(eth, earnedDai) = getFullEarnings(_projectId);\n\n\t\tvestedDai = compound.getSupplyBalance(address(this), DAI_ADDRESS);\n\n\t\tvestedEth = 0;\n\t\tearnedEthVested = 0;\n\t\tearnedEthOneTime = 0;\n\n\t\taddress[] memory investors = projects[_projectId].investors;\n\t\tfor (uint i=0; i<investors.length; i++) {\n\t\t\tuint count = totalFunds(_projectId, investors[i]);\n\n\t\t\tfor (uint j=0; j<count; j++) {\n\t\t\t\tif (projects[_projectId].allFunds[investors[i]][j].fundType == FundType.DirectType) {\n\t\t\t\t\tearnedEthOneTime += projects[_projectId].allFunds[investors[i]][j].amount;\n\t\t\t\t} else if (projects[_projectId].allFunds[investors[i]][j].fundType == FundType.VestingType) {\n\t\t\t\t\tearnedEthVested += (getEndBlock(projects[_projectId].allFunds[investors[i]][j])-projects[_projectId].allFunds[investors[i]][j].start) * projects[_projectId].allFunds[investors[i]][j].amount;\n\t\t\t\t\tvestedEth += (projects[_projectId].allFunds[investors[i]][j].end-projects[_projectId].allFunds[investors[i]][j].start) * projects[_projectId].allFunds[investors[i]][j].amount;\n\t\t\t\t}\n\t\t\t} \n\t\t}\n\t}\n\n\tfunction updateBalance(uint _id) public {\n\t\tuint balance;\n\t\tuint rate;\n\t\t(balance, rate) = getNewBalanceAndRate(_id);\n\n\t\tprojects[_id].funds = balance;\n\t\tprojects[_id].vestRate = rate;\n\t\tprojects[_id].lastUpdate = block.number;\n\t}\n\n\tfunction getNewBalanceAndRate(uint _id) internal returns(uint, uint) {\n\t\tuint previous = findPrevious(block.number);\n\n\t\tuint curr = firstVestingRecord;\n\t\tuint rate = projects[_id].vestRate;\n\t\tuint balance = projects[_id].funds;\n\t\tuint lastUpdate = projects[_id].lastUpdate;\n\n\t\tif (previous != 0) {\n\t\t\twhile (curr != previous) {\n\t\t\t\tbalance += (allVestings[curr].block - lastUpdate) * rate;\n\t\t\t\trate -= allVestings[curr].rate;\n\t\t\t\tlastUpdate = allVestings[curr].block;\n\n\t\t\t\tuint next = allVestings[curr].next;\n\t\t\t\tremoveVestingRecord(curr);\n\t\t\t\tcurr = next;\n\t\t\t}\n\t\t\t\n\t\t\tbalance += (allVestings[curr].block - lastUpdate) * rate;\n\t\t\trate -= allVestings[curr].rate;\n\t\t\tlastUpdate = allVestings[curr].block;\n\n\t\t\tremoveVestingRecord(curr);\n\t\t} \n\n\t\tbalance += (block.number - lastUpdate) * rate;\n\n\t\treturn (balance, rate);\n\t}\n\n\tfunction getNewBalanceAndRateView(uint _id) public view returns(uint, uint) {\n\t\tuint previous = findPrevious(block.number);\n\n\t\tuint curr = firstVestingRecord;\n\t\tuint rate = projects[_id].vestRate;\n\t\tuint balance = projects[_id].funds;\n\t\tuint lastUpdate = projects[_id].lastUpdate;\n\n\t\tif (previous != 0) {\n\t\t\twhile (curr != previous) {\n\t\t\t\tbalance += (allVestings[curr].block - lastUpdate) * rate;\n\t\t\t\trate -= allVestings[curr].rate;\n\t\t\t\tlastUpdate = allVestings[curr].block;\n\n\t\t\t\tuint next = allVestings[curr].next;\n\t\t\t\t// removeVestingRecord(curr);\n\t\t\t\tcurr = next;\n\t\t\t}\n\t\t\t\n\t\t\tbalance += (allVestings[curr].block - lastUpdate) * rate;\n\t\t\trate -= allVestings[curr].rate;\n\t\t\tlastUpdate = allVestings[curr].block;\n\n\t\t\t// removeVestingRecord(curr);\n\t\t} \n\n\t\tbalance += (block.number - lastUpdate) * rate;\n\n\t\treturn (balance, rate);\n\t}\n\n\tfunction addInvestorIfNeeded(address _user, uint _projectId) internal {\n\t\t//needs to change this in future\n\n\t\tif (projects[_projectId].allFunds[_user].length == 0) {\n\t\t\tprojects[_projectId].investors.push(_user);\n\t\t}\n\t}\n\n\tfunction hasLockedFunds(uint _projectId, address _from) public view returns(bool) {\n        Fund[] memory funds = projects[_projectId].allFunds[_from];\n\n        for (uint i = 0; i < funds.length; ++i) {\n            if (funds[i].fundType == FundType.CompoundType || funds[i].fundType == FundType.VestingType) {\n                if (block.number < funds[i].end && funds[i].canceled == 0) {\n                    return true;\n                }\n            }\n        }\n\n        return false;\n    }\n\n\tfunction userFundedProject(uint _projectId, address _user) public view returns(uint) {\n\t\tFund[] memory userFunds = projects[_projectId].allFunds[_user];\n\n\t\tuint count = userFunds.length;\n\t\tuint balance = 0;\n\n\t\tfor (uint i=0; i < count; i++) {\n\t\t\tif (userFunds[i].fundType == FundType.DirectType) {\n\t\t\t\tbalance += userFunds[i].amount;\n\t\t\t} else if (userFunds[i].fundType == FundType.VestingType) {\n\t\t\t\tbalance += (getEndBlock(userFunds[i]) - userFunds[i].start) * userFunds[i].amount;\n\t\t\t} else {\n\t\t\t\tuint amount = (userFunds[i].amount / 100);\n\t\t\t\tuint perBlock = amount / 2102400;\n\t\t\t\tbalance += (getEndBlock(userFunds[i]) - userFunds[i].start) * perBlock;\n\t\t\t}\n\t\t}\n\n\t\treturn balance;\n\t}\n\n\tfunction maxReputation(uint _projectId) public view returns(uint) {\n\t\taddress[] memory investors = projects[_projectId].investors;\n\t\tuint balance = 0;\n\n\t\tfor (uint i=0; i<investors.length; i++) {\n\t\t\tbalance += userFundedProject(_projectId, investors[i]);\n\t\t}\n\n\t\treturn balance;\n\t}\n\n\tfunction getEndBlock(Fund memory _fund) internal view returns(uint endBlock) {\n\t\tendBlock = block.number;\n\n\t\tif (_fund.canceled != 0) { endBlock = _fund.canceled; }\n\t\tif (_fund.end < endBlock) { endBlock = _fund.end; }\n\t}\n\n\tfunction totalProjects() public view returns(uint) {\n\t\treturn projects.length;\n\t}\n\n\tfunction totalFunds(uint _projectId, address _from) public view returns(uint) {\n\t\treturn projects[_projectId].allFunds[_from].length;\n\t}\n\n\tfunction getFund(uint _projectId, address _from, uint _fundId) public view returns(uint amount, FundType fundType, uint canceled, uint end, uint start) {\n\t    Fund memory fund = projects[_projectId].allFunds[_from][_fundId];\n\t    \n\t    amount = fund.amount;\n\t    fundType = fund.fundType;\n\t    canceled = fund.canceled;\n\t    end = fund.end;\n\t    start = fund.start;\n\t}\n\t\n\t// remix for skipping few blocks\n\tfunction skip() public {}\n}\n",
  "sourcePath": "/Users/nikolaklipa/Hakaton/Firestarter/contracts/Firestarter.sol",
  "compiler": {
    "name": "solc",
    "version": "0.5.4+commit.9549d8ff.Emscripten.clang"
  },
  "schemaVersion": "3.0.2",
  "updatedAt": "2019-03-10T06:13:48.977Z",
  "devdoc": {
    "methods": {
      "fundProjectByCompound(uint256,uint256)": {
        "details": "Before calling must approve contract to transferFrom Dai"
      }
    }
  },
  "userdoc": {
    "methods": {}
  }
}