{
  "contractName": "Vesting",
  "abi": [
    {
      "constant": true,
      "inputs": [],
      "name": "firstVestingRecord",
      "outputs": [
        {
          "name": "",
          "type": "uint256"
        }
      ],
      "payable": false,
      "stateMutability": "view",
      "type": "function"
    },
    {
      "constant": true,
      "inputs": [
        {
          "name": "",
          "type": "uint256"
        }
      ],
      "name": "allVestings",
      "outputs": [
        {
          "name": "rate",
          "type": "uint256"
        },
        {
          "name": "block",
          "type": "uint256"
        },
        {
          "name": "next",
          "type": "uint256"
        }
      ],
      "payable": false,
      "stateMutability": "view",
      "type": "function"
    },
    {
      "constant": true,
      "inputs": [],
      "name": "maxId",
      "outputs": [
        {
          "name": "",
          "type": "uint256"
        }
      ],
      "payable": false,
      "stateMutability": "view",
      "type": "function"
    },
    {
      "constant": true,
      "inputs": [],
      "name": "totalVestings",
      "outputs": [
        {
          "name": "",
          "type": "uint256"
        }
      ],
      "payable": false,
      "stateMutability": "view",
      "type": "function"
    },
    {
      "constant": false,
      "inputs": [
        {
          "name": "_rate",
          "type": "uint256"
        },
        {
          "name": "_block",
          "type": "uint256"
        }
      ],
      "name": "removeVestingRecordWithRateAndBlock",
      "outputs": [],
      "payable": false,
      "stateMutability": "nonpayable",
      "type": "function"
    },
    {
      "constant": true,
      "inputs": [
        {
          "name": "_block",
          "type": "uint256"
        }
      ],
      "name": "findPrevious",
      "outputs": [
        {
          "name": "",
          "type": "uint256"
        }
      ],
      "payable": false,
      "stateMutability": "view",
      "type": "function"
    },
    {
      "constant": true,
      "inputs": [
        {
          "name": "_id",
          "type": "uint256"
        }
      ],
      "name": "findPreviousWithId",
      "outputs": [
        {
          "name": "",
          "type": "uint256"
        }
      ],
      "payable": false,
      "stateMutability": "view",
      "type": "function"
    },
    {
      "constant": true,
      "inputs": [],
      "name": "getArr",
      "outputs": [
        {
          "name": "arr",
          "type": "uint256[]"
        }
      ],
      "payable": false,
      "stateMutability": "view",
      "type": "function"
    }
  ],
  "bytecode": "0x6080604052600160025534801561001557600080fd5b50610498806100256000396000f3fe608060405234801561001057600080fd5b50600436106100a5576000357c010000000000000000000000000000000000000000000000000000000090048063bf5a138311610078578063bf5a138314610123578063c5ea3c651461015e578063d7ba691e14610166578063fb8cbced1461016e576100a5565b80636f371095146100aa578063950deaef146100d95780639c328a48146100fe578063a8184b641461011b575b600080fd5b6100c7600480360360208110156100c057600080fd5b50356101c6565b60408051918252519081900360200190f35b6100fc600480360360408110156100ef57600080fd5b508035906020013561025a565b005b6100c76004803603602081101561011457600080fd5b50356102e1565b6100c7610317565b6101406004803603602081101561013957600080fd5b503561031d565b60408051938452602084019290925282820152519081900360600190f35b6100c761033e565b6100c7610344565b61017661034a565b60408051602080825283518183015283519192839290830191858101910280838360005b838110156101b257818101518382015260200161019a565b505050509050019250505060405180910390f35b6003546000905b60008181526020819052604090206002015415801590610206575060008181526020819052604080822060020154825290206001015483115b15610222576000908152602081905260409020600201546101cd565b60035481148015610243575060008181526020819052604090206001015483105b15610252576000915050610255565b90505b919050565b60035460005b600082815260208190526040902060020154156102c957600082815260208190526040902054841480156102a4575060008281526020819052604090206001015483145b156102b05750806102c9565b6000918252602082905260409091206002015490610260565b60008111156102db576102db81610412565b50505050565b6003546000905b6000818152602081905260409020600201548314610252576000908152602081905260409020600201546102e8565b60035481565b60006020819052908152604090208054600182015460029092015490919083565b60025481565b60015481565b6060600154604051908082528060200260200182016040528015610378578160200160208202803883390190505b5060035490915060005b600082815260208190526040902060020154156103e15760008281526020819052604090206001015483518490839081106103b957fe5b6020908102909101810191909152600092835282905260409091206002015490600101610382565b600082815260208190526040902060010154835184908390811061040157fe5b602090810290910101525090919050565b6003548114156104365760008181526020819052604090206002015460035561045f565b6000610441826102e1565b60008381526020819052604080822060029081015493835291200155505b506001805460001901905556fea165627a7a7230582018ae329440dfe33be9f3998c6a8f6f4a7151273eb61ba3bdb799810521c82a810029",
  "source": "pragma solidity ^0.5.0;\n\ncontract Vesting {\t\n\n\tstruct VestingRecord {\n\t\tuint rate;\n\t\tuint block;\n\t\tuint next;\n\t}\n\n\tmapping(uint => VestingRecord) public allVestings;\n\tuint public totalVestings;\n\tuint public maxId = 1;\n\tuint public firstVestingRecord;\n\n\tfunction addVestingRecord(uint _rate, uint _block) internal returns(uint id) {\n\t\tid = maxId;\n\n\t\tallVestings[id] = VestingRecord({\n\t\t\trate: _rate,\n\t\t\tblock: _block,\n\t\t\tnext: 0\t\t\n\t\t});\n\n\t\tif (totalVestings > 0) {\n\t\t\tuint previous = findPrevious(_block);\n\t\t\tif (previous == 0) {\n\t\t\t    allVestings[id].next = firstVestingRecord;\n\t\t\t\tfirstVestingRecord = id;\n\t\t\t} else {\n            \tallVestings[id].next = allVestings[previous].next;\n    \t\t\tallVestings[previous].next = id;\n\t\t\t}\n\t\t} else {\n\t\t\tfirstVestingRecord = id;\n\t\t}\n\n\t\ttotalVestings++;\n\t\tmaxId++;\n\t}\n\n\tfunction removeVestingRecord(uint _id) internal {\n\t\tif (_id == firstVestingRecord) {\n\t\t\tfirstVestingRecord = allVestings[_id].next;\n\t\t} else {\n\t\t\t// its not possible to be 0\n\t\t\tuint previous = findPreviousWithId(_id);\n\t\t\tallVestings[previous].next = allVestings[_id].next;\n\t\t}\n\n\t\ttotalVestings--;\n\t}\n\n\tfunction removeVestingRecordWithRateAndBlock(uint _rate, uint _block) public {\n\t\tuint curr = firstVestingRecord;\n\t\tuint found = 0;\n\t\twhile (allVestings[curr].next != 0) {\n\t\t\tif (allVestings[curr].rate == _rate && allVestings[curr].block == _block) {\n\t\t\t\tfound = curr;\n\t\t\t\tbreak;\n\t\t\t}\n\n\t\t\tcurr = allVestings[curr].next;\n\t\t}\n\n\t\tif (found > 0) {\n\t\t\tremoveVestingRecord(found);\n\t\t}\n\t}\n\t\n\n\tfunction findPrevious(uint _block) public view returns(uint) {\n\t\tuint curr = firstVestingRecord;\n\n\t\twhile (allVestings[curr].next != 0 && allVestings[allVestings[curr].next].block < _block) {\n\t\t\tcurr = allVestings[curr].next;\n\t\t}\n\n        // send 0 if it needs to be added on start\n        if (curr == firstVestingRecord && allVestings[curr].block > _block) {\n            return 0;\n        }\n        \n\t\treturn curr;\n\t}\n\n\tfunction findPreviousWithId(uint _id) public view returns(uint) {\n\t\tuint curr = firstVestingRecord;\n\n\t\twhile (allVestings[curr].next != _id) {\n\t\t\tcurr = allVestings[curr].next;\n\t\t}\n        \n\t\treturn curr;\n\t}\n\n\tfunction getArr() public view returns(uint[] memory arr) {\n\t\tarr = new uint[](totalVestings);\n\n\t\tuint curr = firstVestingRecord;\n\t\tuint count = 0;\n\t\twhile (allVestings[curr].next != 0) {\n\t\t\tarr[count] = allVestings[curr].block;\n\t\t\tcount++;\n\t\t\tcurr = allVestings[curr].next;\n\t\t}\t\t\n\t\tarr[count] = allVestings[curr].block;\n\t}\n\n}\n",
  "sourcePath": "/Users/nenadpalinkasevic/Desktop/blockchain/Firestarter/contracts/Vesting.sol",
  "compiler": {
    "name": "solc",
    "version": "0.5.4+commit.9549d8ff.Emscripten.clang"
  },
  "schemaVersion": "3.0.0",
  "updatedAt": "2019-03-10T00:42:23.704Z",
  "devdoc": {
    "methods": {}
  },
  "userdoc": {
    "methods": {}
  }
}