{
  "contractName": "Vesting",
  "abi": [
    {
      "constant": true,
      "inputs": [],
      "name": "firstVestingRecord",
      "outputs": [
        {
          "name": "",
          "type": "uint256"
        }
      ],
      "payable": false,
      "stateMutability": "view",
      "type": "function"
    },
    {
      "constant": true,
      "inputs": [
        {
          "name": "",
          "type": "uint256"
        }
      ],
      "name": "allVestings",
      "outputs": [
        {
          "name": "rate",
          "type": "uint256"
        },
        {
          "name": "block",
          "type": "uint256"
        },
        {
          "name": "next",
          "type": "uint256"
        }
      ],
      "payable": false,
      "stateMutability": "view",
      "type": "function"
    },
    {
      "constant": true,
      "inputs": [],
      "name": "maxId",
      "outputs": [
        {
          "name": "",
          "type": "uint256"
        }
      ],
      "payable": false,
      "stateMutability": "view",
      "type": "function"
    },
    {
      "constant": true,
      "inputs": [],
      "name": "totalVestings",
      "outputs": [
        {
          "name": "",
          "type": "uint256"
        }
      ],
      "payable": false,
      "stateMutability": "view",
      "type": "function"
    },
    {
      "constant": false,
      "inputs": [
        {
          "name": "_rate",
          "type": "uint256"
        },
        {
          "name": "_block",
          "type": "uint256"
        }
      ],
      "name": "addVestingRecord",
      "outputs": [
        {
          "name": "id",
          "type": "uint256"
        }
      ],
      "payable": false,
      "stateMutability": "nonpayable",
      "type": "function"
    },
    {
      "constant": false,
      "inputs": [
        {
          "name": "_id",
          "type": "uint256"
        }
      ],
      "name": "removeVestingRecord",
      "outputs": [],
      "payable": false,
      "stateMutability": "nonpayable",
      "type": "function"
    },
    {
      "constant": true,
      "inputs": [
        {
          "name": "_block",
          "type": "uint256"
        }
      ],
      "name": "findPrevious",
      "outputs": [
        {
          "name": "",
          "type": "uint256"
        }
      ],
      "payable": false,
      "stateMutability": "view",
      "type": "function"
    },
    {
      "constant": true,
      "inputs": [
        {
          "name": "_id",
          "type": "uint256"
        }
      ],
      "name": "findPreviousWithId",
      "outputs": [
        {
          "name": "",
          "type": "uint256"
        }
      ],
      "payable": false,
      "stateMutability": "view",
      "type": "function"
    },
    {
      "constant": true,
      "inputs": [],
      "name": "getArr",
      "outputs": [
        {
          "name": "arr",
          "type": "uint256[]"
        }
      ],
      "payable": false,
      "stateMutability": "view",
      "type": "function"
    }
  ],
  "bytecode": "0x6080604052600160025534801561001557600080fd5b50610560806100256000396000f3fe6080604052600436106100985763ffffffff7c0100000000000000000000000000000000000000000000000000000000600035041663416bb0d7811461009d5780636f371095146100c95780639c328a4814610105578063a8184b641461012f578063bf5a138314610144578063c5ea3c651461018c578063d7ba691e146101a1578063facbe90c146101b6578063fb8cbced146101e6575b600080fd5b3480156100a957600080fd5b506100c7600480360360208110156100c057600080fd5b503561024b565b005b3480156100d557600080fd5b506100f3600480360360208110156100ec57600080fd5b50356102a5565b60408051918252519081900360200190f35b34801561011157600080fd5b506100f36004803603602081101561012857600080fd5b5035610339565b34801561013b57600080fd5b506100f361036f565b34801561015057600080fd5b5061016e6004803603602081101561016757600080fd5b5035610375565b60408051938452602084019290925282820152519081900360600190f35b34801561019857600080fd5b506100f3610396565b3480156101ad57600080fd5b506100f361039c565b3480156101c257600080fd5b506100f3600480360360408110156101d957600080fd5b50803590602001356103a2565b3480156101f257600080fd5b506101fb61046c565b60408051602080825283518183015283519192839290830191858101910280838360005b8381101561023757818101518382015260200161021f565b505050509050019250505060405180910390f35b60035481141561026f57600081815260208190526040902060020154600355610298565b600061027a82610339565b60008381526020819052604080822060029081015493835291200155505b5060018054600019019055565b6003546000905b600081815260208190526040902060020154158015906102e5575060008181526020819052604080822060020154825290206001015483115b15610301576000908152602081905260409020600201546102ac565b60035481148015610322575060008181526020819052604090206001015483105b15610331576000915050610334565b90505b919050565b6003546000905b600081815260208190526040902060020154831461033157600090815260208190526040902060020154610340565b60035481565b60006020819052908152604090208054600182015460029092015490919083565b60025481565b60015481565b6002805460408051606081018252858152602080820186815260008385018181528682529281905293842092518355516001808401919091559051919094015591549091101561044f5760006103f7836102a5565b905080151561041e5760038054600084815260208190526040902060020155829055610449565b6000818152602081905260408082206002908101805486855292842090910191909155908290528290555b50610455565b60038190555b600180548101815560028054909101905592915050565b606060015460405190808252806020026020018201604052801561049a578160200160208202803883390190505b5060035490915060005b600082815260208190526040902060020154156105035760008281526020819052604090206001015483518490839081106104db57fe5b60209081029091018101919091526000928352829052604090912060020154906001016104a4565b600082815260208190526040902060010154835184908390811061052357fe5b60209081029091010152509091905056fea165627a7a7230582099d41f8addc430051cb48df11f42feaae134bc56de515ac162e5eadf22c7a4fa0029",
  "source": "pragma solidity ^0.5.0;\n\ncontract Vesting {\t\n\n\tstruct VestingRecord {\n\t\tuint rate;\n\t\tuint block;\n\t\tuint next;\n\t}\n\n\tmapping(uint => VestingRecord) public allVestings;\n\tuint public totalVestings;\n\tuint public maxId = 1;\n\tuint public firstVestingRecord;\n\n\tfunction addVestingRecord(uint _rate, uint _block) public returns(uint id) {\n\t\tid = maxId;\n\n\t\tallVestings[id] = VestingRecord({\n\t\t\trate: _rate,\n\t\t\tblock: _block,\n\t\t\tnext: 0\t\t\n\t\t});\n\n\t\tif (totalVestings > 0) {\n\t\t\tuint previous = findPrevious(_block);\n\t\t\tif (previous == 0) {\n\t\t\t    allVestings[id].next = firstVestingRecord;\n\t\t\t\tfirstVestingRecord = id;\n\t\t\t} else {\n            \tallVestings[id].next = allVestings[previous].next;\n    \t\t\tallVestings[previous].next = id;\n\t\t\t}\n\t\t} else {\n\t\t\tfirstVestingRecord = id;\n\t\t}\n\n\t\ttotalVestings++;\n\t\tmaxId++;\n\t}\n\n\tfunction removeVestingRecord(uint _id) public {\n\t\tif (_id == firstVestingRecord) {\n\t\t\tfirstVestingRecord = allVestings[_id].next;\n\t\t} else {\n\t\t\t// its not possible to be 0\n\t\t\tuint previous = findPreviousWithId(_id);\n\t\t\tallVestings[previous].next = allVestings[_id].next;\n\t\t}\n\n\t\ttotalVestings--;\n\t}\n\t\n\n\tfunction findPrevious(uint _block) public view returns(uint) {\n\t\tuint curr = firstVestingRecord;\n\n\t\twhile (allVestings[curr].next != 0 && allVestings[allVestings[curr].next].block < _block) {\n\t\t\tcurr = allVestings[curr].next;\n\t\t}\n\n        // send 0 if it needs to be added on start\n        if (curr == firstVestingRecord && allVestings[curr].block > _block) {\n            return 0;\n        }\n        \n\t\treturn curr;\n\t}\n\n\tfunction findPreviousWithId(uint _id) public view returns(uint) {\n\t\tuint curr = firstVestingRecord;\n\n\t\twhile (allVestings[curr].next != _id) {\n\t\t\tcurr = allVestings[curr].next;\n\t\t}\n        \n\t\treturn curr;\n\t}\n\n\tfunction getArr() public view returns(uint[] memory arr) {\n\t\tarr = new uint[](totalVestings);\n\n\t\tuint curr = firstVestingRecord;\n\t\tuint count = 0;\n\t\twhile (allVestings[curr].next != 0) {\n\t\t\tarr[count] = allVestings[curr].block;\n\t\t\tcount++;\n\t\t\tcurr = allVestings[curr].next;\n\t\t}\t\t\n\t\tarr[count] = allVestings[curr].block;\n\t}\n\t\n\n}\n",
  "sourcePath": "/Users/nikolaklipa/Hakaton/Firestarter/contracts/Vesting.sol",
  "compiler": {
    "name": "solc",
    "version": "0.5.0+commit.1d4f565a.Emscripten.clang"
  },
  "schemaVersion": "3.0.1",
  "updatedAt": "2019-03-09T00:05:43.651Z",
  "devdoc": {
    "methods": {}
  },
  "userdoc": {
    "methods": {}
  }
}