{
  "contractName": "Vesting",
  "abi": [
    {
      "constant": true,
      "inputs": [],
      "name": "firstVestingRecord",
      "outputs": [
        {
          "name": "",
          "type": "uint256"
        }
      ],
      "payable": false,
      "stateMutability": "view",
      "type": "function"
    },
    {
      "constant": true,
      "inputs": [
        {
          "name": "",
          "type": "uint256"
        }
      ],
      "name": "allVestings",
      "outputs": [
        {
          "name": "rate",
          "type": "uint256"
        },
        {
          "name": "block",
          "type": "uint256"
        },
        {
          "name": "next",
          "type": "uint256"
        }
      ],
      "payable": false,
      "stateMutability": "view",
      "type": "function"
    },
    {
      "constant": true,
      "inputs": [],
      "name": "maxId",
      "outputs": [
        {
          "name": "",
          "type": "uint256"
        }
      ],
      "payable": false,
      "stateMutability": "view",
      "type": "function"
    },
    {
      "constant": true,
      "inputs": [],
      "name": "totalVestings",
      "outputs": [
        {
          "name": "",
          "type": "uint256"
        }
      ],
      "payable": false,
      "stateMutability": "view",
      "type": "function"
    },
    {
      "constant": true,
      "inputs": [
        {
          "name": "_block",
          "type": "uint256"
        }
      ],
      "name": "findPrevious",
      "outputs": [
        {
          "name": "",
          "type": "uint256"
        }
      ],
      "payable": false,
      "stateMutability": "view",
      "type": "function"
    },
    {
      "constant": true,
      "inputs": [
        {
          "name": "_id",
          "type": "uint256"
        }
      ],
      "name": "findPreviousWithId",
      "outputs": [
        {
          "name": "",
          "type": "uint256"
        }
      ],
      "payable": false,
      "stateMutability": "view",
      "type": "function"
    },
    {
      "constant": true,
      "inputs": [],
      "name": "getArr",
      "outputs": [
        {
          "name": "arr",
          "type": "uint256[]"
        }
      ],
      "payable": false,
      "stateMutability": "view",
      "type": "function"
    }
  ],
  "bytecode": "0x6080604052600160025534801561001557600080fd5b506103ca806100256000396000f3fe6080604052600436106100825763ffffffff7c01000000000000000000000000000000000000000000000000000000006000350416636f37109581146100875780639c328a48146100c3578063a8184b64146100ed578063bf5a138314610102578063c5ea3c651461014a578063d7ba691e1461015f578063fb8cbced14610174575b600080fd5b34801561009357600080fd5b506100b1600480360360208110156100aa57600080fd5b50356101d9565b60408051918252519081900360200190f35b3480156100cf57600080fd5b506100b1600480360360208110156100e657600080fd5b503561026d565b3480156100f957600080fd5b506100b16102a3565b34801561010e57600080fd5b5061012c6004803603602081101561012557600080fd5b50356102a9565b60408051938452602084019290925282820152519081900360600190f35b34801561015657600080fd5b506100b16102ca565b34801561016b57600080fd5b506100b16102d0565b34801561018057600080fd5b506101896102d6565b60408051602080825283518183015283519192839290830191858101910280838360005b838110156101c55781810151838201526020016101ad565b505050509050019250505060405180910390f35b6003546000905b60008181526020819052604090206002015415801590610219575060008181526020819052604080822060020154825290206001015483115b15610235576000908152602081905260409020600201546101e0565b60035481148015610256575060008181526020819052604090206001015483105b15610265576000915050610268565b90505b919050565b6003546000905b600081815260208190526040902060020154831461026557600090815260208190526040902060020154610274565b60035481565b60006020819052908152604090208054600182015460029092015490919083565b60025481565b60015481565b6060600154604051908082528060200260200182016040528015610304578160200160208202803883390190505b5060035490915060005b6000828152602081905260409020600201541561036d57600082815260208190526040902060010154835184908390811061034557fe5b602090810290910181019190915260009283528290526040909120600201549060010161030e565b600082815260208190526040902060010154835184908390811061038d57fe5b60209081029091010152509091905056fea165627a7a72305820b25da5340cb92d2dbd507c9f8797c95d9f025ea10cb3aa9ddcaea50de4a804ca0029",
  "source": "pragma solidity ^0.5.0;\n\ncontract Vesting {\t\n\n\tstruct VestingRecord {\n\t\tuint rate;\n\t\tuint block;\n\t\tuint next;\n\t}\n\n\tmapping(uint => VestingRecord) public allVestings;\n\tuint public totalVestings;\n\tuint public maxId = 1;\n\tuint public firstVestingRecord;\n\n\tfunction addVestingRecord(uint _rate, uint _block) internal returns(uint id) {\n\t\tid = maxId;\n\n\t\tallVestings[id] = VestingRecord({\n\t\t\trate: _rate,\n\t\t\tblock: _block,\n\t\t\tnext: 0\t\t\n\t\t});\n\n\t\tif (totalVestings > 0) {\n\t\t\tuint previous = findPrevious(_block);\n\t\t\tif (previous == 0) {\n\t\t\t    allVestings[id].next = firstVestingRecord;\n\t\t\t\tfirstVestingRecord = id;\n\t\t\t} else {\n            \tallVestings[id].next = allVestings[previous].next;\n    \t\t\tallVestings[previous].next = id;\n\t\t\t}\n\t\t} else {\n\t\t\tfirstVestingRecord = id;\n\t\t}\n\n\t\ttotalVestings++;\n\t\tmaxId++;\n\t}\n\n\tfunction removeVestingRecord(uint _id) internal {\n\t\tif (_id == firstVestingRecord) {\n\t\t\tfirstVestingRecord = allVestings[_id].next;\n\t\t} else {\n\t\t\t// its not possible to be 0\n\t\t\tuint previous = findPreviousWithId(_id);\n\t\t\tallVestings[previous].next = allVestings[_id].next;\n\t\t}\n\n\t\ttotalVestings--;\n\t}\n\t\n\n\tfunction findPrevious(uint _block) public view returns(uint) {\n\t\tuint curr = firstVestingRecord;\n\n\t\twhile (allVestings[curr].next != 0 && allVestings[allVestings[curr].next].block < _block) {\n\t\t\tcurr = allVestings[curr].next;\n\t\t}\n\n        // send 0 if it needs to be added on start\n        if (curr == firstVestingRecord && allVestings[curr].block > _block) {\n            return 0;\n        }\n        \n\t\treturn curr;\n\t}\n\n\tfunction findPreviousWithId(uint _id) public view returns(uint) {\n\t\tuint curr = firstVestingRecord;\n\n\t\twhile (allVestings[curr].next != _id) {\n\t\t\tcurr = allVestings[curr].next;\n\t\t}\n        \n\t\treturn curr;\n\t}\n\n\tfunction getArr() public view returns(uint[] memory arr) {\n\t\tarr = new uint[](totalVestings);\n\n\t\tuint curr = firstVestingRecord;\n\t\tuint count = 0;\n\t\twhile (allVestings[curr].next != 0) {\n\t\t\tarr[count] = allVestings[curr].block;\n\t\t\tcount++;\n\t\t\tcurr = allVestings[curr].next;\n\t\t}\t\t\n\t\tarr[count] = allVestings[curr].block;\n\t}\n\n}\n",
  "sourcePath": "/Users/nikolaklipa/Hakaton/Firestarter/contracts/Vesting.sol",
  "compiler": {
    "name": "solc",
    "version": "0.5.0+commit.1d4f565a.Emscripten.clang"
  },
  "schemaVersion": "3.0.1",
  "updatedAt": "2019-03-09T11:00:38.337Z",
  "devdoc": {
    "methods": {}
  },
  "userdoc": {
    "methods": {}
  }
}