{
  "contractName": "VotingMachineCallback",
  "abi": [
    {
      "constant": true,
      "inputs": [],
      "name": "DAI_ADDRESS",
      "outputs": [
        {
          "name": "",
          "type": "address"
        }
      ],
      "payable": false,
      "stateMutability": "view",
      "type": "function"
    },
    {
      "constant": true,
      "inputs": [
        {
          "name": "",
          "type": "bytes32"
        }
      ],
      "name": "ethWanted",
      "outputs": [
        {
          "name": "",
          "type": "uint256"
        }
      ],
      "payable": false,
      "stateMutability": "view",
      "type": "function"
    },
    {
      "constant": true,
      "inputs": [],
      "name": "projectId",
      "outputs": [
        {
          "name": "",
          "type": "uint256"
        }
      ],
      "payable": false,
      "stateMutability": "view",
      "type": "function"
    },
    {
      "constant": true,
      "inputs": [],
      "name": "absoluteVote",
      "outputs": [
        {
          "name": "",
          "type": "address"
        }
      ],
      "payable": false,
      "stateMutability": "view",
      "type": "function"
    },
    {
      "constant": true,
      "inputs": [],
      "name": "firestarter",
      "outputs": [
        {
          "name": "",
          "type": "address"
        }
      ],
      "payable": false,
      "stateMutability": "view",
      "type": "function"
    },
    {
      "constant": true,
      "inputs": [
        {
          "name": "",
          "type": "bytes32"
        }
      ],
      "name": "daiWanted",
      "outputs": [
        {
          "name": "",
          "type": "uint256"
        }
      ],
      "payable": false,
      "stateMutability": "view",
      "type": "function"
    },
    {
      "constant": true,
      "inputs": [],
      "name": "paramsHash",
      "outputs": [
        {
          "name": "",
          "type": "bytes32"
        }
      ],
      "payable": false,
      "stateMutability": "view",
      "type": "function"
    },
    {
      "constant": true,
      "inputs": [
        {
          "name": "",
          "type": "bytes32"
        }
      ],
      "name": "proposer",
      "outputs": [
        {
          "name": "",
          "type": "address"
        }
      ],
      "payable": false,
      "stateMutability": "view",
      "type": "function"
    },
    {
      "inputs": [
        {
          "name": "_projectId",
          "type": "uint256"
        }
      ],
      "payable": false,
      "stateMutability": "nonpayable",
      "type": "constructor"
    },
    {
      "anonymous": false,
      "inputs": [
        {
          "indexed": true,
          "name": "proposalId",
          "type": "bytes32"
        },
        {
          "indexed": true,
          "name": "proposer",
          "type": "address"
        }
      ],
      "name": "ProposalCreated",
      "type": "event"
    },
    {
      "anonymous": false,
      "inputs": [
        {
          "indexed": true,
          "name": "proposalId",
          "type": "bytes32"
        },
        {
          "indexed": false,
          "name": "decision",
          "type": "int256"
        }
      ],
      "name": "ProposalFinished",
      "type": "event"
    },
    {
      "anonymous": false,
      "inputs": [
        {
          "indexed": true,
          "name": "proposalId",
          "type": "bytes32"
        },
        {
          "indexed": false,
          "name": "vote",
          "type": "uint256"
        },
        {
          "indexed": true,
          "name": "voter",
          "type": "address"
        }
      ],
      "name": "ProposalVote",
      "type": "event"
    },
    {
      "constant": false,
      "inputs": [
        {
          "name": "_amount",
          "type": "uint256"
        },
        {
          "name": "_beneficiary",
          "type": "address"
        },
        {
          "name": "_proposalId",
          "type": "bytes32"
        }
      ],
      "name": "mintReputation",
      "outputs": [
        {
          "name": "",
          "type": "bool"
        }
      ],
      "payable": false,
      "stateMutability": "nonpayable",
      "type": "function"
    },
    {
      "constant": false,
      "inputs": [
        {
          "name": "_amount",
          "type": "uint256"
        },
        {
          "name": "_owner",
          "type": "address"
        },
        {
          "name": "_proposalId",
          "type": "bytes32"
        }
      ],
      "name": "burnReputation",
      "outputs": [
        {
          "name": "",
          "type": "bool"
        }
      ],
      "payable": false,
      "stateMutability": "nonpayable",
      "type": "function"
    },
    {
      "constant": false,
      "inputs": [
        {
          "name": "_stakingToken",
          "type": "address"
        },
        {
          "name": "_beneficiary",
          "type": "address"
        },
        {
          "name": "_amount",
          "type": "uint256"
        },
        {
          "name": "_proposalId",
          "type": "bytes32"
        }
      ],
      "name": "stakingTokenTransfer",
      "outputs": [
        {
          "name": "",
          "type": "bool"
        }
      ],
      "payable": false,
      "stateMutability": "nonpayable",
      "type": "function"
    },
    {
      "constant": true,
      "inputs": [
        {
          "name": "_stakingToken",
          "type": "address"
        },
        {
          "name": "_proposalId",
          "type": "bytes32"
        }
      ],
      "name": "balanceOfStakingToken",
      "outputs": [
        {
          "name": "",
          "type": "uint256"
        }
      ],
      "payable": false,
      "stateMutability": "view",
      "type": "function"
    },
    {
      "constant": false,
      "inputs": [
        {
          "name": "_proposalId",
          "type": "bytes32"
        },
        {
          "name": "yes",
          "type": "bool"
        }
      ],
      "name": "vote",
      "outputs": [],
      "payable": false,
      "stateMutability": "nonpayable",
      "type": "function"
    },
    {
      "constant": false,
      "inputs": [
        {
          "name": "_ethAmount",
          "type": "uint256"
        },
        {
          "name": "_daiAmount",
          "type": "uint256"
        }
      ],
      "name": "createProposal",
      "outputs": [],
      "payable": false,
      "stateMutability": "nonpayable",
      "type": "function"
    },
    {
      "constant": true,
      "inputs": [
        {
          "name": "_proposalId",
          "type": "bytes32"
        },
        {
          "name": "_voter",
          "type": "address"
        }
      ],
      "name": "checkVote",
      "outputs": [
        {
          "name": "vote",
          "type": "uint256"
        },
        {
          "name": "reputation",
          "type": "uint256"
        }
      ],
      "payable": false,
      "stateMutability": "view",
      "type": "function"
    },
    {
      "constant": true,
      "inputs": [
        {
          "name": "_proposalId",
          "type": "bytes32"
        }
      ],
      "name": "voteStatus",
      "outputs": [
        {
          "name": "yes",
          "type": "uint256"
        },
        {
          "name": "no",
          "type": "uint256"
        }
      ],
      "payable": false,
      "stateMutability": "view",
      "type": "function"
    },
    {
      "constant": true,
      "inputs": [
        {
          "name": "_proposalId",
          "type": "bytes32"
        }
      ],
      "name": "getTotalReputationSupply",
      "outputs": [
        {
          "name": "",
          "type": "uint256"
        }
      ],
      "payable": false,
      "stateMutability": "view",
      "type": "function"
    },
    {
      "constant": true,
      "inputs": [
        {
          "name": "_owner",
          "type": "address"
        },
        {
          "name": "_proposalId",
          "type": "bytes32"
        }
      ],
      "name": "reputationOf",
      "outputs": [
        {
          "name": "",
          "type": "uint256"
        }
      ],
      "payable": false,
      "stateMutability": "view",
      "type": "function"
    },
    {
      "constant": false,
      "inputs": [
        {
          "name": "_proposalId",
          "type": "bytes32"
        },
        {
          "name": "_decision",
          "type": "int256"
        }
      ],
      "name": "executeProposal",
      "outputs": [
        {
          "name": "",
          "type": "bool"
        }
      ],
      "payable": false,
      "stateMutability": "nonpayable",
      "type": "function"
    },
    {
      "constant": true,
      "inputs": [
        {
          "name": "_bytes32",
          "type": "bytes32"
        }
      ],
      "name": "bytes32ToStr",
      "outputs": [
        {
          "name": "",
          "type": "string"
        }
      ],
      "payable": false,
      "stateMutability": "pure",
      "type": "function"
    }
  ],
  "bytecode": "0x608060405260048054600160a060020a031916734e17c87c52d0e9a0cad3fbc53b77d9514f00380717905534801561003657600080fd5b50604051602080611fee8339810180604052602081101561005657600080fd5b5051600381905560008054600160a060020a0319163317905560405161007b9061014d565b604051809103906000f080158015610097573d6000803e3d6000fd5b5060018054600160a060020a031916600160a060020a039283161790819055604080517f23d840f500000000000000000000000000000000000000000000000000000000815260336004820152306024820152905191909216916323d840f59160448083019260209291908290030181600087803b15801561011857600080fd5b505af115801561012c573d6000803e3d6000fd5b505050506040513d602081101561014257600080fd5b50516002555061015a565b6110ce80610f2083390190565b610db7806101696000396000f3fe608060405234801561001057600080fd5b5060043610610149576000357c0100000000000000000000000000000000000000000000000000000000900480639588378e116100ca578063bea75f281161008e578063bea75f2814610327578063d29b5d2f14610363578063ef0b236814610395578063f078656214610427578063f81f8bf61461036357610149565b80639588378e146102655780639d4c162d146102915780639f2ce678146102c8578063ac7f05f9146102ed578063b551c3731461030a57610149565b80635b8a1236116101115780635b8a1236146101e75780636935bda6146101ef5780636b8eb403146102145780637bdd52bd1461024057806386a426631461025d57610149565b80631290b2131461014e5780632a4c0a1a1461018457806334b67dc8146101a85780633fafa127146101d75780634b6d4400146101df575b600080fd5b61016b6004803603602081101561016457600080fd5b5035610453565b6040805192835260208301919091528051918290030190f35b61018c610592565b60408051600160a060020a039092168252519081900360200190f35b6101c5600480360360208110156101be57600080fd5b50356105a1565b60408051918252519081900360200190f35b6101c56105b3565b61018c6105b9565b61018c6105c8565b6102126004803603604081101561020557600080fd5b50803590602001356105d7565b005b6101c56004803603604081101561022a57600080fd5b50600160a060020a0381351690602001356106fa565b6101c56004803603602081101561025657600080fd5b5035610702565b6101c5610714565b6101c56004803603604081101561027b57600080fd5b50600160a060020a03813516906020013561071a565b6102b4600480360360408110156102a757600080fd5b50803590602001356107be565b604080519115158252519081900360200190f35b610212600480360360408110156102de57600080fd5b50803590602001351515610a56565b61018c6004803603602081101561030357600080fd5b5035610b6e565b6101c56004803603602081101561032057600080fd5b5035610b89565b6102b46004803603608081101561033d57600080fd5b50600160a060020a03813581169160208101359091169060408101359060600135610c24565b6102b46004803603606081101561037957600080fd5b50803590600160a060020a036020820135169060400135610c2e565b6103b2600480360360208110156103ab57600080fd5b5035610c37565b6040805160208082528351818301528351919283929083019185019080838360005b838110156103ec5781810151838201526020016103d4565b50505050905090810190601f1680156104195780820380516001836020036101000a031916815260200191505b509250505060405180910390f35b61016b6004803603604081101561043d57600080fd5b5080359060200135600160a060020a0316610ce0565b60018054604080517fb4512913000000000000000000000000000000000000000000000000000000008152600481018590526024810193909352516000928392600160a060020a03169163b451291391604480820192602092909190829003018186803b1580156104c357600080fd5b505afa1580156104d7573d6000803e3d6000fd5b505050506040513d60208110156104ed57600080fd5b5051600154604080517fb451291300000000000000000000000000000000000000000000000000000000815260048101879052600060248201529051929450600160a060020a039091169163b451291391604480820192602092909190829003018186803b15801561055e57600080fd5b505afa158015610572573d6000803e3d6000fd5b505050506040513d602081101561058857600080fd5b5051919391925050565b600454600160a060020a031681565b60056020526000908152604090205481565b60035481565b600154600160a060020a031681565b600054600160a060020a031681565b60015460028054604080517f88737b5e0000000000000000000000000000000000000000000000000000000081526004810193909352602483019190915260006044830181905230606484015290519092600160a060020a0316916388737b5e91608480830192602092919082900301818787803b15801561065857600080fd5b505af115801561066c573d6000803e3d6000fd5b505050506040513d602081101561068257600080fd5b50516000818152600560209081526040808320879055600682528083208690556007909152808220805473ffffffffffffffffffffffffffffffffffffffff19163390811790915590519293509183917fe90bb18a6fc9203e3678a7f41e132910465e0fce1421609662d02c481fbfbcf891a3505050565b600092915050565b60066020526000908152604090205481565b60025481565b60008054600354604080517f48e2f8080000000000000000000000000000000000000000000000000000000081526004810192909252600160a060020a03868116602484015290519216916348e2f80891604480820192602092909190829003018186803b15801561078b57600080fd5b505afa15801561079f573d6000803e3d6000fd5b505050506040513d60208110156107b557600080fd5b50519392505050565b60008160011415610a1a57600080546003548583526005602090815260408085205460069092528085205481517f90fbc26300000000000000000000000000000000000000000000000000000000815260048101949094526024840192909252604483019190915260806064830152601160848301527f476f742066726f6d2070726f706f73616c00000000000000000000000000000060a483015251600160a060020a03909216926390fbc2639260c48084019382900301818387803b15801561088857600080fd5b505af115801561089c573d6000803e3d6000fd5b505050600084815260076020526040808220549051600160a060020a039091169250303180156108fc0292909190818181858888f193505050501580156108e7573d6000803e3d6000fd5b5060048054604080517f70a08231000000000000000000000000000000000000000000000000000000008152309381019390935251600092600160a060020a03909216916370a08231916024808301926020929190829003018186803b15801561095057600080fd5b505afa158015610964573d6000803e3d6000fd5b505050506040513d602081101561097a57600080fd5b505160048054604080517fa9059cbb00000000000000000000000000000000000000000000000000000000815233938101939093526024830184905251929350600160a060020a03169163a9059cbb916044808201926020929091908290030181600087803b1580156109ec57600080fd5b505af1158015610a00573d6000803e3d6000fd5b505050506040513d6020811015610a1657600080fd5b5050505b60408051838152905184917f7aee3b251fb70a99f585fd5c4dcf58d0d06214cb5613783bf0d8be2bdd4cb927919081900360200190a292915050565b600154600160a060020a031663359afa498383610a74576000610a77565b60015b6000336040518563ffffffff167c0100000000000000000000000000000000000000000000000000000000028152600401808581526020018460ff16815260200183815260200182600160a060020a0316600160a060020a03168152602001945050505050602060405180830381600087803b158015610af657600080fd5b505af1158015610b0a573d6000803e3d6000fd5b505050506040513d6020811015610b2057600080fd5b50339050827f18c281333a47d53d54122a7e7eab5dea68828361db06aa24ec6512a3baee304d83610b52576000610b55565b60015b6040805160ff9092168252519081900360200190a35050565b600760205260009081526040902054600160a060020a031681565b60008054600354604080517f0c78adcc000000000000000000000000000000000000000000000000000000008152600481019290925251600160a060020a0390921691630c78adcc91602480820192602092909190829003018186803b158015610bf257600080fd5b505afa158015610c06573d6000803e3d6000fd5b505050506040513d6020811015610c1c57600080fd5b505192915050565b6000949350505050565b60009392505050565b60408051818152606081810183529182919060208201818038833901905050905060005b6020811015610cd957838160208110610c7057fe5b1a7f0100000000000000000000000000000000000000000000000000000000000000028282815181101515610ca157fe5b9060200101907effffffffffffffffffffffffffffffffffffffffffffffffffffffffffffff1916908160001a905350600201610c5b565b5092915050565b600154604080517f119ce91b00000000000000000000000000000000000000000000000000000000815260048101859052600160a060020a0384811660248301528251600094859492169263119ce91b926044808301939192829003018186803b158015610d4d57600080fd5b505afa158015610d61573d6000803e3d6000fd5b505050506040513d6040811015610d7757600080fd5b50805160209091015190959094509250505056fea165627a7a723058207ca3f72349a9dabefe85491bf3d3af05fd85d35ee394c36f5bd56fefff5dc6870029608060405234801561001057600080fd5b506110ae806100206000396000f3fe608060405234801561001057600080fd5b5060043610610128576000357c01000000000000000000000000000000000000000000000000000000009004806351d997b2116100bf578063a003651d1161008e578063a003651d14610337578063b451291314610354578063ba51b14e14610377578063c0835106146103b0578063e751f271146103cd57610128565b806351d997b2146102ce57806388737b5e146102d65780638d22651e146103105780639525c0cc1461031857610128565b8063289647e4116100fb578063289647e4146101f657806332ed5b1214610222578063359afa491461027a5780635142bc1e146102c657610128565b8063025068041461012d578063119ce91b1461016b57806321b4b3dc146101b057806323d840f5146101ca575b600080fd5b61014a6004803603602081101561014357600080fd5b50356103ea565b60408051928352600160a060020a0390911660208301528051918290030190f35b6101976004803603604081101561018157600080fd5b5080359060200135600160a060020a031661040c565b6040805192835260208301919091528051918290030190f35b6101b861045d565b60408051918252519081900360200190f35b6101b8600480360360408110156101e057600080fd5b5080359060200135600160a060020a0316610463565b6101b86004803603604081101561020c57600080fd5b5080359060200135600160a060020a03166104ee565b61023f6004803603602081101561023857600080fd5b5035610533565b604080519687529415156020870152600160a060020a03909316858501526060850191909152608084015260a0830152519081900360c00190f35b6102b26004803603608081101561029057600080fd5b5080359060208101359060408101359060600135600160a060020a0316610573565b604080519115158252519081900360200190f35b610197610622565b6102b261062a565b6101b8600480360360808110156102ec57600080fd5b50803590602081013590600160a060020a036040820135811691606001351661062f565b6101b8610891565b6103356004803603602081101561032e57600080fd5b5035610896565b005b6101b86004803603602081101561034d57600080fd5b50356108c7565b6101b86004803603604081101561036a57600080fd5b50803590602001356108dc565b6103946004803603602081101561038d57600080fd5b50356108fd565b60408051600160a060020a039092168252519081900360200190f35b6102b2600480360360208110156103c657600080fd5b5035610918565b6102b2600480360360208110156103e357600080fd5b5035610931565b60006020819052908152604090208054600190910154600160a060020a031682565b600080610417611036565b5050506000828152600160208181526040808420600160a060020a0386168552600601825292839020835180850190945280548085529201549201829052909250929050565b60035481565b6000606483111580156104765750600083115b151561048157600080fd5b600061048d84846104ee565b604080518082018252958652600160a060020a0394851660208088019182526000848152908190529190912095518655516001909501805473ffffffffffffffffffffffffffffffffffffffff191695909416949094179092555090919050565b60408051602080820194909452600160a060020a03929092166c0100000000000000000000000002828201528051808303603401815260549092019052805191012090565b60016020819052600091825260409091208054918101546002820154600383015460049093015460ff831693610100909304600160a060020a0316929086565b600084815260016020819052604082200154859060ff16151561059557600080fd5b60008681526001602052604090206105ab611036565b50600381015460009081526020818152604080832081518083019092528054825260010154600160a060020a0316918101829052919015610606576020820151600160a060020a031633146105ff57600080fd5b5084610609565b50335b61061589828a8a610965565b9998505050505050505050565b6000600a9091565b600190565b600083815260208190526040812054811061064957600080fd5b60008511801561065a5750600a8511155b151561066557600080fd5b600354604080516c01000000000000000000000000300260208083019190915260348083018590528351808403909101815260549092019092528051910120906106b690600163ffffffff610c0816565b6003556106c161104d565b606081018781526080820187815233604080850182815281516c01000000000000000000000000938402602082810191909152600160a060020a038b8116909502603483015283516028818403018152604890920184528151918101919091208752600181880181815260008a81528284528581208a5180825592519381018054965189166101000274ffffffffffffffffffffffffffffffffffffffff001995151560ff1990981697909717949094169590951790925596516002808501919091559551600384015560a0880151600490930192909255948152929093529190205416151561082457600160a060020a03841615156107ed5780516000908152600260205260409020805473ffffffffffffffffffffffffffffffffffffffff191633179055610824565b80516000908152600260205260409020805473ffffffffffffffffffffffffffffffffffffffff1916600160a060020a0386161790555b80516000908152600260209081526040918290205482518a815233928101929092528183018990529151600160a060020a039092169184917f75b4ff136cc5de5957574c797de3334eb1c141271922b825eb071e0487ba2c5c919081900360600190a35095945050505050565b600a81565b60008181526001602081905260409091200154819060ff1615156108b957600080fd5b6108c38233610c21565b5050565b60009081526001602052604090206002015490565b60009182526001602090815260408084209284526005909201905290205490565b600260205260009081526040902054600160a060020a031681565b6000908152600160208190526040909120015460ff1690565b600081815260016020819052604082200154829060ff16151561095357600080fd5b61095c83610d26565b91505b50919050565b6000848152600160205260408120600281015484111561098457600080fd5b6001810154604080517f9588378e000000000000000000000000000000000000000000000000000000008152600160a060020a038881166004830152602482018a90529151600093610100900490921691639588378e91604480820192602092909190829003018186803b1580156109fb57600080fd5b505afa158015610a0f573d6000803e3d6000fd5b505050506040513d6020811015610a2557600080fd5b5051905060008111610a9857604080517f08c379a000000000000000000000000000000000000000000000000000000000815260206004820152601b60248201527f5f766f746572206d75737420686176652072657075746174696f6e0000000000604482015290519081900360640190fd5b83811015610aa557600080fd5b83801515610ab05750805b600160a060020a038716600090815260068401602052604090206001015415610add57610add8888610c21565b6000868152600584016020526040902054610aff90829063ffffffff610c0816565b60008781526005850160205260409020556004830154610b2690829063ffffffff610c0816565b60048401556040805180820182528781526020808201848152600160a060020a03808c16600081815260068a0185528681209551865592516001909501949094558754825260028352908490205484518b8152928301869052845193949116928c927f066c061a3792cb3eb64a441a928655fcbafb4a54b49725fe9cd2951df5e7189e92908290030190a460408051600160a060020a0389163314158152905189917fe715e19c865cb724f3c292cc2fffc24d9cdd398e179fb366f008cc73028e1c52919081900360200190a2610bfc88610d26565b98975050505050505050565b600082820183811015610c1a57600080fd5b9392505050565b6000828152600160205260409020610c37611036565b50600160a060020a03821660009081526006820160209081526040808320815180830183528154808252600190920154818501819052918552600586019093529220549091610c8c919063ffffffff610fa516565b815160009081526005840160209081526040909120919091558101516004830154610cbc9163ffffffff610fa516565b6004830155600160a060020a03808416600081815260068501602090815260408083208381556001018390558654835260029091528082205490519293169187917f0ecab23267930de581498fac1af19a95c888ec6583921ee9c47473e16245d3c891a450505050565b600081815260016020819052604082200154829060ff161515610d4857600080fd5b60008381526001602081815260408084209283015481517fb551c373000000000000000000000000000000000000000000000000000000008152600481018990529151939493610100909104600160a060020a03169263b551c3739260248082019391829003018186803b158015610dbf57600080fd5b505afa158015610dd3573d6000803e3d6000fd5b505050506040513d6020811015610de957600080fd5b505160038301546000908152602081905260408120549192505b60028401548111610f985760008181526005850160205260409020546064840483021015610f9057610e3361104d565b506040805160c08101825285548152600186015460ff8116151560208301526101009004600160a060020a0316918101919091526002850154606082015260038501546080820152600485015460a0820152610e8e88610fba565b80516000908152600260209081526040918290205482518581529182018790528251600160a060020a03909116928b927f37471b9c9d295ffb1309ad070b8964700bfb7b555e8e8292d0b6cbc7dba35d10929081900390910190a38060400151600160a060020a0316639d4c162d89846040518363ffffffff167c01000000000000000000000000000000000000000000000000000000000281526004018083815260200182815260200192505050602060405180830381600087803b158015610f5757600080fd5b505af1158015610f6b573d6000803e3d6000fd5b505050506040513d6020811015610f8157600080fd5b5051965061095f945050505050565b600101610e03565b5060009695505050505050565b600082821115610fb457600080fd5b50900390565b6000818152600160205260408120905b60028201548111610fee576000818152600583016020526040812055600101610fca565b505060009081526001602081905260408220828155908101805474ffffffffffffffffffffffffffffffffffffffffff19169055600281018290556003810182905560040155565b604080518082019091526000808252602082015290565b6040805160c081018252600080825260208201819052918101829052606081018290526080810182905260a08101919091529056fea165627a7a72305820ff1c11a11cf3590584d367a53dd17ef3cd7f6895bf5bac1795fcfe740f3889ed0029",
  "source": "pragma solidity ^0.5.0;\n\nimport \"openzeppelin-solidity/contracts/token/ERC20/IERC20.sol\";\nimport '@daostack/infra/contracts/votingMachines/AbsoluteVote.sol';\nimport \"./IFirestarter.sol\";\n\ncontract VotingMachineCallback is VotingMachineCallbacksInterface, ProposalExecuteInterface {\n\n    function mintReputation(uint256 _amount, address _beneficiary, bytes32 _proposalId) external returns(bool) {}\n    function burnReputation(uint256 _amount, address _owner, bytes32 _proposalId) external returns(bool) {}\n    function stakingTokenTransfer(IERC20 _stakingToken, address _beneficiary, uint256 _amount, bytes32 _proposalId)\n    external\n    returns(bool) {}\n    function balanceOfStakingToken(IERC20 _stakingToken, bytes32 _proposalId) external view returns(uint256){}\n\n//--------------------------------------------------------------------------------------------------------\n\n\taddress public firestarter;\n\tAbsoluteVote public absoluteVote;\n\tbytes32 public paramsHash;\n\tuint public projectId;\n\n    address public DAI_ADDRESS = 0x4e17c87c52d0E9a0cAd3Fbc53b77d9514F003807;\n\n    mapping(bytes32 => uint) public ethWanted;\n    mapping(bytes32 => uint) public daiWanted;\n    mapping(bytes32 => address payable) public proposer;\n\n\tevent ProposalCreated(bytes32 indexed proposalId, address indexed proposer);\n\tevent ProposalFinished(bytes32 indexed proposalId, int decision);\n\tevent ProposalVote(bytes32 indexed proposalId, uint vote, address indexed voter);\n\n\tconstructor(uint _projectId) public {\n\t\tprojectId = _projectId;\n\t\tfirestarter = msg.sender;\n\t\tabsoluteVote = new AbsoluteVote();\n\t\tparamsHash = absoluteVote.setParameters(51, address(this)); \n\t}\n\n\tfunction vote(bytes32 _proposalId, bool yes) public {\n\n        absoluteVote.vote(_proposalId, yes ? 1 : 0, 0, msg.sender);\n\n        emit ProposalVote(_proposalId, yes ? 1 : 0, msg.sender);\n\t}\n\n\tfunction createProposal(uint _ethAmount, uint _daiAmount) public {\n\t\tbytes32 proposalId = absoluteVote.propose(2, paramsHash, address(0), address(this));\n\n        ethWanted[proposalId] = _ethAmount;\n        daiWanted[proposalId] = _daiAmount;\n        proposer[proposalId] = msg.sender;\n\n\t\temit ProposalCreated(proposalId, msg.sender);\n\t}\n\n    function checkVote(bytes32 _proposalId, address _voter) public view returns(uint vote, uint reputation) {\n        (vote, reputation) = absoluteVote.voteInfo(_proposalId, _voter);\n    }\n\n    function voteStatus(bytes32 _proposalId) public view returns(uint yes, uint no) {\n        yes = absoluteVote.voteStatus(_proposalId, 1);\n        no = absoluteVote.voteStatus(_proposalId, 0);\n    }\n    \n\n    function getTotalReputationSupply(bytes32 _proposalId) external view returns(uint256) {\n    \t\n    \treturn IFirestarter(firestarter).maxReputation(projectId);\n    }\n\n    function reputationOf(address _owner, bytes32 _proposalId) external view returns(uint256) {\n    \treturn IFirestarter(firestarter).userFundedProject(projectId, _owner);\n    }\n\n    function executeProposal(bytes32 _proposalId, int _decision) external returns(bool) {\n\n        if (_decision == 1) {\n            IFirestarter(firestarter).withdraw(projectId, ethWanted[_proposalId], daiWanted[_proposalId], \"Got from proposal\");\n\n            proposer[_proposalId].transfer(address(this).balance);\n            uint balance = IERC20(DAI_ADDRESS).balanceOf(address(this));\n            IERC20(DAI_ADDRESS).transfer(msg.sender, balance);\n        }\n\n    \temit ProposalFinished(_proposalId, _decision);\n    }\n\n    function bytes32ToStr(bytes32 _bytes32) public pure returns (string memory) {\n        bytes memory bytesArray = new bytes(64);\n        \n        for (uint256 i; i < 32; i=i+2) {\n            bytesArray[i] = _bytes32[i];\n        }\n\n        return string(bytesArray);\n    }\n\n}",
  "sourcePath": "/Users/nikolaklipa/Hakaton/Firestarter/contracts/VotingMachineCallback.sol",
  "compiler": {
    "name": "solc",
    "version": "0.5.4+commit.9549d8ff.Emscripten.clang"
  },
  "schemaVersion": "3.0.2",
  "updatedAt": "2019-03-10T04:33:38.983Z",
  "devdoc": {
    "methods": {}
  },
  "userdoc": {
    "methods": {}
  }
}